{
  "contractName": "DominonDAO",
  "abi": [
    {
      "anonymous": false,
      "inputs": [
        {
          "indexed": true,
          "internalType": "address",
          "name": "initiator",
          "type": "address"
        },
        {
          "indexed": false,
          "internalType": "bytes32",
          "name": "role",
          "type": "bytes32"
        },
        {
          "indexed": false,
          "internalType": "string",
          "name": "message",
          "type": "string"
        },
        {
          "indexed": true,
          "internalType": "address",
          "name": "beneficiary",
          "type": "address"
        },
        {
          "indexed": false,
          "internalType": "uint256",
          "name": "amount",
          "type": "uint256"
        }
      ],
      "name": "Action",
      "type": "event"
    },
    {
      "anonymous": false,
      "inputs": [
        {
          "indexed": true,
          "internalType": "bytes32",
          "name": "role",
          "type": "bytes32"
        },
        {
          "indexed": true,
          "internalType": "bytes32",
          "name": "previousAdminRole",
          "type": "bytes32"
        },
        {
          "indexed": true,
          "internalType": "bytes32",
          "name": "newAdminRole",
          "type": "bytes32"
        }
      ],
      "name": "RoleAdminChanged",
      "type": "event"
    },
    {
      "anonymous": false,
      "inputs": [
        {
          "indexed": true,
          "internalType": "bytes32",
          "name": "role",
          "type": "bytes32"
        },
        {
          "indexed": true,
          "internalType": "address",
          "name": "account",
          "type": "address"
        },
        {
          "indexed": true,
          "internalType": "address",
          "name": "sender",
          "type": "address"
        }
      ],
      "name": "RoleGranted",
      "type": "event"
    },
    {
      "anonymous": false,
      "inputs": [
        {
          "indexed": true,
          "internalType": "bytes32",
          "name": "role",
          "type": "bytes32"
        },
        {
          "indexed": true,
          "internalType": "address",
          "name": "account",
          "type": "address"
        },
        {
          "indexed": true,
          "internalType": "address",
          "name": "sender",
          "type": "address"
        }
      ],
      "name": "RoleRevoked",
      "type": "event"
    },
    {
      "inputs": [],
      "name": "DEFAULT_ADMIN_ROLE",
      "outputs": [
        {
          "internalType": "bytes32",
          "name": "",
          "type": "bytes32"
        }
      ],
      "stateMutability": "view",
      "type": "function"
    },
    {
      "inputs": [],
      "name": "daoBalance",
      "outputs": [
        {
          "internalType": "uint256",
          "name": "",
          "type": "uint256"
        }
      ],
      "stateMutability": "view",
      "type": "function"
    },
    {
      "inputs": [
        {
          "internalType": "bytes32",
          "name": "role",
          "type": "bytes32"
        }
      ],
      "name": "getRoleAdmin",
      "outputs": [
        {
          "internalType": "bytes32",
          "name": "",
          "type": "bytes32"
        }
      ],
      "stateMutability": "view",
      "type": "function"
    },
    {
      "inputs": [
        {
          "internalType": "bytes32",
          "name": "role",
          "type": "bytes32"
        },
        {
          "internalType": "address",
          "name": "account",
          "type": "address"
        }
      ],
      "name": "grantRole",
      "outputs": [],
      "stateMutability": "nonpayable",
      "type": "function"
    },
    {
      "inputs": [
        {
          "internalType": "bytes32",
          "name": "role",
          "type": "bytes32"
        },
        {
          "internalType": "address",
          "name": "account",
          "type": "address"
        }
      ],
      "name": "hasRole",
      "outputs": [
        {
          "internalType": "bool",
          "name": "",
          "type": "bool"
        }
      ],
      "stateMutability": "view",
      "type": "function"
    },
    {
      "inputs": [
        {
          "internalType": "bytes32",
          "name": "role",
          "type": "bytes32"
        },
        {
          "internalType": "address",
          "name": "account",
          "type": "address"
        }
      ],
      "name": "renounceRole",
      "outputs": [],
      "stateMutability": "nonpayable",
      "type": "function"
    },
    {
      "inputs": [
        {
          "internalType": "bytes32",
          "name": "role",
          "type": "bytes32"
        },
        {
          "internalType": "address",
          "name": "account",
          "type": "address"
        }
      ],
      "name": "revokeRole",
      "outputs": [],
      "stateMutability": "nonpayable",
      "type": "function"
    },
    {
      "inputs": [
        {
          "internalType": "bytes4",
          "name": "interfaceId",
          "type": "bytes4"
        }
      ],
      "name": "supportsInterface",
      "outputs": [
        {
          "internalType": "bool",
          "name": "",
          "type": "bool"
        }
      ],
      "stateMutability": "view",
      "type": "function"
    },
    {
      "inputs": [
        {
          "internalType": "string",
          "name": "title",
          "type": "string"
        },
        {
          "internalType": "string",
          "name": "description",
          "type": "string"
        },
        {
          "internalType": "address",
          "name": "beneficiary",
          "type": "address"
        },
        {
          "internalType": "uint256",
          "name": "amount",
          "type": "uint256"
        }
      ],
      "name": "createProposal",
      "outputs": [],
      "stateMutability": "nonpayable",
      "type": "function"
    },
    {
      "inputs": [
        {
          "internalType": "uint256",
          "name": "proposalId",
          "type": "uint256"
        },
        {
          "internalType": "bool",
          "name": "supported",
          "type": "bool"
        }
      ],
      "name": "performVote",
      "outputs": [],
      "stateMutability": "nonpayable",
      "type": "function"
    },
    {
      "inputs": [
        {
          "internalType": "uint256",
          "name": "proposalId",
          "type": "uint256"
        }
      ],
      "name": "payBeneficiary",
      "outputs": [
        {
          "internalType": "bool",
          "name": "",
          "type": "bool"
        }
      ],
      "stateMutability": "nonpayable",
      "type": "function"
    },
    {
      "inputs": [],
      "name": "contribute",
      "outputs": [],
      "stateMutability": "payable",
      "type": "function"
    },
    {
      "inputs": [],
      "name": "getProposals",
      "outputs": [
        {
          "components": [
            {
              "internalType": "uint256",
              "name": "id",
              "type": "uint256"
            },
            {
              "internalType": "uint256",
              "name": "amount",
              "type": "uint256"
            },
            {
              "internalType": "uint256",
              "name": "duration",
              "type": "uint256"
            },
            {
              "internalType": "uint256",
              "name": "upvotes",
              "type": "uint256"
            },
            {
              "internalType": "uint256",
              "name": "downvotes",
              "type": "uint256"
            },
            {
              "internalType": "string",
              "name": "title",
              "type": "string"
            },
            {
              "internalType": "string",
              "name": "description",
              "type": "string"
            },
            {
              "internalType": "bool",
              "name": "passed",
              "type": "bool"
            },
            {
              "internalType": "bool",
              "name": "paid",
              "type": "bool"
            },
            {
              "internalType": "address payable",
              "name": "beneficiary",
              "type": "address"
            },
            {
              "internalType": "address",
              "name": "proposer",
              "type": "address"
            },
            {
              "internalType": "address",
              "name": "executor",
              "type": "address"
            }
          ],
          "internalType": "struct DominonDAO.ProposalStruct[]",
          "name": "props",
          "type": "tuple[]"
        }
      ],
      "stateMutability": "view",
      "type": "function"
    },
    {
      "inputs": [
        {
          "internalType": "uint256",
          "name": "proposalId",
          "type": "uint256"
        }
      ],
      "name": "getProposal",
      "outputs": [
        {
          "components": [
            {
              "internalType": "uint256",
              "name": "id",
              "type": "uint256"
            },
            {
              "internalType": "uint256",
              "name": "amount",
              "type": "uint256"
            },
            {
              "internalType": "uint256",
              "name": "duration",
              "type": "uint256"
            },
            {
              "internalType": "uint256",
              "name": "upvotes",
              "type": "uint256"
            },
            {
              "internalType": "uint256",
              "name": "downvotes",
              "type": "uint256"
            },
            {
              "internalType": "string",
              "name": "title",
              "type": "string"
            },
            {
              "internalType": "string",
              "name": "description",
              "type": "string"
            },
            {
              "internalType": "bool",
              "name": "passed",
              "type": "bool"
            },
            {
              "internalType": "bool",
              "name": "paid",
              "type": "bool"
            },
            {
              "internalType": "address payable",
              "name": "beneficiary",
              "type": "address"
            },
            {
              "internalType": "address",
              "name": "proposer",
              "type": "address"
            },
            {
              "internalType": "address",
              "name": "executor",
              "type": "address"
            }
          ],
          "internalType": "struct DominonDAO.ProposalStruct",
          "name": "",
          "type": "tuple"
        }
      ],
      "stateMutability": "view",
      "type": "function"
    },
    {
      "inputs": [],
      "name": "getStakeholderVotes",
      "outputs": [
        {
          "internalType": "uint256[]",
          "name": "",
          "type": "uint256[]"
        }
      ],
      "stateMutability": "view",
      "type": "function"
    },
    {
      "inputs": [],
      "name": "getStakeholderBalance",
      "outputs": [
        {
          "internalType": "uint256",
          "name": "",
          "type": "uint256"
        }
      ],
      "stateMutability": "view",
      "type": "function"
    },
    {
      "inputs": [],
      "name": "isStakeholder",
      "outputs": [
        {
          "internalType": "bool",
          "name": "",
          "type": "bool"
        }
      ],
      "stateMutability": "view",
      "type": "function"
    },
    {
      "inputs": [],
      "name": "getContributorBalance",
      "outputs": [
        {
          "internalType": "uint256",
          "name": "",
          "type": "uint256"
        }
      ],
      "stateMutability": "view",
      "type": "function"
    },
    {
      "inputs": [],
      "name": "isContributor",
      "outputs": [
        {
          "internalType": "bool",
          "name": "",
          "type": "bool"
        }
      ],
      "stateMutability": "view",
      "type": "function"
    }
  ],
  "bytecode": "0x60e06040527fa0bb1af1c90aa52ed052b92714ff0087008cc720049bf1af77cca2600b31e80c6080908152507ff4bb84e1768dd286358a736d195a0b228621173f655a73b89bf8b191ed0ba07d60a09081525062093a8063ffffffff1660c09063ffffffff1681525034801561007457600080fd5b50600160008190555060805160a05160c0516135aa6101006000396000610ef50152600081816105300152818161077001528181610ccd01528181610d990152818161106e015281816111a50152818161134c015281816117060152818161182c0152611a1e01526000818161089901528181610f7e0152818161185601526118db01526135aa6000f3fe6080604052600436106101145760003560e01c806391d14854116100a0578063c02146ac11610064578063c02146ac146103b3578063c7f758a8146103de578063d547741f1461041b578063d6cc801614610444578063d7bb99ba1461046f57610114565b806391d14854146102cc578063a217fddf14610309578063a22f1db714610334578063b31f111c1461035f578063bd9728161461038857610114565b806336568abe116100e757806336568abe146101f95780633cdb48c21461022257806362564c481461024d5780636a80d84d146102785780637cdc2eb7146102a357610114565b806301ffc9a714610119578063119c37c814610156578063248a9ca3146101935780632f2ff15d146101d0575b600080fd5b34801561012557600080fd5b50610140600480360381019061013b919061237e565b610479565b60405161014d91906123c6565b60405180910390f35b34801561016257600080fd5b5061017d60048036038101906101789190612417565b6104f3565b60405161018a91906123c6565b60405180910390f35b34801561019f57600080fd5b506101ba60048036038101906101b5919061247a565b6107b5565b6040516101c791906124b6565b60405180910390f35b3480156101dc57600080fd5b506101f760048036038101906101f2919061252f565b6107d5565b005b34801561020557600080fd5b50610220600480360381019061021b919061252f565b6107f6565b005b34801561022e57600080fd5b50610237610879565b604051610244919061257e565b60405180910390f35b34801561025957600080fd5b50610262610947565b60405161026f919061284d565b60405180910390f35b34801561028457600080fd5b5061028d610c90565b60405161029a919061257e565b60405180910390f35b3480156102af57600080fd5b506102ca60048036038101906102c591906128d4565b610d7b565b005b3480156102d857600080fd5b506102f360048036038101906102ee919061252f565b610fbf565b60405161030091906123c6565b60405180910390f35b34801561031557600080fd5b5061031e61102a565b60405161032b91906124b6565b60405180910390f35b34801561034057600080fd5b50610349611031565b6040516103569190612a2a565b60405180910390f35b34801561036b57600080fd5b5061038660048036038101906103819190612a78565b61116a565b005b34801561039457600080fd5b5061039d61138c565b6040516103aa919061257e565b60405180910390f35b3480156103bf57600080fd5b506103c8611392565b6040516103d591906123c6565b60405180910390f35b3480156103ea57600080fd5b5061040560048036038101906104009190612417565b6113db565b6040516104129190612bc3565b60405180910390f35b34801561042757600080fd5b50610442600480360381019061043d919061252f565b611697565b005b34801561045057600080fd5b506104596116b8565b60405161046691906123c6565b60405180910390f35b610477611701565b005b60007f7965db0b000000000000000000000000000000000000000000000000000000007bffffffffffffffffffffffffffffffffffffffffffffffffffffffff1916827bffffffffffffffffffffffffffffffffffffffffffffffffffffffff191614806104ec57506104eb82611a56565b5b9050919050565b60006040518060400160405280601f81526020017f556e617574686f72697a65643a205374616b65686f6c64657273206f6e6c79008152506105557f000000000000000000000000000000000000000000000000000000000000000033610fbf565b8190610597576040517f08c379a000000000000000000000000000000000000000000000000000000000815260040161058e9190612c2f565b60405180910390fd5b5060006004600085815260200190815260200160002090508060070160019054906101000a900460ff1615610601576040517f08c379a00000000000000000000000000000000000000000000000000000000081526004016105f890612c9d565b60405180910390fd5b806004015481600301541161064b576040517f08c379a000000000000000000000000000000000000000000000000000000000815260040161064290612d09565b60405180910390fd5b61067d8160070160029054906101000a900473ffffffffffffffffffffffffffffffffffffffff168260010154611ac0565b5060018160070160016101000a81548160ff021916908315150217905550338160090160006101000a81548173ffffffffffffffffffffffffffffffffffffffff021916908373ffffffffffffffffffffffffffffffffffffffff1602179055508060010154600360008282546106f49190612d58565b925050819055508060070160029054906101000a900473ffffffffffffffffffffffffffffffffffffffff1673ffffffffffffffffffffffffffffffffffffffff163373ffffffffffffffffffffffffffffffffffffffff167fa596782d699d74613fcbf59d33e720baabd313d6be9c95e2268f305430305eb77f000000000000000000000000000000000000000000000000000000000000000084600101546040516107a2929190612dd8565b60405180910390a3600192505050919050565b600060016000838152602001908152602001600020600101549050919050565b6107de826107b5565b6107e781611b78565b6107f18383611b8c565b505050565b6107fe611c6c565b73ffffffffffffffffffffffffffffffffffffffff168173ffffffffffffffffffffffffffffffffffffffff161461086b576040517f08c379a000000000000000000000000000000000000000000000000000000000815260040161086290612e86565b60405180910390fd5b6108758282611c74565b5050565b6000604051806060016040528060218152602001613525602191396108be7f000000000000000000000000000000000000000000000000000000000000000033610fbf565b8190610900576040517f08c379a00000000000000000000000000000000000000000000000000000000081526004016108f79190612c2f565b60405180910390fd5b50600660003373ffffffffffffffffffffffffffffffffffffffff1673ffffffffffffffffffffffffffffffffffffffff1681526020019081526020016000205491505090565b606060025467ffffffffffffffff81111561096557610964612ea6565b5b60405190808252806020026020018201604052801561099e57816020015b61098b6121d2565b8152602001906001900390816109835790505b50905060005b600254811015610c8c5760046000828152602001908152602001600020604051806101800160405290816000820154815260200160018201548152602001600282015481526020016003820154815260200160048201548152602001600582018054610a0f90612f04565b80601f0160208091040260200160405190810160405280929190818152602001828054610a3b90612f04565b8015610a885780601f10610a5d57610100808354040283529160200191610a88565b820191906000526020600020905b815481529060010190602001808311610a6b57829003601f168201915b50505050508152602001600682018054610aa190612f04565b80601f0160208091040260200160405190810160405280929190818152602001828054610acd90612f04565b8015610b1a5780601f10610aef57610100808354040283529160200191610b1a565b820191906000526020600020905b815481529060010190602001808311610afd57829003601f168201915b505050505081526020016007820160009054906101000a900460ff161515151581526020016007820160019054906101000a900460ff161515151581526020016007820160029054906101000a900473ffffffffffffffffffffffffffffffffffffffff1673ffffffffffffffffffffffffffffffffffffffff1673ffffffffffffffffffffffffffffffffffffffff1681526020016008820160009054906101000a900473ffffffffffffffffffffffffffffffffffffffff1673ffffffffffffffffffffffffffffffffffffffff1673ffffffffffffffffffffffffffffffffffffffff1681526020016009820160009054906101000a900473ffffffffffffffffffffffffffffffffffffffff1673ffffffffffffffffffffffffffffffffffffffff1673ffffffffffffffffffffffffffffffffffffffff1681525050828281518110610c6e57610c6d612f36565b5b60200260200101819052508080610c8490612f65565b9150506109a4565b5090565b60006040518060400160405280601f81526020017f556e617574686f72697a65643a206e6f742061207374616b65686f6c64657200815250610cf27f000000000000000000000000000000000000000000000000000000000000000033610fbf565b8190610d34576040517f08c379a0000000000000000000000000000000000000000000000000000000008152600401610d2b9190612c2f565b60405180910390fd5b50600760003373ffffffffffffffffffffffffffffffffffffffff1673ffffffffffffffffffffffffffffffffffffffff1681526020019081526020016000205491505090565b6040518060600160405280602f8152602001613546602f9139610dbe7f000000000000000000000000000000000000000000000000000000000000000033610fbf565b8190610e00576040517f08c379a0000000000000000000000000000000000000000000000000000000008152600401610df79190612c2f565b60405180910390fd5b50600060026000815480929190610e1690612f65565b9190505590506000600460008381526020019081526020016000209050818160000181905550338160080160006101000a81548173ffffffffffffffffffffffffffffffffffffffff021916908373ffffffffffffffffffffffffffffffffffffffff1602179055508888826005019190610e92929190612279565b508686826006019190610ea6929190612279565b50848160070160026101000a81548173ffffffffffffffffffffffffffffffffffffffff021916908373ffffffffffffffffffffffffffffffffffffffff1602179055508381600101819055507f000000000000000000000000000000000000000000000000000000000000000063ffffffff1642610f259190612fae565b81600201819055508473ffffffffffffffffffffffffffffffffffffffff163373ffffffffffffffffffffffffffffffffffffffff167fa596782d699d74613fcbf59d33e720baabd313d6be9c95e2268f305430305eb77f000000000000000000000000000000000000000000000000000000000000000087604051610fac929190613050565b60405180910390a3505050505050505050565b60006001600084815260200190815260200160002060000160008373ffffffffffffffffffffffffffffffffffffffff1673ffffffffffffffffffffffffffffffffffffffff16815260200190815260200160002060009054906101000a900460ff16905092915050565b6000801b81565b60606040518060400160405280601f81526020017f556e617574686f72697a65643a206e6f742061207374616b65686f6c646572008152506110937f000000000000000000000000000000000000000000000000000000000000000033610fbf565b81906110d5576040517f08c379a00000000000000000000000000000000000000000000000000000000081526004016110cc9190612c2f565b60405180910390fd5b50600560003373ffffffffffffffffffffffffffffffffffffffff1673ffffffffffffffffffffffffffffffffffffffff16815260200190815260200160002080548060200260200160405190810160405280929190818152602001828054801561115f57602002820191906000526020600020905b81548152602001906001019080831161114b575b505050505091505090565b6040518060400160405280601f81526020017f556e617574686f72697a65643a205374616b65686f6c64657273206f6e6c79008152506111ca7f000000000000000000000000000000000000000000000000000000000000000033610fbf565b819061120c576040517f08c379a00000000000000000000000000000000000000000000000000000000081526004016112039190612c2f565b60405180910390fd5b50600060046000858152602001908152602001600020905061122d81611d56565b82156112525780600301600081548092919061124890612f65565b919050555061126d565b80600401600081548092919061126790612f65565b91905055505b600560003373ffffffffffffffffffffffffffffffffffffffff1673ffffffffffffffffffffffffffffffffffffffff168152602001908152602001600020816000015490806001815401808255809150506001900390600052602060002001600090919091909150558060070160029054906101000a900473ffffffffffffffffffffffffffffffffffffffff1673ffffffffffffffffffffffffffffffffffffffff163373ffffffffffffffffffffffffffffffffffffffff167fa596782d699d74613fcbf59d33e720baabd313d6be9c95e2268f305430305eb77f0000000000000000000000000000000000000000000000000000000000000000846001015460405161137e9291906130d8565b60405180910390a350505050565b60035481565b600080600760003373ffffffffffffffffffffffffffffffffffffffff1673ffffffffffffffffffffffffffffffffffffffff1681526020019081526020016000205411905090565b6113e36121d2565b6004600083815260200190815260200160002060405180610180016040529081600082015481526020016001820154815260200160028201548152602001600382015481526020016004820154815260200160058201805461144490612f04565b80601f016020809104026020016040519081016040528092919081815260200182805461147090612f04565b80156114bd5780601f10611492576101008083540402835291602001916114bd565b820191906000526020600020905b8154815290600101906020018083116114a057829003601f168201915b505050505081526020016006820180546114d690612f04565b80601f016020809104026020016040519081016040528092919081815260200182805461150290612f04565b801561154f5780601f106115245761010080835404028352916020019161154f565b820191906000526020600020905b81548152906001019060200180831161153257829003601f168201915b505050505081526020016007820160009054906101000a900460ff161515151581526020016007820160019054906101000a900460ff161515151581526020016007820160029054906101000a900473ffffffffffffffffffffffffffffffffffffffff1673ffffffffffffffffffffffffffffffffffffffff1673ffffffffffffffffffffffffffffffffffffffff1681526020016008820160009054906101000a900473ffffffffffffffffffffffffffffffffffffffff1673ffffffffffffffffffffffffffffffffffffffff1673ffffffffffffffffffffffffffffffffffffffff1681526020016009820160009054906101000a900473ffffffffffffffffffffffffffffffffffffffff1673ffffffffffffffffffffffffffffffffffffffff1673ffffffffffffffffffffffffffffffffffffffff16815250509050919050565b6116a0826107b5565b6116a981611b78565b6116b38383611c74565b505050565b600080600660003373ffffffffffffffffffffffffffffffffffffffff1673ffffffffffffffffffffffffffffffffffffffff1681526020019081526020016000205411905090565b61172b7f000000000000000000000000000000000000000000000000000000000000000033610fbf565b61190757600034600660003373ffffffffffffffffffffffffffffffffffffffff1673ffffffffffffffffffffffffffffffffffffffff1681526020019081526020016000205461177c9190612fae565b9050674563918244f4000081106118805780600760003373ffffffffffffffffffffffffffffffffffffffff1673ffffffffffffffffffffffffffffffffffffffff1681526020019081526020016000208190555034600660003373ffffffffffffffffffffffffffffffffffffffff1673ffffffffffffffffffffffffffffffffffffffff16815260200190815260200160002060008282546118209190612fae565b925050819055506118517f000000000000000000000000000000000000000000000000000000000000000033611eeb565b61187b7f000000000000000000000000000000000000000000000000000000000000000033611eeb565b611901565b34600660003373ffffffffffffffffffffffffffffffffffffffff1673ffffffffffffffffffffffffffffffffffffffff16815260200190815260200160002060008282546118cf9190612fae565b925050819055506119007f000000000000000000000000000000000000000000000000000000000000000033611eeb565b5b506119b4565b34600660003373ffffffffffffffffffffffffffffffffffffffff1673ffffffffffffffffffffffffffffffffffffffff16815260200190815260200160002060008282546119569190612fae565b9250508190555034600760003373ffffffffffffffffffffffffffffffffffffffff1673ffffffffffffffffffffffffffffffffffffffff16815260200190815260200160002060008282546119ac9190612fae565b925050819055505b34600360008282546119c69190612fae565b925050819055503073ffffffffffffffffffffffffffffffffffffffff163373ffffffffffffffffffffffffffffffffffffffff167fa596782d699d74613fcbf59d33e720baabd313d6be9c95e2268f305430305eb77f000000000000000000000000000000000000000000000000000000000000000034604051611a4c929190613160565b60405180910390a3565b60007f01ffc9a7000000000000000000000000000000000000000000000000000000007bffffffffffffffffffffffffffffffffffffffffffffffffffffffff1916827bffffffffffffffffffffffffffffffffffffffffffffffffffffffff1916149050919050565b6000808373ffffffffffffffffffffffffffffffffffffffff1683604051611ae7906131cd565b60006040518083038185875af1925050503d8060008114611b24576040519150601f19603f3d011682016040523d82523d6000602084013e611b29565b606091505b5050905080611b6d576040517f08c379a0000000000000000000000000000000000000000000000000000000008152600401611b649061322e565b60405180910390fd5b600191505092915050565b611b8981611b84611c6c565b611ef9565b50565b611b968282610fbf565b611c6857600180600084815260200190815260200160002060000160008373ffffffffffffffffffffffffffffffffffffffff1673ffffffffffffffffffffffffffffffffffffffff16815260200190815260200160002060006101000a81548160ff021916908315150217905550611c0d611c6c565b73ffffffffffffffffffffffffffffffffffffffff168173ffffffffffffffffffffffffffffffffffffffff16837f2f8788117e7eff1d82e926ec794901d17c78024a50270940304540a733656f0d60405160405180910390a45b5050565b600033905090565b611c7e8282610fbf565b15611d525760006001600084815260200190815260200160002060000160008373ffffffffffffffffffffffffffffffffffffffff1673ffffffffffffffffffffffffffffffffffffffff16815260200190815260200160002060006101000a81548160ff021916908315150217905550611cf7611c6c565b73ffffffffffffffffffffffffffffffffffffffff168173ffffffffffffffffffffffffffffffffffffffff16837ff6391f5c32d9c69d2a47ea670b442974b53935d1edc7fd64eb21e047a839171b60405160405180910390a45b5050565b8060070160009054906101000a900460ff1680611d77575042816002015411155b15611dd45760018160070160006101000a81548160ff0219169083151502179055506040517f08c379a0000000000000000000000000000000000000000000000000000000008152600401611dcb9061329a565b60405180910390fd5b6000600560003373ffffffffffffffffffffffffffffffffffffffff1673ffffffffffffffffffffffffffffffffffffffff168152602001908152602001600020805480602002602001604051908101604052809291908181526020018280548015611e5f57602002820191906000526020600020905b815481526020019060010190808311611e4b575b5050505050905060005b8151811015611ee657818181518110611e8557611e84612f36565b5b602002602001015183600001541415611ed3576040517f08c379a0000000000000000000000000000000000000000000000000000000008152600401611eca90613306565b60405180910390fd5b8080611ede90612f65565b915050611e69565b505050565b611ef58282611b8c565b5050565b611f038282610fbf565b611f9257611f288173ffffffffffffffffffffffffffffffffffffffff166014611f96565b611f368360001c6020611f96565b604051602001611f479291906133fa565b6040516020818303038152906040526040517f08c379a0000000000000000000000000000000000000000000000000000000008152600401611f899190612c2f565b60405180910390fd5b5050565b606060006002836002611fa99190613434565b611fb39190612fae565b67ffffffffffffffff811115611fcc57611fcb612ea6565b5b6040519080825280601f01601f191660200182016040528015611ffe5781602001600182028036833780820191505090505b5090507f30000000000000000000000000000000000000000000000000000000000000008160008151811061203657612035612f36565b5b60200101907effffffffffffffffffffffffffffffffffffffffffffffffffffffffffffff1916908160001a9053507f78000000000000000000000000000000000000000000000000000000000000008160018151811061209a57612099612f36565b5b60200101907effffffffffffffffffffffffffffffffffffffffffffffffffffffffffffff1916908160001a905350600060018460026120da9190613434565b6120e49190612fae565b90505b6001811115612184577f3031323334353637383961626364656600000000000000000000000000000000600f86166010811061212657612125612f36565b5b1a60f81b82828151811061213d5761213c612f36565b5b60200101907effffffffffffffffffffffffffffffffffffffffffffffffffffffffffffff1916908160001a905350600485901c94508061217d9061348e565b90506120e7565b50600084146121c8576040517f08c379a00000000000000000000000000000000000000000000000000000000081526004016121bf90613504565b60405180910390fd5b8091505092915050565b60405180610180016040528060008152602001600081526020016000815260200160008152602001600081526020016060815260200160608152602001600015158152602001600015158152602001600073ffffffffffffffffffffffffffffffffffffffff168152602001600073ffffffffffffffffffffffffffffffffffffffff168152602001600073ffffffffffffffffffffffffffffffffffffffff1681525090565b82805461228590612f04565b90600052602060002090601f0160209004810192826122a757600085556122ee565b82601f106122c057803560ff19168380011785556122ee565b828001600101855582156122ee579182015b828111156122ed5782358255916020019190600101906122d2565b5b5090506122fb91906122ff565b5090565b5b80821115612318576000816000905550600101612300565b5090565b600080fd5b600080fd5b60007fffffffff0000000000000000000000000000000000000000000000000000000082169050919050565b61235b81612326565b811461236657600080fd5b50565b60008135905061237881612352565b92915050565b6000602082840312156123945761239361231c565b5b60006123a284828501612369565b91505092915050565b60008115159050919050565b6123c0816123ab565b82525050565b60006020820190506123db60008301846123b7565b92915050565b6000819050919050565b6123f4816123e1565b81146123ff57600080fd5b50565b600081359050612411816123eb565b92915050565b60006020828403121561242d5761242c61231c565b5b600061243b84828501612402565b91505092915050565b6000819050919050565b61245781612444565b811461246257600080fd5b50565b6000813590506124748161244e565b92915050565b6000602082840312156124905761248f61231c565b5b600061249e84828501612465565b91505092915050565b6124b081612444565b82525050565b60006020820190506124cb60008301846124a7565b92915050565b600073ffffffffffffffffffffffffffffffffffffffff82169050919050565b60006124fc826124d1565b9050919050565b61250c816124f1565b811461251757600080fd5b50565b60008135905061252981612503565b92915050565b600080604083850312156125465761254561231c565b5b600061255485828601612465565b92505060206125658582860161251a565b9150509250929050565b612578816123e1565b82525050565b6000602082019050612593600083018461256f565b92915050565b600081519050919050565b600082825260208201905092915050565b6000819050602082019050919050565b6125ce816123e1565b82525050565b600081519050919050565b600082825260208201905092915050565b60005b8381101561260e5780820151818401526020810190506125f3565b8381111561261d576000848401525b50505050565b6000601f19601f8301169050919050565b600061263f826125d4565b61264981856125df565b93506126598185602086016125f0565b61266281612623565b840191505092915050565b612676816123ab565b82525050565b6000612687826124d1565b9050919050565b6126978161267c565b82525050565b6126a6816124f1565b82525050565b6000610180830160008301516126c560008601826125c5565b5060208301516126d860208601826125c5565b5060408301516126eb60408601826125c5565b5060608301516126fe60608601826125c5565b50608083015161271160808601826125c5565b5060a083015184820360a08601526127298282612634565b91505060c083015184820360c08601526127438282612634565b91505060e083015161275860e086018261266d565b5061010083015161276d61010086018261266d565b5061012083015161278261012086018261268e565b5061014083015161279761014086018261269d565b506101608301516127ac61016086018261269d565b508091505092915050565b60006127c383836126ac565b905092915050565b6000602082019050919050565b60006127e382612599565b6127ed81856125a4565b9350836020820285016127ff856125b5565b8060005b8581101561283b578484038952815161281c85826127b7565b9450612827836127cb565b925060208a01995050600181019050612803565b50829750879550505050505092915050565b6000602082019050818103600083015261286781846127d8565b905092915050565b600080fd5b600080fd5b600080fd5b60008083601f8401126128945761289361286f565b5b8235905067ffffffffffffffff8111156128b1576128b0612874565b5b6020830191508360018202830111156128cd576128cc612879565b5b9250929050565b600080600080600080608087890312156128f1576128f061231c565b5b600087013567ffffffffffffffff81111561290f5761290e612321565b5b61291b89828a0161287e565b9650965050602087013567ffffffffffffffff81111561293e5761293d612321565b5b61294a89828a0161287e565b9450945050604061295d89828a0161251a565b925050606061296e89828a01612402565b9150509295509295509295565b600081519050919050565b600082825260208201905092915050565b6000819050602082019050919050565b60006129b383836125c5565b60208301905092915050565b6000602082019050919050565b60006129d78261297b565b6129e18185612986565b93506129ec83612997565b8060005b83811015612a1d578151612a0488826129a7565b9750612a0f836129bf565b9250506001810190506129f0565b5085935050505092915050565b60006020820190508181036000830152612a4481846129cc565b905092915050565b612a55816123ab565b8114612a6057600080fd5b50565b600081359050612a7281612a4c565b92915050565b60008060408385031215612a8f57612a8e61231c565b5b6000612a9d85828601612402565b9250506020612aae85828601612a63565b9150509250929050565b600061018083016000830151612ad160008601826125c5565b506020830151612ae460208601826125c5565b506040830151612af760408601826125c5565b506060830151612b0a60608601826125c5565b506080830151612b1d60808601826125c5565b5060a083015184820360a0860152612b358282612634565b91505060c083015184820360c0860152612b4f8282612634565b91505060e0830151612b6460e086018261266d565b50610100830151612b7961010086018261266d565b50610120830151612b8e61012086018261268e565b50610140830151612ba361014086018261269d565b50610160830151612bb861016086018261269d565b508091505092915050565b60006020820190508181036000830152612bdd8184612ab8565b905092915050565b600082825260208201905092915050565b6000612c01826125d4565b612c0b8185612be5565b9350612c1b8185602086016125f0565b612c2481612623565b840191505092915050565b60006020820190508181036000830152612c498184612bf6565b905092915050565b7f5061796d656e742073656e74206265666f726500000000000000000000000000600082015250565b6000612c87601383612be5565b9150612c9282612c51565b602082019050919050565b60006020820190508181036000830152612cb681612c7a565b9050919050565b7f496e73756666696369656e7420766f7465730000000000000000000000000000600082015250565b6000612cf3601283612be5565b9150612cfe82612cbd565b602082019050919050565b60006020820190508181036000830152612d2281612ce6565b9050919050565b7f4e487b7100000000000000000000000000000000000000000000000000000000600052601160045260246000fd5b6000612d63826123e1565b9150612d6e836123e1565b925082821015612d8157612d80612d29565b5b828203905092915050565b7f5041594d454e54205452414e5346455245440000000000000000000000000000600082015250565b6000612dc2601283612be5565b9150612dcd82612d8c565b602082019050919050565b6000606082019050612ded60008301856124a7565b8181036020830152612dfe81612db5565b9050612e0d604083018461256f565b9392505050565b7f416363657373436f6e74726f6c3a2063616e206f6e6c792072656e6f756e636560008201527f20726f6c657320666f722073656c660000000000000000000000000000000000602082015250565b6000612e70602f83612be5565b9150612e7b82612e14565b604082019050919050565b60006020820190508181036000830152612e9f81612e63565b9050919050565b7f4e487b7100000000000000000000000000000000000000000000000000000000600052604160045260246000fd5b7f4e487b7100000000000000000000000000000000000000000000000000000000600052602260045260246000fd5b60006002820490506001821680612f1c57607f821691505b60208210811415612f3057612f2f612ed5565b5b50919050565b7f4e487b7100000000000000000000000000000000000000000000000000000000600052603260045260246000fd5b6000612f70826123e1565b91507fffffffffffffffffffffffffffffffffffffffffffffffffffffffffffffffff821415612fa357612fa2612d29565b5b600182019050919050565b6000612fb9826123e1565b9150612fc4836123e1565b9250827fffffffffffffffffffffffffffffffffffffffffffffffffffffffffffffffff03821115612ff957612ff8612d29565b5b828201905092915050565b7f50524f504f53414c205241495345440000000000000000000000000000000000600082015250565b600061303a600f83612be5565b915061304582613004565b602082019050919050565b600060608201905061306560008301856124a7565b81810360208301526130768161302d565b9050613085604083018461256f565b9392505050565b7f50524f504f53414c20564f544500000000000000000000000000000000000000600082015250565b60006130c2600d83612be5565b91506130cd8261308c565b602082019050919050565b60006060820190506130ed60008301856124a7565b81810360208301526130fe816130b5565b905061310d604083018461256f565b9392505050565b7f434f4e545249425554494f4e2052454345495645440000000000000000000000600082015250565b600061314a601583612be5565b915061315582613114565b602082019050919050565b600060608201905061317560008301856124a7565b81810360208301526131868161313d565b9050613195604083018461256f565b9392505050565b600081905092915050565b50565b60006131b760008361319c565b91506131c2826131a7565b600082019050919050565b60006131d8826131aa565b9150819050919050565b7f5061796d656e74206661696c6564000000000000000000000000000000000000600082015250565b6000613218600e83612be5565b9150613223826131e2565b602082019050919050565b600060208201905081810360008301526132478161320b565b9050919050565b7f50726f706f73616c206475726174696f6e206578706972656400000000000000600082015250565b6000613284601983612be5565b915061328f8261324e565b602082019050919050565b600060208201905081810360008301526132b381613277565b9050919050565b7f446f75626c6520766f74696e67206e6f7420616c6c6f77656400000000000000600082015250565b60006132f0601983612be5565b91506132fb826132ba565b602082019050919050565b6000602082019050818103600083015261331f816132e3565b9050919050565b600081905092915050565b7f416363657373436f6e74726f6c3a206163636f756e7420000000000000000000600082015250565b6000613367601783613326565b915061337282613331565b601782019050919050565b6000613388826125d4565b6133928185613326565b93506133a28185602086016125f0565b80840191505092915050565b7f206973206d697373696e6720726f6c6520000000000000000000000000000000600082015250565b60006133e4601183613326565b91506133ef826133ae565b601182019050919050565b60006134058261335a565b9150613411828561337d565b915061341c826133d7565b9150613428828461337d565b91508190509392505050565b600061343f826123e1565b915061344a836123e1565b9250817fffffffffffffffffffffffffffffffffffffffffffffffffffffffffffffffff048311821515161561348357613482612d29565b5b828202905092915050565b6000613499826123e1565b915060008214156134ad576134ac612d29565b5b600182039050919050565b7f537472696e67733a20686578206c656e67746820696e73756666696369656e74600082015250565b60006134ee602083612be5565b91506134f9826134b8565b602082019050919050565b6000602082019050818103600083015261351d816134e1565b905091905056fe44656e6965643a2055736572206973206e6f74206120636f6e7472696275746f7250726f706f73616c204372656174696f6e20416c6c6f77656420666f72205374616b65686f6c64657273206f6e6c79a264697066735822122086ed82caf09022fbef1499d44819b99de61c97d8a66457f284a6764f682eab3064736f6c634300080b0033",
  "immutableReferences": {
    "706": [
      {
        "length": 32,
        "start": 2201
      },
      {
        "length": 32,
        "start": 3966
      },
      {
        "length": 32,
        "start": 6230
      },
      {
        "length": 32,
        "start": 6363
      }
    ],
    "711": [
      {
        "length": 32,
        "start": 1328
      },
      {
        "length": 32,
        "start": 1904
      },
      {
        "length": 32,
        "start": 3277
      },
      {
        "length": 32,
        "start": 3481
      },
      {
        "length": 32,
        "start": 4206
      },
      {
        "length": 32,
        "start": 4517
      },
      {
        "length": 32,
        "start": 4940
      },
      {
        "length": 32,
        "start": 5894
      },
      {
        "length": 32,
        "start": 6188
      },
      {
        "length": 32,
        "start": 6686
      }
    ],
    "714": [
      {
        "length": 32,
        "start": 3829
      }
    ]
  },
  "source": "// SPDX-License-Identifier: MIT\r\npragma solidity ^0.8.7;\r\n\r\nimport \"@openzeppelin/contracts/access/AccessControl.sol\";\r\nimport \"@openzeppelin/contracts/security/ReentrancyGuard.sol\";\r\n\r\ncontract DominonDAO is ReentrancyGuard, AccessControl {\r\n    bytes32 private immutable CONTRIBUTOR_ROLE = keccak256(\"CONTRIBUTOR\");\r\n    bytes32 private immutable STAKEHOLDER_ROLE = keccak256(\"STAKEHOLDER\");\r\n    uint32 immutable MIN_VOTE_DURATION = 1 weeks;\r\n    uint256 totalProposals;\r\n    uint256 public daoBalance;\r\n\r\n    mapping(uint256 => ProposalStruct) private raisedProposals;\r\n    mapping(address => uint256[]) private stakeholderVotes;\r\n    mapping(address => uint256) private contributors;\r\n    mapping(address => uint256) private stakeholders;\r\n\r\n    struct ProposalStruct {\r\n        uint256 id;\r\n        uint256 amount;\r\n        uint256 duration;\r\n        uint256 upvotes;\r\n        uint256 downvotes;\r\n        string title;\r\n        string description;\r\n        bool passed;\r\n        bool paid;\r\n        address payable beneficiary;\r\n        address proposer;\r\n        address executor;\r\n    }\r\n\r\n    event Action(\r\n        address indexed initiator,\r\n        bytes32 role,\r\n        string message,\r\n        address indexed beneficiary,\r\n        uint256 amount\r\n    );\r\n\r\n    modifier stakeholderOnly(string memory message) {\r\n        require(hasRole(STAKEHOLDER_ROLE, msg.sender), message);\r\n        _;\r\n    }\r\n\r\n    modifier contributorOnly(string memory message) {\r\n        require(hasRole(CONTRIBUTOR_ROLE, msg.sender), message);\r\n        _;\r\n    }\r\n\r\n    function createProposal(\r\n        string calldata title,\r\n        string calldata description,\r\n        address beneficiary,\r\n        uint256 amount\r\n    )external\r\n     stakeholderOnly(\"Proposal Creation Allowed for Stakeholders only\")\r\n    {\r\n        uint256 proposalId = totalProposals++;\r\n        ProposalStruct storage proposal = raisedProposals[proposalId];\r\n\r\n        proposal.id = proposalId;\r\n        proposal.proposer = payable(msg.sender);\r\n        proposal.title = title;\r\n        proposal.description = description;\r\n        proposal.beneficiary = payable(beneficiary);\r\n        proposal.amount = amount;\r\n        proposal.duration = block.timestamp + MIN_VOTE_DURATION;\r\n\r\n        emit Action(\r\n            msg.sender,\r\n            CONTRIBUTOR_ROLE,\r\n            \"PROPOSAL RAISED\",\r\n            beneficiary,\r\n            amount\r\n        );\r\n    }\r\n\r\n    function performVote(uint256 proposalId, bool supported)\r\n        external\r\n        stakeholderOnly(\"Unauthorized: Stakeholders only\")\r\n    {\r\n        ProposalStruct storage proposal = raisedProposals[proposalId];\r\n\r\n        handleVoting(proposal);\r\n\r\n        if (supported) proposal.upvotes++;\r\n        else proposal.downvotes++;\r\n\r\n        stakeholderVotes[msg.sender].push(proposal.id);\r\n\r\n        emit Action(\r\n            msg.sender,\r\n            STAKEHOLDER_ROLE,\r\n            \"PROPOSAL VOTE\",\r\n            proposal.beneficiary,\r\n            proposal.amount\r\n        );\r\n    }\r\n\r\n    function handleVoting(ProposalStruct storage proposal) private {\r\n        if (\r\n            proposal.passed ||\r\n            proposal.duration <= block.timestamp\r\n        ) {\r\n            proposal.passed = true;\r\n            revert(\"Proposal duration expired\");\r\n        }\r\n\r\n        uint256[] memory tempVotes = stakeholderVotes[msg.sender];\r\n        for (uint256 votes = 0; votes < tempVotes.length; votes++) {\r\n            if (proposal.id == tempVotes[votes])\r\n                revert(\"Double voting not allowed\");\r\n        }\r\n    }\r\n\r\n    function payBeneficiary(uint256 proposalId)\r\n        external\r\n        stakeholderOnly(\"Unauthorized: Stakeholders only\")\r\n        returns (bool)\r\n    {\r\n        ProposalStruct storage proposal = raisedProposals[proposalId];\r\n\r\n        if (proposal.paid) revert(\"Payment sent before\");\r\n\r\n        if (proposal.upvotes <= proposal.downvotes)\r\n            revert(\"Insufficient votes\");\r\n\r\n        payTo(proposal.beneficiary, proposal.amount);\r\n\r\n        proposal.paid = true;\r\n        proposal.executor = msg.sender;\r\n        daoBalance -= proposal.amount;\r\n\r\n        emit Action(\r\n            msg.sender,\r\n            STAKEHOLDER_ROLE,\r\n            \"PAYMENT TRANSFERED\",\r\n            proposal.beneficiary,\r\n            proposal.amount\r\n        );\r\n\r\n        return true;\r\n    }\r\n\r\n    function contribute() payable external {\r\n\r\n        if (!hasRole(STAKEHOLDER_ROLE, msg.sender)) {\r\n            uint256 totalContribution =\r\n                contributors[msg.sender] + msg.value;\r\n\r\n            if (totalContribution >= 5 ether) {\r\n                stakeholders[msg.sender] = totalContribution;\r\n                contributors[msg.sender] += msg.value;\r\n                _setupRole(STAKEHOLDER_ROLE, msg.sender);\r\n                _setupRole(CONTRIBUTOR_ROLE, msg.sender);\r\n            } else {\r\n                contributors[msg.sender] += msg.value;\r\n                _setupRole(CONTRIBUTOR_ROLE, msg.sender);\r\n            }\r\n        } else {\r\n            contributors[msg.sender] += msg.value;\r\n            stakeholders[msg.sender] += msg.value;\r\n        }\r\n        daoBalance += msg.value;\r\n\r\n        emit Action(\r\n            msg.sender,\r\n            STAKEHOLDER_ROLE,\r\n            \"CONTRIBUTION RECEIVED\",\r\n            address(this),\r\n            msg.value\r\n        );\r\n    }\r\n\r\n    function getProposals()\r\n        external\r\n        view\r\n        returns (ProposalStruct[] memory props)\r\n    {\r\n        props = new ProposalStruct[](totalProposals);\r\n\r\n        for (uint256 i = 0; i < totalProposals; i++) {\r\n            props[i] = raisedProposals[i];\r\n        }\r\n    }\r\n\r\n    function getProposal(uint256 proposalId)\r\n        public\r\n        view\r\n        returns (ProposalStruct memory)\r\n    {\r\n        return raisedProposals[proposalId];\r\n    }\r\n\r\n    function getStakeholderVotes()\r\n        public\r\n        view\r\n        stakeholderOnly(\"Unauthorized: not a stakeholder\")\r\n        returns (uint256[] memory)\r\n    {\r\n        return stakeholderVotes[msg.sender];\r\n    }\r\n\r\n    function getStakeholderBalance()\r\n        public\r\n        view\r\n        stakeholderOnly(\"Unauthorized: not a stakeholder\")\r\n        returns (uint256)\r\n    {\r\n        return stakeholders[msg.sender];\r\n    }\r\n\r\n    function isStakeholder() public view returns (bool) {\r\n        return stakeholders[msg.sender] > 0;\r\n    }\r\n\r\n    function getContributorBalance()\r\n        public\r\n        view\r\n        contributorOnly(\"Denied: User is not a contributor\")\r\n        returns (uint256)\r\n    {\r\n        return contributors[msg.sender];\r\n    }\r\n\r\n    function isContributor() public view returns (bool) {\r\n        return contributors[msg.sender] > 0;\r\n    }\r\n\r\n    function payTo(\r\n        address to, \r\n        uint256 amount\r\n    ) internal returns (bool) {\r\n        (bool success,) = payable(to).call{value: amount}(\"\");\r\n        require(success, \"Payment failed\");\r\n        return true;\r\n    }\r\n}",
  "sourcePath": "C:\\sites\\dApps\\dominionDAO\\src\\contracts\\DominionDAO.sol",
  "compiler": {
    "name": "solc",
    "version": "0.8.11+commit.d7f03943.Emscripten.clang"
  },
  "schemaVersion": "3.4.4",
  "updatedAt": "2022-05-19T13:07:56.957Z",
  "devdoc": {
    "kind": "dev",
    "methods": {
      "getRoleAdmin(bytes32)": {
        "details": "Returns the admin role that controls `role`. See {grantRole} and {revokeRole}. To change a role's admin, use {_setRoleAdmin}."
      },
      "grantRole(bytes32,address)": {
        "details": "Grants `role` to `account`. If `account` had not been already granted `role`, emits a {RoleGranted} event. Requirements: - the caller must have ``role``'s admin role."
      },
      "hasRole(bytes32,address)": {
        "details": "Returns `true` if `account` has been granted `role`."
      },
      "renounceRole(bytes32,address)": {
        "details": "Revokes `role` from the calling account. Roles are often managed via {grantRole} and {revokeRole}: this function's purpose is to provide a mechanism for accounts to lose their privileges if they are compromised (such as when a trusted device is misplaced). If the calling account had been revoked `role`, emits a {RoleRevoked} event. Requirements: - the caller must be `account`."
      },
      "revokeRole(bytes32,address)": {
        "details": "Revokes `role` from `account`. If `account` had been granted `role`, emits a {RoleRevoked} event. Requirements: - the caller must have ``role``'s admin role."
      },
      "supportsInterface(bytes4)": {
        "details": "See {IERC165-supportsInterface}."
      }
    },
    "version": 1
  },
  "userdoc": {
    "kind": "user",
    "methods": {},
    "version": 1
  }
}