{
  "contractName": "DominionDAO",
  "abi": [
    {
      "anonymous": false,
      "inputs": [
        {
          "indexed": true,
          "internalType": "address",
          "name": "initiator",
          "type": "address"
        },
        {
          "indexed": false,
          "internalType": "bytes32",
          "name": "role",
          "type": "bytes32"
        },
        {
          "indexed": false,
          "internalType": "string",
          "name": "message",
          "type": "string"
        },
        {
          "indexed": true,
          "internalType": "address",
          "name": "beneficiary",
          "type": "address"
        },
        {
          "indexed": false,
          "internalType": "uint256",
          "name": "amount",
          "type": "uint256"
        }
      ],
      "name": "Action",
      "type": "event"
    },
    {
      "anonymous": false,
      "inputs": [
        {
          "indexed": true,
          "internalType": "bytes32",
          "name": "role",
          "type": "bytes32"
        },
        {
          "indexed": true,
          "internalType": "bytes32",
          "name": "previousAdminRole",
          "type": "bytes32"
        },
        {
          "indexed": true,
          "internalType": "bytes32",
          "name": "newAdminRole",
          "type": "bytes32"
        }
      ],
      "name": "RoleAdminChanged",
      "type": "event"
    },
    {
      "anonymous": false,
      "inputs": [
        {
          "indexed": true,
          "internalType": "bytes32",
          "name": "role",
          "type": "bytes32"
        },
        {
          "indexed": true,
          "internalType": "address",
          "name": "account",
          "type": "address"
        },
        {
          "indexed": true,
          "internalType": "address",
          "name": "sender",
          "type": "address"
        }
      ],
      "name": "RoleGranted",
      "type": "event"
    },
    {
      "anonymous": false,
      "inputs": [
        {
          "indexed": true,
          "internalType": "bytes32",
          "name": "role",
          "type": "bytes32"
        },
        {
          "indexed": true,
          "internalType": "address",
          "name": "account",
          "type": "address"
        },
        {
          "indexed": true,
          "internalType": "address",
          "name": "sender",
          "type": "address"
        }
      ],
      "name": "RoleRevoked",
      "type": "event"
    },
    {
      "inputs": [],
      "name": "DEFAULT_ADMIN_ROLE",
      "outputs": [
        {
          "internalType": "bytes32",
          "name": "",
          "type": "bytes32"
        }
      ],
      "stateMutability": "view",
      "type": "function",
      "constant": true
    },
    {
      "inputs": [],
      "name": "daoBalance",
      "outputs": [
        {
          "internalType": "uint256",
          "name": "",
          "type": "uint256"
        }
      ],
      "stateMutability": "view",
      "type": "function",
      "constant": true
    },
    {
      "inputs": [
        {
          "internalType": "bytes32",
          "name": "role",
          "type": "bytes32"
        }
      ],
      "name": "getRoleAdmin",
      "outputs": [
        {
          "internalType": "bytes32",
          "name": "",
          "type": "bytes32"
        }
      ],
      "stateMutability": "view",
      "type": "function",
      "constant": true
    },
    {
      "inputs": [
        {
          "internalType": "bytes32",
          "name": "role",
          "type": "bytes32"
        },
        {
          "internalType": "address",
          "name": "account",
          "type": "address"
        }
      ],
      "name": "grantRole",
      "outputs": [],
      "stateMutability": "nonpayable",
      "type": "function"
    },
    {
      "inputs": [
        {
          "internalType": "bytes32",
          "name": "role",
          "type": "bytes32"
        },
        {
          "internalType": "address",
          "name": "account",
          "type": "address"
        }
      ],
      "name": "hasRole",
      "outputs": [
        {
          "internalType": "bool",
          "name": "",
          "type": "bool"
        }
      ],
      "stateMutability": "view",
      "type": "function",
      "constant": true
    },
    {
      "inputs": [
        {
          "internalType": "bytes32",
          "name": "role",
          "type": "bytes32"
        },
        {
          "internalType": "address",
          "name": "account",
          "type": "address"
        }
      ],
      "name": "renounceRole",
      "outputs": [],
      "stateMutability": "nonpayable",
      "type": "function"
    },
    {
      "inputs": [
        {
          "internalType": "bytes32",
          "name": "role",
          "type": "bytes32"
        },
        {
          "internalType": "address",
          "name": "account",
          "type": "address"
        }
      ],
      "name": "revokeRole",
      "outputs": [],
      "stateMutability": "nonpayable",
      "type": "function"
    },
    {
      "inputs": [
        {
          "internalType": "bytes4",
          "name": "interfaceId",
          "type": "bytes4"
        }
      ],
      "name": "supportsInterface",
      "outputs": [
        {
          "internalType": "bool",
          "name": "",
          "type": "bool"
        }
      ],
      "stateMutability": "view",
      "type": "function",
      "constant": true
    },
    {
      "inputs": [
        {
          "internalType": "string",
          "name": "title",
          "type": "string"
        },
        {
          "internalType": "string",
          "name": "description",
          "type": "string"
        },
        {
          "internalType": "address",
          "name": "beneficiary",
          "type": "address"
        },
        {
          "internalType": "uint256",
          "name": "amount",
          "type": "uint256"
        }
      ],
      "name": "createProposal",
      "outputs": [],
      "stateMutability": "nonpayable",
      "type": "function"
    },
    {
      "inputs": [
        {
          "internalType": "uint256",
          "name": "proposalId",
          "type": "uint256"
        },
        {
          "internalType": "bool",
          "name": "supported",
          "type": "bool"
        }
      ],
      "name": "performVote",
      "outputs": [],
      "stateMutability": "nonpayable",
      "type": "function"
    },
    {
      "inputs": [
        {
          "internalType": "uint256",
          "name": "proposalId",
          "type": "uint256"
        }
      ],
      "name": "payBeneficiary",
      "outputs": [
        {
          "internalType": "bool",
          "name": "",
          "type": "bool"
        }
      ],
      "stateMutability": "nonpayable",
      "type": "function"
    },
    {
      "inputs": [],
      "name": "contribute",
      "outputs": [],
      "stateMutability": "payable",
      "type": "function",
      "payable": true
    },
    {
      "inputs": [],
      "name": "getProposals",
      "outputs": [
        {
          "components": [
            {
              "internalType": "uint256",
              "name": "id",
              "type": "uint256"
            },
            {
              "internalType": "uint256",
              "name": "amount",
              "type": "uint256"
            },
            {
              "internalType": "uint256",
              "name": "duration",
              "type": "uint256"
            },
            {
              "internalType": "uint256",
              "name": "upvotes",
              "type": "uint256"
            },
            {
              "internalType": "uint256",
              "name": "downvotes",
              "type": "uint256"
            },
            {
              "internalType": "string",
              "name": "title",
              "type": "string"
            },
            {
              "internalType": "string",
              "name": "description",
              "type": "string"
            },
            {
              "internalType": "bool",
              "name": "passed",
              "type": "bool"
            },
            {
              "internalType": "bool",
              "name": "paid",
              "type": "bool"
            },
            {
              "internalType": "address payable",
              "name": "beneficiary",
              "type": "address"
            },
            {
              "internalType": "address",
              "name": "proposer",
              "type": "address"
            },
            {
              "internalType": "address",
              "name": "executor",
              "type": "address"
            }
          ],
          "internalType": "struct DominionDAO.ProposalStruct[]",
          "name": "props",
          "type": "tuple[]"
        }
      ],
      "stateMutability": "view",
      "type": "function",
      "constant": true
    },
    {
      "inputs": [
        {
          "internalType": "uint256",
          "name": "proposalId",
          "type": "uint256"
        }
      ],
      "name": "getProposal",
      "outputs": [
        {
          "components": [
            {
              "internalType": "uint256",
              "name": "id",
              "type": "uint256"
            },
            {
              "internalType": "uint256",
              "name": "amount",
              "type": "uint256"
            },
            {
              "internalType": "uint256",
              "name": "duration",
              "type": "uint256"
            },
            {
              "internalType": "uint256",
              "name": "upvotes",
              "type": "uint256"
            },
            {
              "internalType": "uint256",
              "name": "downvotes",
              "type": "uint256"
            },
            {
              "internalType": "string",
              "name": "title",
              "type": "string"
            },
            {
              "internalType": "string",
              "name": "description",
              "type": "string"
            },
            {
              "internalType": "bool",
              "name": "passed",
              "type": "bool"
            },
            {
              "internalType": "bool",
              "name": "paid",
              "type": "bool"
            },
            {
              "internalType": "address payable",
              "name": "beneficiary",
              "type": "address"
            },
            {
              "internalType": "address",
              "name": "proposer",
              "type": "address"
            },
            {
              "internalType": "address",
              "name": "executor",
              "type": "address"
            }
          ],
          "internalType": "struct DominionDAO.ProposalStruct",
          "name": "",
          "type": "tuple"
        }
      ],
      "stateMutability": "view",
      "type": "function",
      "constant": true
    },
    {
      "inputs": [],
      "name": "getStakeholderVotes",
      "outputs": [
        {
          "internalType": "uint256[]",
          "name": "",
          "type": "uint256[]"
        }
      ],
      "stateMutability": "view",
      "type": "function",
      "constant": true
    },
    {
      "inputs": [],
      "name": "getStakeholderBalance",
      "outputs": [
        {
          "internalType": "uint256",
          "name": "",
          "type": "uint256"
        }
      ],
      "stateMutability": "view",
      "type": "function",
      "constant": true
    },
    {
      "inputs": [],
      "name": "isStakeholder",
      "outputs": [
        {
          "internalType": "bool",
          "name": "",
          "type": "bool"
        }
      ],
      "stateMutability": "view",
      "type": "function",
      "constant": true
    },
    {
      "inputs": [],
      "name": "getContributorBalance",
      "outputs": [
        {
          "internalType": "uint256",
          "name": "",
          "type": "uint256"
        }
      ],
      "stateMutability": "view",
      "type": "function",
      "constant": true
    },
    {
      "inputs": [],
      "name": "isContributor",
      "outputs": [
        {
          "internalType": "bool",
          "name": "",
          "type": "bool"
        }
      ],
      "stateMutability": "view",
      "type": "function",
      "constant": true
    }
  ],
  "bytecode": "0x60e06040527fa0bb1af1c90aa52ed052b92714ff0087008cc720049bf1af77cca2600b31e80c6080908152507ff4bb84e1768dd286358a736d195a0b228621173f655a73b89bf8b191ed0ba07d60a09081525062093a8063ffffffff1660c09063ffffffff1681525034801561007457600080fd5b50600160008190555060805160a05160c05161365f6101006000396000610f3e015260008181610530015281816107b901528181610d1601528181610de2015281816110b7015281816111ee015281816113950152818161174f015281816118750152611a670152600081816108e201528181610fc70152818161189f0152611924015261365f6000f3fe6080604052600436106101145760003560e01c806391d14854116100a0578063c02146ac11610064578063c02146ac146103b3578063c7f758a8146103de578063d547741f1461041b578063d6cc801614610444578063d7bb99ba1461046f57610114565b806391d14854146102cc578063a217fddf14610309578063a22f1db714610334578063b31f111c1461035f578063bd9728161461038857610114565b806336568abe116100e757806336568abe146101f95780633cdb48c21461022257806362564c481461024d5780636a80d84d146102785780637cdc2eb7146102a357610114565b806301ffc9a714610119578063119c37c814610156578063248a9ca3146101935780632f2ff15d146101d0575b600080fd5b34801561012557600080fd5b50610140600480360381019061013b91906123c7565b610479565b60405161014d919061240f565b60405180910390f35b34801561016257600080fd5b5061017d60048036038101906101789190612460565b6104f3565b60405161018a919061240f565b60405180910390f35b34801561019f57600080fd5b506101ba60048036038101906101b591906124c3565b6107fe565b6040516101c791906124ff565b60405180910390f35b3480156101dc57600080fd5b506101f760048036038101906101f29190612578565b61081e565b005b34801561020557600080fd5b50610220600480360381019061021b9190612578565b61083f565b005b34801561022e57600080fd5b506102376108c2565b60405161024491906125c7565b60405180910390f35b34801561025957600080fd5b50610262610990565b60405161026f9190612896565b60405180910390f35b34801561028457600080fd5b5061028d610cd9565b60405161029a91906125c7565b60405180910390f35b3480156102af57600080fd5b506102ca60048036038101906102c5919061291d565b610dc4565b005b3480156102d857600080fd5b506102f360048036038101906102ee9190612578565b611008565b604051610300919061240f565b60405180910390f35b34801561031557600080fd5b5061031e611073565b60405161032b91906124ff565b60405180910390f35b34801561034057600080fd5b5061034961107a565b6040516103569190612a73565b60405180910390f35b34801561036b57600080fd5b5061038660048036038101906103819190612ac1565b6111b3565b005b34801561039457600080fd5b5061039d6113d5565b6040516103aa91906125c7565b60405180910390f35b3480156103bf57600080fd5b506103c86113db565b6040516103d5919061240f565b60405180910390f35b3480156103ea57600080fd5b5061040560048036038101906104009190612460565b611424565b6040516104129190612c0c565b60405180910390f35b34801561042757600080fd5b50610442600480360381019061043d9190612578565b6116e0565b005b34801561045057600080fd5b50610459611701565b604051610466919061240f565b60405180910390f35b61047761174a565b005b60007f7965db0b000000000000000000000000000000000000000000000000000000007bffffffffffffffffffffffffffffffffffffffffffffffffffffffff1916827bffffffffffffffffffffffffffffffffffffffffffffffffffffffff191614806104ec57506104eb82611a9f565b5b9050919050565b60006040518060400160405280601f81526020017f556e617574686f72697a65643a205374616b65686f6c64657273206f6e6c79008152506105557f000000000000000000000000000000000000000000000000000000000000000033611008565b8190610597576040517f08c379a000000000000000000000000000000000000000000000000000000000815260040161058e9190612c78565b60405180910390fd5b506000600460008581526020019081526020016000209050806001015460035410156105f8576040517f08c379a00000000000000000000000000000000000000000000000000000000081526004016105ef90612ce6565b60405180910390fd5b8060070160019054906101000a900460ff161561064a576040517f08c379a000000000000000000000000000000000000000000000000000000000815260040161064190612d52565b60405180910390fd5b8060040154816003015411610694576040517f08c379a000000000000000000000000000000000000000000000000000000000815260040161068b90612dbe565b60405180910390fd5b6106c68160070160029054906101000a900473ffffffffffffffffffffffffffffffffffffffff168260010154611b09565b5060018160070160016101000a81548160ff021916908315150217905550338160090160006101000a81548173ffffffffffffffffffffffffffffffffffffffff021916908373ffffffffffffffffffffffffffffffffffffffff16021790555080600101546003600082825461073d9190612e0d565b925050819055508060070160029054906101000a900473ffffffffffffffffffffffffffffffffffffffff1673ffffffffffffffffffffffffffffffffffffffff163373ffffffffffffffffffffffffffffffffffffffff167fa596782d699d74613fcbf59d33e720baabd313d6be9c95e2268f305430305eb77f000000000000000000000000000000000000000000000000000000000000000084600101546040516107eb929190612e8d565b60405180910390a3600192505050919050565b600060016000838152602001908152602001600020600101549050919050565b610827826107fe565b61083081611bc1565b61083a8383611bd5565b505050565b610847611cb5565b73ffffffffffffffffffffffffffffffffffffffff168173ffffffffffffffffffffffffffffffffffffffff16146108b4576040517f08c379a00000000000000000000000000000000000000000000000000000000081526004016108ab90612f3b565b60405180910390fd5b6108be8282611cbd565b5050565b60006040518060600160405280602181526020016135da602191396109077f000000000000000000000000000000000000000000000000000000000000000033611008565b8190610949576040517f08c379a00000000000000000000000000000000000000000000000000000000081526004016109409190612c78565b60405180910390fd5b50600660003373ffffffffffffffffffffffffffffffffffffffff1673ffffffffffffffffffffffffffffffffffffffff1681526020019081526020016000205491505090565b606060025467ffffffffffffffff8111156109ae576109ad612f5b565b5b6040519080825280602002602001820160405280156109e757816020015b6109d461221b565b8152602001906001900390816109cc5790505b50905060005b600254811015610cd55760046000828152602001908152602001600020604051806101800160405290816000820154815260200160018201548152602001600282015481526020016003820154815260200160048201548152602001600582018054610a5890612fb9565b80601f0160208091040260200160405190810160405280929190818152602001828054610a8490612fb9565b8015610ad15780601f10610aa657610100808354040283529160200191610ad1565b820191906000526020600020905b815481529060010190602001808311610ab457829003601f168201915b50505050508152602001600682018054610aea90612fb9565b80601f0160208091040260200160405190810160405280929190818152602001828054610b1690612fb9565b8015610b635780601f10610b3857610100808354040283529160200191610b63565b820191906000526020600020905b815481529060010190602001808311610b4657829003601f168201915b505050505081526020016007820160009054906101000a900460ff161515151581526020016007820160019054906101000a900460ff161515151581526020016007820160029054906101000a900473ffffffffffffffffffffffffffffffffffffffff1673ffffffffffffffffffffffffffffffffffffffff1673ffffffffffffffffffffffffffffffffffffffff1681526020016008820160009054906101000a900473ffffffffffffffffffffffffffffffffffffffff1673ffffffffffffffffffffffffffffffffffffffff1673ffffffffffffffffffffffffffffffffffffffff1681526020016009820160009054906101000a900473ffffffffffffffffffffffffffffffffffffffff1673ffffffffffffffffffffffffffffffffffffffff1673ffffffffffffffffffffffffffffffffffffffff1681525050828281518110610cb757610cb6612feb565b5b60200260200101819052508080610ccd9061301a565b9150506109ed565b5090565b60006040518060400160405280601f81526020017f556e617574686f72697a65643a206e6f742061207374616b65686f6c64657200815250610d3b7f000000000000000000000000000000000000000000000000000000000000000033611008565b8190610d7d576040517f08c379a0000000000000000000000000000000000000000000000000000000008152600401610d749190612c78565b60405180910390fd5b50600760003373ffffffffffffffffffffffffffffffffffffffff1673ffffffffffffffffffffffffffffffffffffffff1681526020019081526020016000205491505090565b6040518060600160405280602f81526020016135fb602f9139610e077f000000000000000000000000000000000000000000000000000000000000000033611008565b8190610e49576040517f08c379a0000000000000000000000000000000000000000000000000000000008152600401610e409190612c78565b60405180910390fd5b50600060026000815480929190610e5f9061301a565b9190505590506000600460008381526020019081526020016000209050818160000181905550338160080160006101000a81548173ffffffffffffffffffffffffffffffffffffffff021916908373ffffffffffffffffffffffffffffffffffffffff1602179055508888826005019190610edb9291906122c2565b508686826006019190610eef9291906122c2565b50848160070160026101000a81548173ffffffffffffffffffffffffffffffffffffffff021916908373ffffffffffffffffffffffffffffffffffffffff1602179055508381600101819055507f000000000000000000000000000000000000000000000000000000000000000063ffffffff1642610f6e9190613063565b81600201819055508473ffffffffffffffffffffffffffffffffffffffff163373ffffffffffffffffffffffffffffffffffffffff167fa596782d699d74613fcbf59d33e720baabd313d6be9c95e2268f305430305eb77f000000000000000000000000000000000000000000000000000000000000000087604051610ff5929190613105565b60405180910390a3505050505050505050565b60006001600084815260200190815260200160002060000160008373ffffffffffffffffffffffffffffffffffffffff1673ffffffffffffffffffffffffffffffffffffffff16815260200190815260200160002060009054906101000a900460ff16905092915050565b6000801b81565b60606040518060400160405280601f81526020017f556e617574686f72697a65643a206e6f742061207374616b65686f6c646572008152506110dc7f000000000000000000000000000000000000000000000000000000000000000033611008565b819061111e576040517f08c379a00000000000000000000000000000000000000000000000000000000081526004016111159190612c78565b60405180910390fd5b50600560003373ffffffffffffffffffffffffffffffffffffffff1673ffffffffffffffffffffffffffffffffffffffff1681526020019081526020016000208054806020026020016040519081016040528092919081815260200182805480156111a857602002820191906000526020600020905b815481526020019060010190808311611194575b505050505091505090565b6040518060400160405280601f81526020017f556e617574686f72697a65643a205374616b65686f6c64657273206f6e6c79008152506112137f000000000000000000000000000000000000000000000000000000000000000033611008565b8190611255576040517f08c379a000000000000000000000000000000000000000000000000000000000815260040161124c9190612c78565b60405180910390fd5b50600060046000858152602001908152602001600020905061127681611d9f565b821561129b578060030160008154809291906112919061301a565b91905055506112b6565b8060040160008154809291906112b09061301a565b91905055505b600560003373ffffffffffffffffffffffffffffffffffffffff1673ffffffffffffffffffffffffffffffffffffffff168152602001908152602001600020816000015490806001815401808255809150506001900390600052602060002001600090919091909150558060070160029054906101000a900473ffffffffffffffffffffffffffffffffffffffff1673ffffffffffffffffffffffffffffffffffffffff163373ffffffffffffffffffffffffffffffffffffffff167fa596782d699d74613fcbf59d33e720baabd313d6be9c95e2268f305430305eb77f000000000000000000000000000000000000000000000000000000000000000084600101546040516113c792919061318d565b60405180910390a350505050565b60035481565b600080600760003373ffffffffffffffffffffffffffffffffffffffff1673ffffffffffffffffffffffffffffffffffffffff1681526020019081526020016000205411905090565b61142c61221b565b6004600083815260200190815260200160002060405180610180016040529081600082015481526020016001820154815260200160028201548152602001600382015481526020016004820154815260200160058201805461148d90612fb9565b80601f01602080910402602001604051908101604052809291908181526020018280546114b990612fb9565b80156115065780601f106114db57610100808354040283529160200191611506565b820191906000526020600020905b8154815290600101906020018083116114e957829003601f168201915b5050505050815260200160068201805461151f90612fb9565b80601f016020809104026020016040519081016040528092919081815260200182805461154b90612fb9565b80156115985780601f1061156d57610100808354040283529160200191611598565b820191906000526020600020905b81548152906001019060200180831161157b57829003601f168201915b505050505081526020016007820160009054906101000a900460ff161515151581526020016007820160019054906101000a900460ff161515151581526020016007820160029054906101000a900473ffffffffffffffffffffffffffffffffffffffff1673ffffffffffffffffffffffffffffffffffffffff1673ffffffffffffffffffffffffffffffffffffffff1681526020016008820160009054906101000a900473ffffffffffffffffffffffffffffffffffffffff1673ffffffffffffffffffffffffffffffffffffffff1673ffffffffffffffffffffffffffffffffffffffff1681526020016009820160009054906101000a900473ffffffffffffffffffffffffffffffffffffffff1673ffffffffffffffffffffffffffffffffffffffff1673ffffffffffffffffffffffffffffffffffffffff16815250509050919050565b6116e9826107fe565b6116f281611bc1565b6116fc8383611cbd565b505050565b600080600660003373ffffffffffffffffffffffffffffffffffffffff1673ffffffffffffffffffffffffffffffffffffffff1681526020019081526020016000205411905090565b6117747f000000000000000000000000000000000000000000000000000000000000000033611008565b61195057600034600660003373ffffffffffffffffffffffffffffffffffffffff1673ffffffffffffffffffffffffffffffffffffffff168152602001908152602001600020546117c59190613063565b9050674563918244f4000081106118c95780600760003373ffffffffffffffffffffffffffffffffffffffff1673ffffffffffffffffffffffffffffffffffffffff1681526020019081526020016000208190555034600660003373ffffffffffffffffffffffffffffffffffffffff1673ffffffffffffffffffffffffffffffffffffffff16815260200190815260200160002060008282546118699190613063565b9250508190555061189a7f000000000000000000000000000000000000000000000000000000000000000033611f34565b6118c47f000000000000000000000000000000000000000000000000000000000000000033611f34565b61194a565b34600660003373ffffffffffffffffffffffffffffffffffffffff1673ffffffffffffffffffffffffffffffffffffffff16815260200190815260200160002060008282546119189190613063565b925050819055506119497f000000000000000000000000000000000000000000000000000000000000000033611f34565b5b506119fd565b34600660003373ffffffffffffffffffffffffffffffffffffffff1673ffffffffffffffffffffffffffffffffffffffff168152602001908152602001600020600082825461199f9190613063565b9250508190555034600760003373ffffffffffffffffffffffffffffffffffffffff1673ffffffffffffffffffffffffffffffffffffffff16815260200190815260200160002060008282546119f59190613063565b925050819055505b3460036000828254611a0f9190613063565b925050819055503073ffffffffffffffffffffffffffffffffffffffff163373ffffffffffffffffffffffffffffffffffffffff167fa596782d699d74613fcbf59d33e720baabd313d6be9c95e2268f305430305eb77f000000000000000000000000000000000000000000000000000000000000000034604051611a95929190613215565b60405180910390a3565b60007f01ffc9a7000000000000000000000000000000000000000000000000000000007bffffffffffffffffffffffffffffffffffffffffffffffffffffffff1916827bffffffffffffffffffffffffffffffffffffffffffffffffffffffff1916149050919050565b6000808373ffffffffffffffffffffffffffffffffffffffff1683604051611b3090613282565b60006040518083038185875af1925050503d8060008114611b6d576040519150601f19603f3d011682016040523d82523d6000602084013e611b72565b606091505b5050905080611bb6576040517f08c379a0000000000000000000000000000000000000000000000000000000008152600401611bad906132e3565b60405180910390fd5b600191505092915050565b611bd281611bcd611cb5565b611f42565b50565b611bdf8282611008565b611cb157600180600084815260200190815260200160002060000160008373ffffffffffffffffffffffffffffffffffffffff1673ffffffffffffffffffffffffffffffffffffffff16815260200190815260200160002060006101000a81548160ff021916908315150217905550611c56611cb5565b73ffffffffffffffffffffffffffffffffffffffff168173ffffffffffffffffffffffffffffffffffffffff16837f2f8788117e7eff1d82e926ec794901d17c78024a50270940304540a733656f0d60405160405180910390a45b5050565b600033905090565b611cc78282611008565b15611d9b5760006001600084815260200190815260200160002060000160008373ffffffffffffffffffffffffffffffffffffffff1673ffffffffffffffffffffffffffffffffffffffff16815260200190815260200160002060006101000a81548160ff021916908315150217905550611d40611cb5565b73ffffffffffffffffffffffffffffffffffffffff168173ffffffffffffffffffffffffffffffffffffffff16837ff6391f5c32d9c69d2a47ea670b442974b53935d1edc7fd64eb21e047a839171b60405160405180910390a45b5050565b8060070160009054906101000a900460ff1680611dc0575042816002015411155b15611e1d5760018160070160006101000a81548160ff0219169083151502179055506040517f08c379a0000000000000000000000000000000000000000000000000000000008152600401611e149061334f565b60405180910390fd5b6000600560003373ffffffffffffffffffffffffffffffffffffffff1673ffffffffffffffffffffffffffffffffffffffff168152602001908152602001600020805480602002602001604051908101604052809291908181526020018280548015611ea857602002820191906000526020600020905b815481526020019060010190808311611e94575b5050505050905060005b8151811015611f2f57818181518110611ece57611ecd612feb565b5b602002602001015183600001541415611f1c576040517f08c379a0000000000000000000000000000000000000000000000000000000008152600401611f13906133bb565b60405180910390fd5b8080611f279061301a565b915050611eb2565b505050565b611f3e8282611bd5565b5050565b611f4c8282611008565b611fdb57611f718173ffffffffffffffffffffffffffffffffffffffff166014611fdf565b611f7f8360001c6020611fdf565b604051602001611f909291906134af565b6040516020818303038152906040526040517f08c379a0000000000000000000000000000000000000000000000000000000008152600401611fd29190612c78565b60405180910390fd5b5050565b606060006002836002611ff291906134e9565b611ffc9190613063565b67ffffffffffffffff81111561201557612014612f5b565b5b6040519080825280601f01601f1916602001820160405280156120475781602001600182028036833780820191505090505b5090507f30000000000000000000000000000000000000000000000000000000000000008160008151811061207f5761207e612feb565b5b60200101907effffffffffffffffffffffffffffffffffffffffffffffffffffffffffffff1916908160001a9053507f7800000000000000000000000000000000000000000000000000000000000000816001815181106120e3576120e2612feb565b5b60200101907effffffffffffffffffffffffffffffffffffffffffffffffffffffffffffff1916908160001a9053506000600184600261212391906134e9565b61212d9190613063565b90505b60018111156121cd577f3031323334353637383961626364656600000000000000000000000000000000600f86166010811061216f5761216e612feb565b5b1a60f81b82828151811061218657612185612feb565b5b60200101907effffffffffffffffffffffffffffffffffffffffffffffffffffffffffffff1916908160001a905350600485901c9450806121c690613543565b9050612130565b5060008414612211576040517f08c379a0000000000000000000000000000000000000000000000000000000008152600401612208906135b9565b60405180910390fd5b8091505092915050565b60405180610180016040528060008152602001600081526020016000815260200160008152602001600081526020016060815260200160608152602001600015158152602001600015158152602001600073ffffffffffffffffffffffffffffffffffffffff168152602001600073ffffffffffffffffffffffffffffffffffffffff168152602001600073ffffffffffffffffffffffffffffffffffffffff1681525090565b8280546122ce90612fb9565b90600052602060002090601f0160209004810192826122f05760008555612337565b82601f1061230957803560ff1916838001178555612337565b82800160010185558215612337579182015b8281111561233657823582559160200191906001019061231b565b5b5090506123449190612348565b5090565b5b80821115612361576000816000905550600101612349565b5090565b600080fd5b600080fd5b60007fffffffff0000000000000000000000000000000000000000000000000000000082169050919050565b6123a48161236f565b81146123af57600080fd5b50565b6000813590506123c18161239b565b92915050565b6000602082840312156123dd576123dc612365565b5b60006123eb848285016123b2565b91505092915050565b60008115159050919050565b612409816123f4565b82525050565b60006020820190506124246000830184612400565b92915050565b6000819050919050565b61243d8161242a565b811461244857600080fd5b50565b60008135905061245a81612434565b92915050565b60006020828403121561247657612475612365565b5b60006124848482850161244b565b91505092915050565b6000819050919050565b6124a08161248d565b81146124ab57600080fd5b50565b6000813590506124bd81612497565b92915050565b6000602082840312156124d9576124d8612365565b5b60006124e7848285016124ae565b91505092915050565b6124f98161248d565b82525050565b600060208201905061251460008301846124f0565b92915050565b600073ffffffffffffffffffffffffffffffffffffffff82169050919050565b60006125458261251a565b9050919050565b6125558161253a565b811461256057600080fd5b50565b6000813590506125728161254c565b92915050565b6000806040838503121561258f5761258e612365565b5b600061259d858286016124ae565b92505060206125ae85828601612563565b9150509250929050565b6125c18161242a565b82525050565b60006020820190506125dc60008301846125b8565b92915050565b600081519050919050565b600082825260208201905092915050565b6000819050602082019050919050565b6126178161242a565b82525050565b600081519050919050565b600082825260208201905092915050565b60005b8381101561265757808201518184015260208101905061263c565b83811115612666576000848401525b50505050565b6000601f19601f8301169050919050565b60006126888261261d565b6126928185612628565b93506126a2818560208601612639565b6126ab8161266c565b840191505092915050565b6126bf816123f4565b82525050565b60006126d08261251a565b9050919050565b6126e0816126c5565b82525050565b6126ef8161253a565b82525050565b60006101808301600083015161270e600086018261260e565b506020830151612721602086018261260e565b506040830151612734604086018261260e565b506060830151612747606086018261260e565b50608083015161275a608086018261260e565b5060a083015184820360a0860152612772828261267d565b91505060c083015184820360c086015261278c828261267d565b91505060e08301516127a160e08601826126b6565b506101008301516127b66101008601826126b6565b506101208301516127cb6101208601826126d7565b506101408301516127e06101408601826126e6565b506101608301516127f56101608601826126e6565b508091505092915050565b600061280c83836126f5565b905092915050565b6000602082019050919050565b600061282c826125e2565b61283681856125ed565b935083602082028501612848856125fe565b8060005b8581101561288457848403895281516128658582612800565b945061287083612814565b925060208a0199505060018101905061284c565b50829750879550505050505092915050565b600060208201905081810360008301526128b08184612821565b905092915050565b600080fd5b600080fd5b600080fd5b60008083601f8401126128dd576128dc6128b8565b5b8235905067ffffffffffffffff8111156128fa576128f96128bd565b5b602083019150836001820283011115612916576129156128c2565b5b9250929050565b6000806000806000806080878903121561293a57612939612365565b5b600087013567ffffffffffffffff8111156129585761295761236a565b5b61296489828a016128c7565b9650965050602087013567ffffffffffffffff8111156129875761298661236a565b5b61299389828a016128c7565b945094505060406129a689828a01612563565b92505060606129b789828a0161244b565b9150509295509295509295565b600081519050919050565b600082825260208201905092915050565b6000819050602082019050919050565b60006129fc838361260e565b60208301905092915050565b6000602082019050919050565b6000612a20826129c4565b612a2a81856129cf565b9350612a35836129e0565b8060005b83811015612a66578151612a4d88826129f0565b9750612a5883612a08565b925050600181019050612a39565b5085935050505092915050565b60006020820190508181036000830152612a8d8184612a15565b905092915050565b612a9e816123f4565b8114612aa957600080fd5b50565b600081359050612abb81612a95565b92915050565b60008060408385031215612ad857612ad7612365565b5b6000612ae68582860161244b565b9250506020612af785828601612aac565b9150509250929050565b600061018083016000830151612b1a600086018261260e565b506020830151612b2d602086018261260e565b506040830151612b40604086018261260e565b506060830151612b53606086018261260e565b506080830151612b66608086018261260e565b5060a083015184820360a0860152612b7e828261267d565b91505060c083015184820360c0860152612b98828261267d565b91505060e0830151612bad60e08601826126b6565b50610100830151612bc26101008601826126b6565b50610120830151612bd76101208601826126d7565b50610140830151612bec6101408601826126e6565b50610160830151612c016101608601826126e6565b508091505092915050565b60006020820190508181036000830152612c268184612b01565b905092915050565b600082825260208201905092915050565b6000612c4a8261261d565b612c548185612c2e565b9350612c64818560208601612639565b612c6d8161266c565b840191505092915050565b60006020820190508181036000830152612c928184612c3f565b905092915050565b7f496e73756666696369656e742066756e64000000000000000000000000000000600082015250565b6000612cd0601183612c2e565b9150612cdb82612c9a565b602082019050919050565b60006020820190508181036000830152612cff81612cc3565b9050919050565b7f5061796d656e742073656e74206265666f726500000000000000000000000000600082015250565b6000612d3c601383612c2e565b9150612d4782612d06565b602082019050919050565b60006020820190508181036000830152612d6b81612d2f565b9050919050565b7f496e73756666696369656e7420766f7465730000000000000000000000000000600082015250565b6000612da8601283612c2e565b9150612db382612d72565b602082019050919050565b60006020820190508181036000830152612dd781612d9b565b9050919050565b7f4e487b7100000000000000000000000000000000000000000000000000000000600052601160045260246000fd5b6000612e188261242a565b9150612e238361242a565b925082821015612e3657612e35612dde565b5b828203905092915050565b7f5041594d454e54205452414e5346455245440000000000000000000000000000600082015250565b6000612e77601283612c2e565b9150612e8282612e41565b602082019050919050565b6000606082019050612ea260008301856124f0565b8181036020830152612eb381612e6a565b9050612ec260408301846125b8565b9392505050565b7f416363657373436f6e74726f6c3a2063616e206f6e6c792072656e6f756e636560008201527f20726f6c657320666f722073656c660000000000000000000000000000000000602082015250565b6000612f25602f83612c2e565b9150612f3082612ec9565b604082019050919050565b60006020820190508181036000830152612f5481612f18565b9050919050565b7f4e487b7100000000000000000000000000000000000000000000000000000000600052604160045260246000fd5b7f4e487b7100000000000000000000000000000000000000000000000000000000600052602260045260246000fd5b60006002820490506001821680612fd157607f821691505b60208210811415612fe557612fe4612f8a565b5b50919050565b7f4e487b7100000000000000000000000000000000000000000000000000000000600052603260045260246000fd5b60006130258261242a565b91507fffffffffffffffffffffffffffffffffffffffffffffffffffffffffffffffff82141561305857613057612dde565b5b600182019050919050565b600061306e8261242a565b91506130798361242a565b9250827fffffffffffffffffffffffffffffffffffffffffffffffffffffffffffffffff038211156130ae576130ad612dde565b5b828201905092915050565b7f50524f504f53414c205241495345440000000000000000000000000000000000600082015250565b60006130ef600f83612c2e565b91506130fa826130b9565b602082019050919050565b600060608201905061311a60008301856124f0565b818103602083015261312b816130e2565b905061313a60408301846125b8565b9392505050565b7f50524f504f53414c20564f544500000000000000000000000000000000000000600082015250565b6000613177600d83612c2e565b915061318282613141565b602082019050919050565b60006060820190506131a260008301856124f0565b81810360208301526131b38161316a565b90506131c260408301846125b8565b9392505050565b7f434f4e545249425554494f4e2052454345495645440000000000000000000000600082015250565b60006131ff601583612c2e565b915061320a826131c9565b602082019050919050565b600060608201905061322a60008301856124f0565b818103602083015261323b816131f2565b905061324a60408301846125b8565b9392505050565b600081905092915050565b50565b600061326c600083613251565b91506132778261325c565b600082019050919050565b600061328d8261325f565b9150819050919050565b7f5061796d656e74206661696c6564000000000000000000000000000000000000600082015250565b60006132cd600e83612c2e565b91506132d882613297565b602082019050919050565b600060208201905081810360008301526132fc816132c0565b9050919050565b7f50726f706f73616c206475726174696f6e206578706972656400000000000000600082015250565b6000613339601983612c2e565b915061334482613303565b602082019050919050565b600060208201905081810360008301526133688161332c565b9050919050565b7f446f75626c6520766f74696e67206e6f7420616c6c6f77656400000000000000600082015250565b60006133a5601983612c2e565b91506133b08261336f565b602082019050919050565b600060208201905081810360008301526133d481613398565b9050919050565b600081905092915050565b7f416363657373436f6e74726f6c3a206163636f756e7420000000000000000000600082015250565b600061341c6017836133db565b9150613427826133e6565b601782019050919050565b600061343d8261261d565b61344781856133db565b9350613457818560208601612639565b80840191505092915050565b7f206973206d697373696e6720726f6c6520000000000000000000000000000000600082015250565b60006134996011836133db565b91506134a482613463565b601182019050919050565b60006134ba8261340f565b91506134c68285613432565b91506134d18261348c565b91506134dd8284613432565b91508190509392505050565b60006134f48261242a565b91506134ff8361242a565b9250817fffffffffffffffffffffffffffffffffffffffffffffffffffffffffffffffff048311821515161561353857613537612dde565b5b828202905092915050565b600061354e8261242a565b9150600082141561356257613561612dde565b5b600182039050919050565b7f537472696e67733a20686578206c656e67746820696e73756666696369656e74600082015250565b60006135a3602083612c2e565b91506135ae8261356d565b602082019050919050565b600060208201905081810360008301526135d281613596565b905091905056fe44656e6965643a2055736572206973206e6f74206120636f6e7472696275746f7250726f706f73616c204372656174696f6e20416c6c6f77656420666f72205374616b65686f6c64657273206f6e6c79a2646970667358221220eca8086222d82ad946a37f201270ee6a79d9170b5cf28dd6c20fda8d02853e6e64736f6c634300080b0033",
  "immutableReferences": {
    "706": [
      {
        "length": 32,
        "start": 2274
      },
      {
        "length": 32,
        "start": 4039
      },
      {
        "length": 32,
        "start": 6303
      },
      {
        "length": 32,
        "start": 6436
      }
    ],
    "711": [
      {
        "length": 32,
        "start": 1328
      },
      {
        "length": 32,
        "start": 1977
      },
      {
        "length": 32,
        "start": 3350
      },
      {
        "length": 32,
        "start": 3554
      },
      {
        "length": 32,
        "start": 4279
      },
      {
        "length": 32,
        "start": 4590
      },
      {
        "length": 32,
        "start": 5013
      },
      {
        "length": 32,
        "start": 5967
      },
      {
        "length": 32,
        "start": 6261
      },
      {
        "length": 32,
        "start": 6759
      }
    ],
    "714": [
      {
        "length": 32,
        "start": 3902
      }
    ]
  },
  "source": "// SPDX-License-Identifier: MIT\r\npragma solidity ^0.8.7;\r\n\r\nimport \"@openzeppelin/contracts/access/AccessControl.sol\";\r\nimport \"@openzeppelin/contracts/security/ReentrancyGuard.sol\";\r\n\r\ncontract DominionDAO is ReentrancyGuard, AccessControl {\r\n    bytes32 private immutable CONTRIBUTOR_ROLE = keccak256(\"CONTRIBUTOR\");\r\n    bytes32 private immutable STAKEHOLDER_ROLE = keccak256(\"STAKEHOLDER\");\r\n    // uint32 immutable MIN_VOTE_DURATION = 30 minutes;\r\n    uint32 immutable MIN_VOTE_DURATION = 1 weeks;\r\n    uint256 totalProposals;\r\n    uint256 public daoBalance;\r\n\r\n    mapping(uint256 => ProposalStruct) private raisedProposals;\r\n    mapping(address => uint256[]) private stakeholderVotes;\r\n    mapping(address => uint256) private contributors;\r\n    mapping(address => uint256) private stakeholders;\r\n\r\n    struct ProposalStruct {\r\n        uint256 id;\r\n        uint256 amount;\r\n        uint256 duration;\r\n        uint256 upvotes;\r\n        uint256 downvotes;\r\n        string title;\r\n        string description;\r\n        bool passed;\r\n        bool paid;\r\n        address payable beneficiary;\r\n        address proposer;\r\n        address executor;\r\n    }\r\n\r\n    event Action(\r\n        address indexed initiator,\r\n        bytes32 role,\r\n        string message,\r\n        address indexed beneficiary,\r\n        uint256 amount\r\n    );\r\n\r\n    modifier stakeholderOnly(string memory message) {\r\n        require(hasRole(STAKEHOLDER_ROLE, msg.sender), message);\r\n        _;\r\n    }\r\n\r\n    modifier contributorOnly(string memory message) {\r\n        require(hasRole(CONTRIBUTOR_ROLE, msg.sender), message);\r\n        _;\r\n    }\r\n\r\n    function createProposal(\r\n        string calldata title,\r\n        string calldata description,\r\n        address beneficiary,\r\n        uint256 amount\r\n    )external\r\n     stakeholderOnly(\"Proposal Creation Allowed for Stakeholders only\")\r\n    {\r\n        uint256 proposalId = totalProposals++;\r\n        ProposalStruct storage proposal = raisedProposals[proposalId];\r\n\r\n        proposal.id = proposalId;\r\n        proposal.proposer = payable(msg.sender);\r\n        proposal.title = title;\r\n        proposal.description = description;\r\n        proposal.beneficiary = payable(beneficiary);\r\n        proposal.amount = amount;\r\n        proposal.duration = block.timestamp + MIN_VOTE_DURATION;\r\n\r\n        emit Action(\r\n            msg.sender,\r\n            CONTRIBUTOR_ROLE,\r\n            \"PROPOSAL RAISED\",\r\n            beneficiary,\r\n            amount\r\n        );\r\n    }\r\n\r\n    function performVote(uint256 proposalId, bool supported)\r\n        external\r\n        stakeholderOnly(\"Unauthorized: Stakeholders only\")\r\n    {\r\n        ProposalStruct storage proposal = raisedProposals[proposalId];\r\n\r\n        handleVoting(proposal);\r\n\r\n        if (supported) proposal.upvotes++;\r\n        else proposal.downvotes++;\r\n\r\n        stakeholderVotes[msg.sender].push(proposal.id);\r\n\r\n        emit Action(\r\n            msg.sender,\r\n            STAKEHOLDER_ROLE,\r\n            \"PROPOSAL VOTE\",\r\n            proposal.beneficiary,\r\n            proposal.amount\r\n        );\r\n    }\r\n\r\n    function handleVoting(ProposalStruct storage proposal) private {\r\n        if (\r\n            proposal.passed ||\r\n            proposal.duration <= block.timestamp\r\n        ) {\r\n            proposal.passed = true;\r\n            revert(\"Proposal duration expired\");\r\n        }\r\n\r\n        uint256[] memory tempVotes = stakeholderVotes[msg.sender];\r\n        for (uint256 votes = 0; votes < tempVotes.length; votes++) {\r\n            if (proposal.id == tempVotes[votes])\r\n                revert(\"Double voting not allowed\");\r\n        }\r\n    }\r\n\r\n    function payBeneficiary(uint256 proposalId)\r\n        external\r\n        stakeholderOnly(\"Unauthorized: Stakeholders only\")\r\n        returns (bool)\r\n    {\r\n        ProposalStruct storage proposal = raisedProposals[proposalId];\r\n        require(daoBalance >= proposal.amount, \"Insufficient fund\");\r\n\r\n        if (proposal.paid) revert(\"Payment sent before\");\r\n\r\n        if (proposal.upvotes <= proposal.downvotes)\r\n            revert(\"Insufficient votes\");\r\n\r\n        payTo(proposal.beneficiary, proposal.amount);\r\n\r\n        proposal.paid = true;\r\n        proposal.executor = msg.sender;\r\n        daoBalance -= proposal.amount;\r\n\r\n        emit Action(\r\n            msg.sender,\r\n            STAKEHOLDER_ROLE,\r\n            \"PAYMENT TRANSFERED\",\r\n            proposal.beneficiary,\r\n            proposal.amount\r\n        );\r\n\r\n        return true;\r\n    }\r\n\r\n    function contribute() payable external {\r\n\r\n        if (!hasRole(STAKEHOLDER_ROLE, msg.sender)) {\r\n            uint256 totalContribution =\r\n                contributors[msg.sender] + msg.value;\r\n\r\n            if (totalContribution >= 5 ether) {\r\n                stakeholders[msg.sender] = totalContribution;\r\n                contributors[msg.sender] += msg.value;\r\n                _setupRole(STAKEHOLDER_ROLE, msg.sender);\r\n                _setupRole(CONTRIBUTOR_ROLE, msg.sender);\r\n            } else {\r\n                contributors[msg.sender] += msg.value;\r\n                _setupRole(CONTRIBUTOR_ROLE, msg.sender);\r\n            }\r\n        } else {\r\n            contributors[msg.sender] += msg.value;\r\n            stakeholders[msg.sender] += msg.value;\r\n        }\r\n        daoBalance += msg.value;\r\n\r\n        emit Action(\r\n            msg.sender,\r\n            STAKEHOLDER_ROLE,\r\n            \"CONTRIBUTION RECEIVED\",\r\n            address(this),\r\n            msg.value\r\n        );\r\n    }\r\n\r\n    function getProposals()\r\n        external\r\n        view\r\n        returns (ProposalStruct[] memory props)\r\n    {\r\n        props = new ProposalStruct[](totalProposals);\r\n\r\n        for (uint256 i = 0; i < totalProposals; i++) {\r\n            props[i] = raisedProposals[i];\r\n        }\r\n    }\r\n\r\n    function getProposal(uint256 proposalId)\r\n        public\r\n        view\r\n        returns (ProposalStruct memory)\r\n    {\r\n        return raisedProposals[proposalId];\r\n    }\r\n\r\n    function getStakeholderVotes()\r\n        public\r\n        view\r\n        stakeholderOnly(\"Unauthorized: not a stakeholder\")\r\n        returns (uint256[] memory)\r\n    {\r\n        return stakeholderVotes[msg.sender];\r\n    }\r\n\r\n    function getStakeholderBalance()\r\n        public\r\n        view\r\n        stakeholderOnly(\"Unauthorized: not a stakeholder\")\r\n        returns (uint256)\r\n    {\r\n        return stakeholders[msg.sender];\r\n    }\r\n\r\n    function isStakeholder() public view returns (bool) {\r\n        return stakeholders[msg.sender] > 0;\r\n    }\r\n\r\n    function getContributorBalance()\r\n        public\r\n        view\r\n        contributorOnly(\"Denied: User is not a contributor\")\r\n        returns (uint256)\r\n    {\r\n        return contributors[msg.sender];\r\n    }\r\n\r\n    function isContributor() public view returns (bool) {\r\n        return contributors[msg.sender] > 0;\r\n    }\r\n\r\n    function payTo(\r\n        address to, \r\n        uint256 amount\r\n    ) internal returns (bool) {\r\n        (bool success,) = payable(to).call{value: amount}(\"\");\r\n        require(success, \"Payment failed\");\r\n        return true;\r\n    }\r\n}",
  "sourcePath": "C:\\sites\\dApps\\dominionDAO\\src\\contracts\\DominionDAO.sol",
  "compiler": {
    "name": "solc",
    "version": "0.8.11+commit.d7f03943.Emscripten.clang"
  },
  "schemaVersion": "3.4.4",
  "updatedAt": "2022-05-23T10:18:04.824Z",
  "networkType": "ethereum",
  "devdoc": {
    "kind": "dev",
    "methods": {
      "getRoleAdmin(bytes32)": {
        "details": "Returns the admin role that controls `role`. See {grantRole} and {revokeRole}. To change a role's admin, use {_setRoleAdmin}."
      },
      "grantRole(bytes32,address)": {
        "details": "Grants `role` to `account`. If `account` had not been already granted `role`, emits a {RoleGranted} event. Requirements: - the caller must have ``role``'s admin role."
      },
      "hasRole(bytes32,address)": {
        "details": "Returns `true` if `account` has been granted `role`."
      },
      "renounceRole(bytes32,address)": {
        "details": "Revokes `role` from the calling account. Roles are often managed via {grantRole} and {revokeRole}: this function's purpose is to provide a mechanism for accounts to lose their privileges if they are compromised (such as when a trusted device is misplaced). If the calling account had been revoked `role`, emits a {RoleRevoked} event. Requirements: - the caller must be `account`."
      },
      "revokeRole(bytes32,address)": {
        "details": "Revokes `role` from `account`. If `account` had been granted `role`, emits a {RoleRevoked} event. Requirements: - the caller must have ``role``'s admin role."
      },
      "supportsInterface(bytes4)": {
        "details": "See {IERC165-supportsInterface}."
      }
    },
    "version": 1
  },
  "userdoc": {
    "kind": "user",
    "methods": {},
    "version": 1
  }
}