{
  "contractName": "DominionDAO",
  "abi": [
    {
      "anonymous": false,
      "inputs": [
        {
          "indexed": true,
          "internalType": "address",
          "name": "initiator",
          "type": "address"
        },
        {
          "indexed": false,
          "internalType": "bytes32",
          "name": "role",
          "type": "bytes32"
        },
        {
          "indexed": false,
          "internalType": "string",
          "name": "message",
          "type": "string"
        },
        {
          "indexed": true,
          "internalType": "address",
          "name": "beneficiary",
          "type": "address"
        },
        {
          "indexed": false,
          "internalType": "uint256",
          "name": "amount",
          "type": "uint256"
        }
      ],
      "name": "Action",
      "type": "event"
    },
    {
      "anonymous": false,
      "inputs": [
        {
          "indexed": true,
          "internalType": "bytes32",
          "name": "role",
          "type": "bytes32"
        },
        {
          "indexed": true,
          "internalType": "bytes32",
          "name": "previousAdminRole",
          "type": "bytes32"
        },
        {
          "indexed": true,
          "internalType": "bytes32",
          "name": "newAdminRole",
          "type": "bytes32"
        }
      ],
      "name": "RoleAdminChanged",
      "type": "event"
    },
    {
      "anonymous": false,
      "inputs": [
        {
          "indexed": true,
          "internalType": "bytes32",
          "name": "role",
          "type": "bytes32"
        },
        {
          "indexed": true,
          "internalType": "address",
          "name": "account",
          "type": "address"
        },
        {
          "indexed": true,
          "internalType": "address",
          "name": "sender",
          "type": "address"
        }
      ],
      "name": "RoleGranted",
      "type": "event"
    },
    {
      "anonymous": false,
      "inputs": [
        {
          "indexed": true,
          "internalType": "bytes32",
          "name": "role",
          "type": "bytes32"
        },
        {
          "indexed": true,
          "internalType": "address",
          "name": "account",
          "type": "address"
        },
        {
          "indexed": true,
          "internalType": "address",
          "name": "sender",
          "type": "address"
        }
      ],
      "name": "RoleRevoked",
      "type": "event"
    },
    {
      "inputs": [],
      "name": "DEFAULT_ADMIN_ROLE",
      "outputs": [
        {
          "internalType": "bytes32",
          "name": "",
          "type": "bytes32"
        }
      ],
      "stateMutability": "view",
      "type": "function",
      "constant": true
    },
    {
      "inputs": [],
      "name": "daoBalance",
      "outputs": [
        {
          "internalType": "uint256",
          "name": "",
          "type": "uint256"
        }
      ],
      "stateMutability": "view",
      "type": "function",
      "constant": true
    },
    {
      "inputs": [
        {
          "internalType": "bytes32",
          "name": "role",
          "type": "bytes32"
        }
      ],
      "name": "getRoleAdmin",
      "outputs": [
        {
          "internalType": "bytes32",
          "name": "",
          "type": "bytes32"
        }
      ],
      "stateMutability": "view",
      "type": "function",
      "constant": true
    },
    {
      "inputs": [
        {
          "internalType": "bytes32",
          "name": "role",
          "type": "bytes32"
        },
        {
          "internalType": "address",
          "name": "account",
          "type": "address"
        }
      ],
      "name": "grantRole",
      "outputs": [],
      "stateMutability": "nonpayable",
      "type": "function"
    },
    {
      "inputs": [
        {
          "internalType": "bytes32",
          "name": "role",
          "type": "bytes32"
        },
        {
          "internalType": "address",
          "name": "account",
          "type": "address"
        }
      ],
      "name": "hasRole",
      "outputs": [
        {
          "internalType": "bool",
          "name": "",
          "type": "bool"
        }
      ],
      "stateMutability": "view",
      "type": "function",
      "constant": true
    },
    {
      "inputs": [
        {
          "internalType": "bytes32",
          "name": "role",
          "type": "bytes32"
        },
        {
          "internalType": "address",
          "name": "account",
          "type": "address"
        }
      ],
      "name": "renounceRole",
      "outputs": [],
      "stateMutability": "nonpayable",
      "type": "function"
    },
    {
      "inputs": [
        {
          "internalType": "bytes32",
          "name": "role",
          "type": "bytes32"
        },
        {
          "internalType": "address",
          "name": "account",
          "type": "address"
        }
      ],
      "name": "revokeRole",
      "outputs": [],
      "stateMutability": "nonpayable",
      "type": "function"
    },
    {
      "inputs": [
        {
          "internalType": "bytes4",
          "name": "interfaceId",
          "type": "bytes4"
        }
      ],
      "name": "supportsInterface",
      "outputs": [
        {
          "internalType": "bool",
          "name": "",
          "type": "bool"
        }
      ],
      "stateMutability": "view",
      "type": "function",
      "constant": true
    },
    {
      "inputs": [
        {
          "internalType": "string",
          "name": "title",
          "type": "string"
        },
        {
          "internalType": "string",
          "name": "description",
          "type": "string"
        },
        {
          "internalType": "address",
          "name": "beneficiary",
          "type": "address"
        },
        {
          "internalType": "uint256",
          "name": "amount",
          "type": "uint256"
        }
      ],
      "name": "createProposal",
      "outputs": [],
      "stateMutability": "nonpayable",
      "type": "function"
    },
    {
      "inputs": [
        {
          "internalType": "uint256",
          "name": "proposalId",
          "type": "uint256"
        },
        {
          "internalType": "bool",
          "name": "choosen",
          "type": "bool"
        }
      ],
      "name": "performVote",
      "outputs": [],
      "stateMutability": "nonpayable",
      "type": "function"
    },
    {
      "inputs": [
        {
          "internalType": "uint256",
          "name": "proposalId",
          "type": "uint256"
        }
      ],
      "name": "payBeneficiary",
      "outputs": [
        {
          "internalType": "bool",
          "name": "",
          "type": "bool"
        }
      ],
      "stateMutability": "nonpayable",
      "type": "function"
    },
    {
      "inputs": [],
      "name": "contribute",
      "outputs": [],
      "stateMutability": "payable",
      "type": "function",
      "payable": true
    },
    {
      "inputs": [],
      "name": "getProposals",
      "outputs": [
        {
          "components": [
            {
              "internalType": "uint256",
              "name": "id",
              "type": "uint256"
            },
            {
              "internalType": "uint256",
              "name": "amount",
              "type": "uint256"
            },
            {
              "internalType": "uint256",
              "name": "duration",
              "type": "uint256"
            },
            {
              "internalType": "uint256",
              "name": "upvotes",
              "type": "uint256"
            },
            {
              "internalType": "uint256",
              "name": "downvotes",
              "type": "uint256"
            },
            {
              "internalType": "string",
              "name": "title",
              "type": "string"
            },
            {
              "internalType": "string",
              "name": "description",
              "type": "string"
            },
            {
              "internalType": "bool",
              "name": "passed",
              "type": "bool"
            },
            {
              "internalType": "bool",
              "name": "paid",
              "type": "bool"
            },
            {
              "internalType": "address payable",
              "name": "beneficiary",
              "type": "address"
            },
            {
              "internalType": "address",
              "name": "proposer",
              "type": "address"
            },
            {
              "internalType": "address",
              "name": "executor",
              "type": "address"
            }
          ],
          "internalType": "struct DominionDAO.ProposalStruct[]",
          "name": "props",
          "type": "tuple[]"
        }
      ],
      "stateMutability": "view",
      "type": "function",
      "constant": true
    },
    {
      "inputs": [
        {
          "internalType": "uint256",
          "name": "proposalId",
          "type": "uint256"
        }
      ],
      "name": "getProposal",
      "outputs": [
        {
          "components": [
            {
              "internalType": "uint256",
              "name": "id",
              "type": "uint256"
            },
            {
              "internalType": "uint256",
              "name": "amount",
              "type": "uint256"
            },
            {
              "internalType": "uint256",
              "name": "duration",
              "type": "uint256"
            },
            {
              "internalType": "uint256",
              "name": "upvotes",
              "type": "uint256"
            },
            {
              "internalType": "uint256",
              "name": "downvotes",
              "type": "uint256"
            },
            {
              "internalType": "string",
              "name": "title",
              "type": "string"
            },
            {
              "internalType": "string",
              "name": "description",
              "type": "string"
            },
            {
              "internalType": "bool",
              "name": "passed",
              "type": "bool"
            },
            {
              "internalType": "bool",
              "name": "paid",
              "type": "bool"
            },
            {
              "internalType": "address payable",
              "name": "beneficiary",
              "type": "address"
            },
            {
              "internalType": "address",
              "name": "proposer",
              "type": "address"
            },
            {
              "internalType": "address",
              "name": "executor",
              "type": "address"
            }
          ],
          "internalType": "struct DominionDAO.ProposalStruct",
          "name": "",
          "type": "tuple"
        }
      ],
      "stateMutability": "view",
      "type": "function",
      "constant": true
    },
    {
      "inputs": [
        {
          "internalType": "uint256",
          "name": "proposalId",
          "type": "uint256"
        }
      ],
      "name": "getVotesOf",
      "outputs": [
        {
          "components": [
            {
              "internalType": "address",
              "name": "voter",
              "type": "address"
            },
            {
              "internalType": "uint256",
              "name": "timestamp",
              "type": "uint256"
            },
            {
              "internalType": "bool",
              "name": "choosen",
              "type": "bool"
            }
          ],
          "internalType": "struct DominionDAO.VotedStruct[]",
          "name": "",
          "type": "tuple[]"
        }
      ],
      "stateMutability": "view",
      "type": "function",
      "constant": true
    },
    {
      "inputs": [],
      "name": "getStakeholderVotes",
      "outputs": [
        {
          "internalType": "uint256[]",
          "name": "",
          "type": "uint256[]"
        }
      ],
      "stateMutability": "view",
      "type": "function",
      "constant": true
    },
    {
      "inputs": [],
      "name": "getStakeholderBalance",
      "outputs": [
        {
          "internalType": "uint256",
          "name": "",
          "type": "uint256"
        }
      ],
      "stateMutability": "view",
      "type": "function",
      "constant": true
    },
    {
      "inputs": [],
      "name": "isStakeholder",
      "outputs": [
        {
          "internalType": "bool",
          "name": "",
          "type": "bool"
        }
      ],
      "stateMutability": "view",
      "type": "function",
      "constant": true
    },
    {
      "inputs": [],
      "name": "getContributorBalance",
      "outputs": [
        {
          "internalType": "uint256",
          "name": "",
          "type": "uint256"
        }
      ],
      "stateMutability": "view",
      "type": "function",
      "constant": true
    },
    {
      "inputs": [],
      "name": "isContributor",
      "outputs": [
        {
          "internalType": "bool",
          "name": "",
          "type": "bool"
        }
      ],
      "stateMutability": "view",
      "type": "function",
      "constant": true
    }
  ],
  "bytecode": "0x60e06040527fa0bb1af1c90aa52ed052b92714ff0087008cc720049bf1af77cca2600b31e80c6080908152507ff4bb84e1768dd286358a736d195a0b228621173f655a73b89bf8b191ed0ba07d60a09081525062093a8063ffffffff1660c09063ffffffff1681525034801561007457600080fd5b50600160008190555060805160a05160c05161398d61010060003960006110730152600081816105780152818161080101528181610e4b01528181610f17015281816111ec01528181611323015281816115b00152818161196a01528181611a900152611c8201526000818161092a015281816110fc01528181611aba0152611b3f015261398d6000f3fe60806040526004361061011f5760003560e01c806391d14854116100a0578063c02146ac11610064578063c02146ac146103fb578063c7f758a814610426578063d547741f14610463578063d6cc80161461048c578063d7bb99ba146104b75761011f565b806391d1485414610314578063a217fddf14610351578063a22f1db71461037c578063b31f111c146103a7578063bd972816146103d05761011f565b80633cdb48c2116100e75780633cdb48c21461022d57806362564c481461025857806369a136dc146102835780636a80d84d146102c05780637cdc2eb7146102eb5761011f565b806301ffc9a714610124578063119c37c814610161578063248a9ca31461019e5780632f2ff15d146101db57806336568abe14610204575b600080fd5b34801561013057600080fd5b5061014b600480360381019061014691906125e2565b6104c1565b604051610158919061262a565b60405180910390f35b34801561016d57600080fd5b506101886004803603810190610183919061267b565b61053b565b604051610195919061262a565b60405180910390f35b3480156101aa57600080fd5b506101c560048036038101906101c091906126de565b610846565b6040516101d2919061271a565b60405180910390f35b3480156101e757600080fd5b5061020260048036038101906101fd9190612793565b610866565b005b34801561021057600080fd5b5061022b60048036038101906102269190612793565b610887565b005b34801561023957600080fd5b5061024261090a565b60405161024f91906127e2565b60405180910390f35b34801561026457600080fd5b5061026d6109d8565b60405161027a9190612ab1565b60405180910390f35b34801561028f57600080fd5b506102aa60048036038101906102a5919061267b565b610d21565b6040516102b79190612bc4565b60405180910390f35b3480156102cc57600080fd5b506102d5610e0e565b6040516102e291906127e2565b60405180910390f35b3480156102f757600080fd5b50610312600480360381019061030d9190612c4b565b610ef9565b005b34801561032057600080fd5b5061033b60048036038101906103369190612793565b61113d565b604051610348919061262a565b60405180910390f35b34801561035d57600080fd5b506103666111a8565b604051610373919061271a565b60405180910390f35b34801561038857600080fd5b506103916111af565b60405161039e9190612da1565b60405180910390f35b3480156103b357600080fd5b506103ce60048036038101906103c99190612def565b6112e8565b005b3480156103dc57600080fd5b506103e56115f0565b6040516103f291906127e2565b60405180910390f35b34801561040757600080fd5b506104106115f6565b60405161041d919061262a565b60405180910390f35b34801561043257600080fd5b5061044d6004803603810190610448919061267b565b61163f565b60405161045a9190612f3a565b60405180910390f35b34801561046f57600080fd5b5061048a60048036038101906104859190612793565b6118fb565b005b34801561049857600080fd5b506104a161191c565b6040516104ae919061262a565b60405180910390f35b6104bf611965565b005b60007f7965db0b000000000000000000000000000000000000000000000000000000007bffffffffffffffffffffffffffffffffffffffffffffffffffffffff1916827bffffffffffffffffffffffffffffffffffffffffffffffffffffffff19161480610534575061053382611cba565b5b9050919050565b60006040518060400160405280601f81526020017f556e617574686f72697a65643a205374616b65686f6c64657273206f6e6c790081525061059d7f00000000000000000000000000000000000000000000000000000000000000003361113d565b81906105df576040517f08c379a00000000000000000000000000000000000000000000000000000000081526004016105d69190612fa6565b60405180910390fd5b50600060046000858152602001908152602001600020905080600101546003541015610640576040517f08c379a000000000000000000000000000000000000000000000000000000000815260040161063790613014565b60405180910390fd5b8060070160019054906101000a900460ff1615610692576040517f08c379a000000000000000000000000000000000000000000000000000000000815260040161068990613080565b60405180910390fd5b80600401548160030154116106dc576040517f08c379a00000000000000000000000000000000000000000000000000000000081526004016106d3906130ec565b60405180910390fd5b61070e8160070160029054906101000a900473ffffffffffffffffffffffffffffffffffffffff168260010154611d24565b5060018160070160016101000a81548160ff021916908315150217905550338160090160006101000a81548173ffffffffffffffffffffffffffffffffffffffff021916908373ffffffffffffffffffffffffffffffffffffffff160217905550806001015460036000828254610785919061313b565b925050819055508060070160029054906101000a900473ffffffffffffffffffffffffffffffffffffffff1673ffffffffffffffffffffffffffffffffffffffff163373ffffffffffffffffffffffffffffffffffffffff167fa596782d699d74613fcbf59d33e720baabd313d6be9c95e2268f305430305eb77f000000000000000000000000000000000000000000000000000000000000000084600101546040516108339291906131bb565b60405180910390a3600192505050919050565b600060016000838152602001908152602001600020600101549050919050565b61086f82610846565b61087881611ddc565b6108828383611df0565b505050565b61088f611ed0565b73ffffffffffffffffffffffffffffffffffffffff168173ffffffffffffffffffffffffffffffffffffffff16146108fc576040517f08c379a00000000000000000000000000000000000000000000000000000000081526004016108f390613269565b60405180910390fd5b6109068282611ed8565b5050565b60006040518060600160405280602181526020016139086021913961094f7f00000000000000000000000000000000000000000000000000000000000000003361113d565b8190610991576040517f08c379a00000000000000000000000000000000000000000000000000000000081526004016109889190612fa6565b60405180910390fd5b50600760003373ffffffffffffffffffffffffffffffffffffffff1673ffffffffffffffffffffffffffffffffffffffff1681526020019081526020016000205491505090565b606060025467ffffffffffffffff8111156109f6576109f5613289565b5b604051908082528060200260200182016040528015610a2f57816020015b610a1c612436565b815260200190600190039081610a145790505b50905060005b600254811015610d1d5760046000828152602001908152602001600020604051806101800160405290816000820154815260200160018201548152602001600282015481526020016003820154815260200160048201548152602001600582018054610aa0906132e7565b80601f0160208091040260200160405190810160405280929190818152602001828054610acc906132e7565b8015610b195780601f10610aee57610100808354040283529160200191610b19565b820191906000526020600020905b815481529060010190602001808311610afc57829003601f168201915b50505050508152602001600682018054610b32906132e7565b80601f0160208091040260200160405190810160405280929190818152602001828054610b5e906132e7565b8015610bab5780601f10610b8057610100808354040283529160200191610bab565b820191906000526020600020905b815481529060010190602001808311610b8e57829003601f168201915b505050505081526020016007820160009054906101000a900460ff161515151581526020016007820160019054906101000a900460ff161515151581526020016007820160029054906101000a900473ffffffffffffffffffffffffffffffffffffffff1673ffffffffffffffffffffffffffffffffffffffff1673ffffffffffffffffffffffffffffffffffffffff1681526020016008820160009054906101000a900473ffffffffffffffffffffffffffffffffffffffff1673ffffffffffffffffffffffffffffffffffffffff1673ffffffffffffffffffffffffffffffffffffffff1681526020016009820160009054906101000a900473ffffffffffffffffffffffffffffffffffffffff1673ffffffffffffffffffffffffffffffffffffffff1673ffffffffffffffffffffffffffffffffffffffff1681525050828281518110610cff57610cfe613319565b5b60200260200101819052508080610d1590613348565b915050610a35565b5090565b606060066000838152602001908152602001600020805480602002602001604051908101604052809291908181526020016000905b82821015610e0357838290600052602060002090600302016040518060600160405290816000820160009054906101000a900473ffffffffffffffffffffffffffffffffffffffff1673ffffffffffffffffffffffffffffffffffffffff1673ffffffffffffffffffffffffffffffffffffffff168152602001600182015481526020016002820160009054906101000a900460ff16151515158152505081526020019060010190610d56565b505050509050919050565b60006040518060400160405280601f81526020017f556e617574686f72697a65643a206e6f742061207374616b65686f6c64657200815250610e707f00000000000000000000000000000000000000000000000000000000000000003361113d565b8190610eb2576040517f08c379a0000000000000000000000000000000000000000000000000000000008152600401610ea99190612fa6565b60405180910390fd5b50600860003373ffffffffffffffffffffffffffffffffffffffff1673ffffffffffffffffffffffffffffffffffffffff1681526020019081526020016000205491505090565b6040518060600160405280602f8152602001613929602f9139610f3c7f00000000000000000000000000000000000000000000000000000000000000003361113d565b8190610f7e576040517f08c379a0000000000000000000000000000000000000000000000000000000008152600401610f759190612fa6565b60405180910390fd5b50600060026000815480929190610f9490613348565b9190505590506000600460008381526020019081526020016000209050818160000181905550338160080160006101000a81548173ffffffffffffffffffffffffffffffffffffffff021916908373ffffffffffffffffffffffffffffffffffffffff16021790555088888260050191906110109291906124dd565b5086868260060191906110249291906124dd565b50848160070160026101000a81548173ffffffffffffffffffffffffffffffffffffffff021916908373ffffffffffffffffffffffffffffffffffffffff1602179055508381600101819055507f000000000000000000000000000000000000000000000000000000000000000063ffffffff16426110a39190613391565b81600201819055508473ffffffffffffffffffffffffffffffffffffffff163373ffffffffffffffffffffffffffffffffffffffff167fa596782d699d74613fcbf59d33e720baabd313d6be9c95e2268f305430305eb77f00000000000000000000000000000000000000000000000000000000000000008760405161112a929190613433565b60405180910390a3505050505050505050565b60006001600084815260200190815260200160002060000160008373ffffffffffffffffffffffffffffffffffffffff1673ffffffffffffffffffffffffffffffffffffffff16815260200190815260200160002060009054906101000a900460ff16905092915050565b6000801b81565b60606040518060400160405280601f81526020017f556e617574686f72697a65643a206e6f742061207374616b65686f6c646572008152506112117f00000000000000000000000000000000000000000000000000000000000000003361113d565b8190611253576040517f08c379a000000000000000000000000000000000000000000000000000000000815260040161124a9190612fa6565b60405180910390fd5b50600560003373ffffffffffffffffffffffffffffffffffffffff1673ffffffffffffffffffffffffffffffffffffffff1681526020019081526020016000208054806020026020016040519081016040528092919081815260200182805480156112dd57602002820191906000526020600020905b8154815260200190600101908083116112c9575b505050505091505090565b6040518060400160405280601f81526020017f556e617574686f72697a65643a205374616b65686f6c64657273206f6e6c79008152506113487f00000000000000000000000000000000000000000000000000000000000000003361113d565b819061138a576040517f08c379a00000000000000000000000000000000000000000000000000000000081526004016113819190612fa6565b60405180910390fd5b5060006004600085815260200190815260200160002090506113ab81611fba565b82156113d0578060030160008154809291906113c690613348565b91905055506113eb565b8060040160008154809291906113e590613348565b91905055505b600560003373ffffffffffffffffffffffffffffffffffffffff1673ffffffffffffffffffffffffffffffffffffffff16815260200190815260200160002081600001549080600181540180825580915050600190039060005260206000200160009091909190915055600660008260000154815260200190815260200160002060405180606001604052803373ffffffffffffffffffffffffffffffffffffffff168152602001428152602001851515815250908060018154018082558091505060019003906000526020600020906003020160009091909190915060008201518160000160006101000a81548173ffffffffffffffffffffffffffffffffffffffff021916908373ffffffffffffffffffffffffffffffffffffffff1602179055506020820151816001015560408201518160020160006101000a81548160ff02191690831515021790555050508060070160029054906101000a900473ffffffffffffffffffffffffffffffffffffffff1673ffffffffffffffffffffffffffffffffffffffff163373ffffffffffffffffffffffffffffffffffffffff167fa596782d699d74613fcbf59d33e720baabd313d6be9c95e2268f305430305eb77f000000000000000000000000000000000000000000000000000000000000000084600101546040516115e29291906134bb565b60405180910390a350505050565b60035481565b600080600860003373ffffffffffffffffffffffffffffffffffffffff1673ffffffffffffffffffffffffffffffffffffffff1681526020019081526020016000205411905090565b611647612436565b600460008381526020019081526020016000206040518061018001604052908160008201548152602001600182015481526020016002820154815260200160038201548152602001600482015481526020016005820180546116a8906132e7565b80601f01602080910402602001604051908101604052809291908181526020018280546116d4906132e7565b80156117215780601f106116f657610100808354040283529160200191611721565b820191906000526020600020905b81548152906001019060200180831161170457829003601f168201915b5050505050815260200160068201805461173a906132e7565b80601f0160208091040260200160405190810160405280929190818152602001828054611766906132e7565b80156117b35780601f10611788576101008083540402835291602001916117b3565b820191906000526020600020905b81548152906001019060200180831161179657829003601f168201915b505050505081526020016007820160009054906101000a900460ff161515151581526020016007820160019054906101000a900460ff161515151581526020016007820160029054906101000a900473ffffffffffffffffffffffffffffffffffffffff1673ffffffffffffffffffffffffffffffffffffffff1673ffffffffffffffffffffffffffffffffffffffff1681526020016008820160009054906101000a900473ffffffffffffffffffffffffffffffffffffffff1673ffffffffffffffffffffffffffffffffffffffff1673ffffffffffffffffffffffffffffffffffffffff1681526020016009820160009054906101000a900473ffffffffffffffffffffffffffffffffffffffff1673ffffffffffffffffffffffffffffffffffffffff1673ffffffffffffffffffffffffffffffffffffffff16815250509050919050565b61190482610846565b61190d81611ddc565b6119178383611ed8565b505050565b600080600760003373ffffffffffffffffffffffffffffffffffffffff1673ffffffffffffffffffffffffffffffffffffffff1681526020019081526020016000205411905090565b61198f7f00000000000000000000000000000000000000000000000000000000000000003361113d565b611b6b57600034600760003373ffffffffffffffffffffffffffffffffffffffff1673ffffffffffffffffffffffffffffffffffffffff168152602001908152602001600020546119e09190613391565b9050674563918244f400008110611ae45780600860003373ffffffffffffffffffffffffffffffffffffffff1673ffffffffffffffffffffffffffffffffffffffff1681526020019081526020016000208190555034600760003373ffffffffffffffffffffffffffffffffffffffff1673ffffffffffffffffffffffffffffffffffffffff1681526020019081526020016000206000828254611a849190613391565b92505081905550611ab57f00000000000000000000000000000000000000000000000000000000000000003361214f565b611adf7f00000000000000000000000000000000000000000000000000000000000000003361214f565b611b65565b34600760003373ffffffffffffffffffffffffffffffffffffffff1673ffffffffffffffffffffffffffffffffffffffff1681526020019081526020016000206000828254611b339190613391565b92505081905550611b647f00000000000000000000000000000000000000000000000000000000000000003361214f565b5b50611c18565b34600760003373ffffffffffffffffffffffffffffffffffffffff1673ffffffffffffffffffffffffffffffffffffffff1681526020019081526020016000206000828254611bba9190613391565b9250508190555034600860003373ffffffffffffffffffffffffffffffffffffffff1673ffffffffffffffffffffffffffffffffffffffff1681526020019081526020016000206000828254611c109190613391565b925050819055505b3460036000828254611c2a9190613391565b925050819055503073ffffffffffffffffffffffffffffffffffffffff163373ffffffffffffffffffffffffffffffffffffffff167fa596782d699d74613fcbf59d33e720baabd313d6be9c95e2268f305430305eb77f000000000000000000000000000000000000000000000000000000000000000034604051611cb0929190613543565b60405180910390a3565b60007f01ffc9a7000000000000000000000000000000000000000000000000000000007bffffffffffffffffffffffffffffffffffffffffffffffffffffffff1916827bffffffffffffffffffffffffffffffffffffffffffffffffffffffff1916149050919050565b6000808373ffffffffffffffffffffffffffffffffffffffff1683604051611d4b906135b0565b60006040518083038185875af1925050503d8060008114611d88576040519150601f19603f3d011682016040523d82523d6000602084013e611d8d565b606091505b5050905080611dd1576040517f08c379a0000000000000000000000000000000000000000000000000000000008152600401611dc890613611565b60405180910390fd5b600191505092915050565b611ded81611de8611ed0565b61215d565b50565b611dfa828261113d565b611ecc57600180600084815260200190815260200160002060000160008373ffffffffffffffffffffffffffffffffffffffff1673ffffffffffffffffffffffffffffffffffffffff16815260200190815260200160002060006101000a81548160ff021916908315150217905550611e71611ed0565b73ffffffffffffffffffffffffffffffffffffffff168173ffffffffffffffffffffffffffffffffffffffff16837f2f8788117e7eff1d82e926ec794901d17c78024a50270940304540a733656f0d60405160405180910390a45b5050565b600033905090565b611ee2828261113d565b15611fb65760006001600084815260200190815260200160002060000160008373ffffffffffffffffffffffffffffffffffffffff1673ffffffffffffffffffffffffffffffffffffffff16815260200190815260200160002060006101000a81548160ff021916908315150217905550611f5b611ed0565b73ffffffffffffffffffffffffffffffffffffffff168173ffffffffffffffffffffffffffffffffffffffff16837ff6391f5c32d9c69d2a47ea670b442974b53935d1edc7fd64eb21e047a839171b60405160405180910390a45b5050565b8060070160009054906101000a900460ff1680611fdb575042816002015411155b156120385760018160070160006101000a81548160ff0219169083151502179055506040517f08c379a000000000000000000000000000000000000000000000000000000000815260040161202f9061367d565b60405180910390fd5b6000600560003373ffffffffffffffffffffffffffffffffffffffff1673ffffffffffffffffffffffffffffffffffffffff1681526020019081526020016000208054806020026020016040519081016040528092919081815260200182805480156120c357602002820191906000526020600020905b8154815260200190600101908083116120af575b5050505050905060005b815181101561214a578181815181106120e9576120e8613319565b5b602002602001015183600001541415612137576040517f08c379a000000000000000000000000000000000000000000000000000000000815260040161212e906136e9565b60405180910390fd5b808061214290613348565b9150506120cd565b505050565b6121598282611df0565b5050565b612167828261113d565b6121f65761218c8173ffffffffffffffffffffffffffffffffffffffff1660146121fa565b61219a8360001c60206121fa565b6040516020016121ab9291906137dd565b6040516020818303038152906040526040517f08c379a00000000000000000000000000000000000000000000000000000000081526004016121ed9190612fa6565b60405180910390fd5b5050565b60606000600283600261220d9190613817565b6122179190613391565b67ffffffffffffffff8111156122305761222f613289565b5b6040519080825280601f01601f1916602001820160405280156122625781602001600182028036833780820191505090505b5090507f30000000000000000000000000000000000000000000000000000000000000008160008151811061229a57612299613319565b5b60200101907effffffffffffffffffffffffffffffffffffffffffffffffffffffffffffff1916908160001a9053507f7800000000000000000000000000000000000000000000000000000000000000816001815181106122fe576122fd613319565b5b60200101907effffffffffffffffffffffffffffffffffffffffffffffffffffffffffffff1916908160001a9053506000600184600261233e9190613817565b6123489190613391565b90505b60018111156123e8577f3031323334353637383961626364656600000000000000000000000000000000600f86166010811061238a57612389613319565b5b1a60f81b8282815181106123a1576123a0613319565b5b60200101907effffffffffffffffffffffffffffffffffffffffffffffffffffffffffffff1916908160001a905350600485901c9450806123e190613871565b905061234b565b506000841461242c576040517f08c379a0000000000000000000000000000000000000000000000000000000008152600401612423906138e7565b60405180910390fd5b8091505092915050565b60405180610180016040528060008152602001600081526020016000815260200160008152602001600081526020016060815260200160608152602001600015158152602001600015158152602001600073ffffffffffffffffffffffffffffffffffffffff168152602001600073ffffffffffffffffffffffffffffffffffffffff168152602001600073ffffffffffffffffffffffffffffffffffffffff1681525090565b8280546124e9906132e7565b90600052602060002090601f01602090048101928261250b5760008555612552565b82601f1061252457803560ff1916838001178555612552565b82800160010185558215612552579182015b82811115612551578235825591602001919060010190612536565b5b50905061255f9190612563565b5090565b5b8082111561257c576000816000905550600101612564565b5090565b600080fd5b600080fd5b60007fffffffff0000000000000000000000000000000000000000000000000000000082169050919050565b6125bf8161258a565b81146125ca57600080fd5b50565b6000813590506125dc816125b6565b92915050565b6000602082840312156125f8576125f7612580565b5b6000612606848285016125cd565b91505092915050565b60008115159050919050565b6126248161260f565b82525050565b600060208201905061263f600083018461261b565b92915050565b6000819050919050565b61265881612645565b811461266357600080fd5b50565b6000813590506126758161264f565b92915050565b60006020828403121561269157612690612580565b5b600061269f84828501612666565b91505092915050565b6000819050919050565b6126bb816126a8565b81146126c657600080fd5b50565b6000813590506126d8816126b2565b92915050565b6000602082840312156126f4576126f3612580565b5b6000612702848285016126c9565b91505092915050565b612714816126a8565b82525050565b600060208201905061272f600083018461270b565b92915050565b600073ffffffffffffffffffffffffffffffffffffffff82169050919050565b600061276082612735565b9050919050565b61277081612755565b811461277b57600080fd5b50565b60008135905061278d81612767565b92915050565b600080604083850312156127aa576127a9612580565b5b60006127b8858286016126c9565b92505060206127c98582860161277e565b9150509250929050565b6127dc81612645565b82525050565b60006020820190506127f760008301846127d3565b92915050565b600081519050919050565b600082825260208201905092915050565b6000819050602082019050919050565b61283281612645565b82525050565b600081519050919050565b600082825260208201905092915050565b60005b83811015612872578082015181840152602081019050612857565b83811115612881576000848401525b50505050565b6000601f19601f8301169050919050565b60006128a382612838565b6128ad8185612843565b93506128bd818560208601612854565b6128c681612887565b840191505092915050565b6128da8161260f565b82525050565b60006128eb82612735565b9050919050565b6128fb816128e0565b82525050565b61290a81612755565b82525050565b6000610180830160008301516129296000860182612829565b50602083015161293c6020860182612829565b50604083015161294f6040860182612829565b5060608301516129626060860182612829565b5060808301516129756080860182612829565b5060a083015184820360a086015261298d8282612898565b91505060c083015184820360c08601526129a78282612898565b91505060e08301516129bc60e08601826128d1565b506101008301516129d16101008601826128d1565b506101208301516129e66101208601826128f2565b506101408301516129fb610140860182612901565b50610160830151612a10610160860182612901565b508091505092915050565b6000612a278383612910565b905092915050565b6000602082019050919050565b6000612a47826127fd565b612a518185612808565b935083602082028501612a6385612819565b8060005b85811015612a9f5784840389528151612a808582612a1b565b9450612a8b83612a2f565b925060208a01995050600181019050612a67565b50829750879550505050505092915050565b60006020820190508181036000830152612acb8184612a3c565b905092915050565b600081519050919050565b600082825260208201905092915050565b6000819050602082019050919050565b606082016000820151612b156000850182612901565b506020820151612b286020850182612829565b506040820151612b3b60408501826128d1565b50505050565b6000612b4d8383612aff565b60608301905092915050565b6000602082019050919050565b6000612b7182612ad3565b612b7b8185612ade565b9350612b8683612aef565b8060005b83811015612bb7578151612b9e8882612b41565b9750612ba983612b59565b925050600181019050612b8a565b5085935050505092915050565b60006020820190508181036000830152612bde8184612b66565b905092915050565b600080fd5b600080fd5b600080fd5b60008083601f840112612c0b57612c0a612be6565b5b8235905067ffffffffffffffff811115612c2857612c27612beb565b5b602083019150836001820283011115612c4457612c43612bf0565b5b9250929050565b60008060008060008060808789031215612c6857612c67612580565b5b600087013567ffffffffffffffff811115612c8657612c85612585565b5b612c9289828a01612bf5565b9650965050602087013567ffffffffffffffff811115612cb557612cb4612585565b5b612cc189828a01612bf5565b94509450506040612cd489828a0161277e565b9250506060612ce589828a01612666565b9150509295509295509295565b600081519050919050565b600082825260208201905092915050565b6000819050602082019050919050565b6000612d2a8383612829565b60208301905092915050565b6000602082019050919050565b6000612d4e82612cf2565b612d588185612cfd565b9350612d6383612d0e565b8060005b83811015612d94578151612d7b8882612d1e565b9750612d8683612d36565b925050600181019050612d67565b5085935050505092915050565b60006020820190508181036000830152612dbb8184612d43565b905092915050565b612dcc8161260f565b8114612dd757600080fd5b50565b600081359050612de981612dc3565b92915050565b60008060408385031215612e0657612e05612580565b5b6000612e1485828601612666565b9250506020612e2585828601612dda565b9150509250929050565b600061018083016000830151612e486000860182612829565b506020830151612e5b6020860182612829565b506040830151612e6e6040860182612829565b506060830151612e816060860182612829565b506080830151612e946080860182612829565b5060a083015184820360a0860152612eac8282612898565b91505060c083015184820360c0860152612ec68282612898565b91505060e0830151612edb60e08601826128d1565b50610100830151612ef06101008601826128d1565b50610120830151612f056101208601826128f2565b50610140830151612f1a610140860182612901565b50610160830151612f2f610160860182612901565b508091505092915050565b60006020820190508181036000830152612f548184612e2f565b905092915050565b600082825260208201905092915050565b6000612f7882612838565b612f828185612f5c565b9350612f92818560208601612854565b612f9b81612887565b840191505092915050565b60006020820190508181036000830152612fc08184612f6d565b905092915050565b7f496e73756666696369656e742066756e64000000000000000000000000000000600082015250565b6000612ffe601183612f5c565b915061300982612fc8565b602082019050919050565b6000602082019050818103600083015261302d81612ff1565b9050919050565b7f5061796d656e742073656e74206265666f726500000000000000000000000000600082015250565b600061306a601383612f5c565b915061307582613034565b602082019050919050565b600060208201905081810360008301526130998161305d565b9050919050565b7f496e73756666696369656e7420766f7465730000000000000000000000000000600082015250565b60006130d6601283612f5c565b91506130e1826130a0565b602082019050919050565b60006020820190508181036000830152613105816130c9565b9050919050565b7f4e487b7100000000000000000000000000000000000000000000000000000000600052601160045260246000fd5b600061314682612645565b915061315183612645565b9250828210156131645761316361310c565b5b828203905092915050565b7f5041594d454e54205452414e5346455245440000000000000000000000000000600082015250565b60006131a5601283612f5c565b91506131b08261316f565b602082019050919050565b60006060820190506131d0600083018561270b565b81810360208301526131e181613198565b90506131f060408301846127d3565b9392505050565b7f416363657373436f6e74726f6c3a2063616e206f6e6c792072656e6f756e636560008201527f20726f6c657320666f722073656c660000000000000000000000000000000000602082015250565b6000613253602f83612f5c565b915061325e826131f7565b604082019050919050565b6000602082019050818103600083015261328281613246565b9050919050565b7f4e487b7100000000000000000000000000000000000000000000000000000000600052604160045260246000fd5b7f4e487b7100000000000000000000000000000000000000000000000000000000600052602260045260246000fd5b600060028204905060018216806132ff57607f821691505b60208210811415613313576133126132b8565b5b50919050565b7f4e487b7100000000000000000000000000000000000000000000000000000000600052603260045260246000fd5b600061335382612645565b91507fffffffffffffffffffffffffffffffffffffffffffffffffffffffffffffffff8214156133865761338561310c565b5b600182019050919050565b600061339c82612645565b91506133a783612645565b9250827fffffffffffffffffffffffffffffffffffffffffffffffffffffffffffffffff038211156133dc576133db61310c565b5b828201905092915050565b7f50524f504f53414c205241495345440000000000000000000000000000000000600082015250565b600061341d600f83612f5c565b9150613428826133e7565b602082019050919050565b6000606082019050613448600083018561270b565b818103602083015261345981613410565b905061346860408301846127d3565b9392505050565b7f50524f504f53414c20564f544500000000000000000000000000000000000000600082015250565b60006134a5600d83612f5c565b91506134b08261346f565b602082019050919050565b60006060820190506134d0600083018561270b565b81810360208301526134e181613498565b90506134f060408301846127d3565b9392505050565b7f434f4e545249425554494f4e2052454345495645440000000000000000000000600082015250565b600061352d601583612f5c565b9150613538826134f7565b602082019050919050565b6000606082019050613558600083018561270b565b818103602083015261356981613520565b905061357860408301846127d3565b9392505050565b600081905092915050565b50565b600061359a60008361357f565b91506135a58261358a565b600082019050919050565b60006135bb8261358d565b9150819050919050565b7f5061796d656e74206661696c6564000000000000000000000000000000000000600082015250565b60006135fb600e83612f5c565b9150613606826135c5565b602082019050919050565b6000602082019050818103600083015261362a816135ee565b9050919050565b7f50726f706f73616c206475726174696f6e206578706972656400000000000000600082015250565b6000613667601983612f5c565b915061367282613631565b602082019050919050565b600060208201905081810360008301526136968161365a565b9050919050565b7f446f75626c6520766f74696e67206e6f7420616c6c6f77656400000000000000600082015250565b60006136d3601983612f5c565b91506136de8261369d565b602082019050919050565b60006020820190508181036000830152613702816136c6565b9050919050565b600081905092915050565b7f416363657373436f6e74726f6c3a206163636f756e7420000000000000000000600082015250565b600061374a601783613709565b915061375582613714565b601782019050919050565b600061376b82612838565b6137758185613709565b9350613785818560208601612854565b80840191505092915050565b7f206973206d697373696e6720726f6c6520000000000000000000000000000000600082015250565b60006137c7601183613709565b91506137d282613791565b601182019050919050565b60006137e88261373d565b91506137f48285613760565b91506137ff826137ba565b915061380b8284613760565b91508190509392505050565b600061382282612645565b915061382d83612645565b9250817fffffffffffffffffffffffffffffffffffffffffffffffffffffffffffffffff04831182151516156138665761386561310c565b5b828202905092915050565b600061387c82612645565b915060008214156138905761388f61310c565b5b600182039050919050565b7f537472696e67733a20686578206c656e67746820696e73756666696369656e74600082015250565b60006138d1602083612f5c565b91506138dc8261389b565b602082019050919050565b60006020820190508181036000830152613900816138c4565b905091905056fe44656e6965643a2055736572206973206e6f74206120636f6e7472696275746f7250726f706f73616c204372656174696f6e20416c6c6f77656420666f72205374616b65686f6c64657273206f6e6c79a2646970667358221220d34f31802812d319d2dca2083342b9ad0592c93b12fd4d4b46cc02e8d5524bcd64736f6c634300080b0033",
  "immutableReferences": {
    "706": [
      {
        "length": 32,
        "start": 2346
      },
      {
        "length": 32,
        "start": 4348
      },
      {
        "length": 32,
        "start": 6842
      },
      {
        "length": 32,
        "start": 6975
      }
    ],
    "711": [
      {
        "length": 32,
        "start": 1400
      },
      {
        "length": 32,
        "start": 2049
      },
      {
        "length": 32,
        "start": 3659
      },
      {
        "length": 32,
        "start": 3863
      },
      {
        "length": 32,
        "start": 4588
      },
      {
        "length": 32,
        "start": 4899
      },
      {
        "length": 32,
        "start": 5552
      },
      {
        "length": 32,
        "start": 6506
      },
      {
        "length": 32,
        "start": 6800
      },
      {
        "length": 32,
        "start": 7298
      }
    ],
    "714": [
      {
        "length": 32,
        "start": 4211
      }
    ]
  },
  "source": "// SPDX-License-Identifier: MIT\r\npragma solidity ^0.8.7;\r\n\r\nimport \"@openzeppelin/contracts/access/AccessControl.sol\";\r\nimport \"@openzeppelin/contracts/security/ReentrancyGuard.sol\";\r\n\r\ncontract DominionDAO is ReentrancyGuard, AccessControl {\r\n    bytes32 private immutable CONTRIBUTOR_ROLE = keccak256(\"CONTRIBUTOR\");\r\n    bytes32 private immutable STAKEHOLDER_ROLE = keccak256(\"STAKEHOLDER\");\r\n    uint32 immutable MIN_VOTE_DURATION = 1 weeks;\r\n    uint256 totalProposals;\r\n    uint256 public daoBalance;\r\n\r\n    mapping(uint256 => ProposalStruct) private raisedProposals;\r\n    mapping(address => uint256[]) private stakeholderVotes;\r\n    mapping(uint256 => VotedStruct[]) private votedOn;\r\n    mapping(address => uint256) private contributors;\r\n    mapping(address => uint256) private stakeholders;\r\n\r\n    struct ProposalStruct {\r\n        uint256 id;\r\n        uint256 amount;\r\n        uint256 duration;\r\n        uint256 upvotes;\r\n        uint256 downvotes;\r\n        string title;\r\n        string description;\r\n        bool passed;\r\n        bool paid;\r\n        address payable beneficiary;\r\n        address proposer;\r\n        address executor;\r\n    }\r\n\r\n    struct VotedStruct {\r\n        address voter;\r\n        uint256 timestamp;\r\n        bool choosen;\r\n    }\r\n\r\n    event Action(\r\n        address indexed initiator,\r\n        bytes32 role,\r\n        string message,\r\n        address indexed beneficiary,\r\n        uint256 amount\r\n    );\r\n\r\n    modifier stakeholderOnly(string memory message) {\r\n        require(hasRole(STAKEHOLDER_ROLE, msg.sender), message);\r\n        _;\r\n    }\r\n\r\n    modifier contributorOnly(string memory message) {\r\n        require(hasRole(CONTRIBUTOR_ROLE, msg.sender), message);\r\n        _;\r\n    }\r\n\r\n    function createProposal(\r\n        string calldata title,\r\n        string calldata description,\r\n        address beneficiary,\r\n        uint256 amount\r\n    )external\r\n     stakeholderOnly(\"Proposal Creation Allowed for Stakeholders only\")\r\n    {\r\n        uint256 proposalId = totalProposals++;\r\n        ProposalStruct storage proposal = raisedProposals[proposalId];\r\n\r\n        proposal.id = proposalId;\r\n        proposal.proposer = payable(msg.sender);\r\n        proposal.title = title;\r\n        proposal.description = description;\r\n        proposal.beneficiary = payable(beneficiary);\r\n        proposal.amount = amount;\r\n        proposal.duration = block.timestamp + MIN_VOTE_DURATION;\r\n\r\n        emit Action(\r\n            msg.sender,\r\n            CONTRIBUTOR_ROLE,\r\n            \"PROPOSAL RAISED\",\r\n            beneficiary,\r\n            amount\r\n        );\r\n    }\r\n\r\n    function performVote(uint256 proposalId, bool choosen)\r\n        external\r\n        stakeholderOnly(\"Unauthorized: Stakeholders only\")\r\n    {\r\n        ProposalStruct storage proposal = raisedProposals[proposalId];\r\n\r\n        handleVoting(proposal);\r\n\r\n        if (choosen) proposal.upvotes++;\r\n        else proposal.downvotes++;\r\n\r\n        stakeholderVotes[msg.sender].push(proposal.id);\r\n\r\n        votedOn[proposal.id].push(\r\n            VotedStruct(\r\n                msg.sender,\r\n                block.timestamp,\r\n                choosen\r\n            )\r\n        );\r\n\r\n        emit Action(\r\n            msg.sender,\r\n            STAKEHOLDER_ROLE,\r\n            \"PROPOSAL VOTE\",\r\n            proposal.beneficiary,\r\n            proposal.amount\r\n        );\r\n    }\r\n\r\n    function handleVoting(ProposalStruct storage proposal) private {\r\n        if (\r\n            proposal.passed ||\r\n            proposal.duration <= block.timestamp\r\n        ) {\r\n            proposal.passed = true;\r\n            revert(\"Proposal duration expired\");\r\n        }\r\n\r\n        uint256[] memory tempVotes = stakeholderVotes[msg.sender];\r\n        for (uint256 votes = 0; votes < tempVotes.length; votes++) {\r\n            if (proposal.id == tempVotes[votes])\r\n                revert(\"Double voting not allowed\");\r\n        }\r\n    }\r\n\r\n    function payBeneficiary(uint256 proposalId)\r\n        external\r\n        stakeholderOnly(\"Unauthorized: Stakeholders only\")\r\n        returns (bool)\r\n    {\r\n        ProposalStruct storage proposal = raisedProposals[proposalId];\r\n        require(daoBalance >= proposal.amount, \"Insufficient fund\");\r\n\r\n        if (proposal.paid) revert(\"Payment sent before\");\r\n\r\n        if (proposal.upvotes <= proposal.downvotes)\r\n            revert(\"Insufficient votes\");\r\n\r\n        payTo(proposal.beneficiary, proposal.amount);\r\n\r\n        proposal.paid = true;\r\n        proposal.executor = msg.sender;\r\n        daoBalance -= proposal.amount;\r\n\r\n        emit Action(\r\n            msg.sender,\r\n            STAKEHOLDER_ROLE,\r\n            \"PAYMENT TRANSFERED\",\r\n            proposal.beneficiary,\r\n            proposal.amount\r\n        );\r\n\r\n        return true;\r\n    }\r\n\r\n    function contribute() payable external {\r\n\r\n        if (!hasRole(STAKEHOLDER_ROLE, msg.sender)) {\r\n            uint256 totalContribution =\r\n                contributors[msg.sender] + msg.value;\r\n\r\n            if (totalContribution >= 5 ether) {\r\n                stakeholders[msg.sender] = totalContribution;\r\n                contributors[msg.sender] += msg.value;\r\n                _setupRole(STAKEHOLDER_ROLE, msg.sender);\r\n                _setupRole(CONTRIBUTOR_ROLE, msg.sender);\r\n            } else {\r\n                contributors[msg.sender] += msg.value;\r\n                _setupRole(CONTRIBUTOR_ROLE, msg.sender);\r\n            }\r\n        } else {\r\n            contributors[msg.sender] += msg.value;\r\n            stakeholders[msg.sender] += msg.value;\r\n        }\r\n        \r\n        daoBalance += msg.value;\r\n\r\n        emit Action(\r\n            msg.sender,\r\n            STAKEHOLDER_ROLE,\r\n            \"CONTRIBUTION RECEIVED\",\r\n            address(this),\r\n            msg.value\r\n        );\r\n    }\r\n\r\n    function getProposals()\r\n        external\r\n        view\r\n        returns (ProposalStruct[] memory props)\r\n    {\r\n        props = new ProposalStruct[](totalProposals);\r\n\r\n        for (uint256 i = 0; i < totalProposals; i++) {\r\n            props[i] = raisedProposals[i];\r\n        }\r\n    }\r\n\r\n    function getProposal(uint256 proposalId)\r\n        external\r\n        view\r\n        returns (ProposalStruct memory)\r\n    {\r\n        return raisedProposals[proposalId];\r\n    }\r\n    \r\n    function getVotesOf(uint256 proposalId)\r\n        external\r\n        view\r\n        returns (VotedStruct[] memory)\r\n    {\r\n        return votedOn[proposalId];\r\n    }\r\n\r\n    function getStakeholderVotes()\r\n        external\r\n        view\r\n        stakeholderOnly(\"Unauthorized: not a stakeholder\")\r\n        returns (uint256[] memory)\r\n    {\r\n        return stakeholderVotes[msg.sender];\r\n    }\r\n\r\n    function getStakeholderBalance()\r\n        external\r\n        view\r\n        stakeholderOnly(\"Unauthorized: not a stakeholder\")\r\n        returns (uint256)\r\n    {\r\n        return stakeholders[msg.sender];\r\n    }\r\n\r\n    function isStakeholder() external view returns (bool) {\r\n        return stakeholders[msg.sender] > 0;\r\n    }\r\n\r\n    function getContributorBalance()\r\n        external\r\n        view\r\n        contributorOnly(\"Denied: User is not a contributor\")\r\n        returns (uint256)\r\n    {\r\n        return contributors[msg.sender];\r\n    }\r\n\r\n    function isContributor() external view returns (bool) {\r\n        return contributors[msg.sender] > 0;\r\n    }\r\n\r\n    function payTo(\r\n        address to, \r\n        uint256 amount\r\n    ) internal returns (bool) {\r\n        (bool success,) = payable(to).call{value: amount}(\"\");\r\n        require(success, \"Payment failed\");\r\n        return true;\r\n    }\r\n}",
  "sourcePath": "C:\\sites\\dApps\\dominionDAO\\src\\contracts\\DominionDAO.sol",
  "compiler": {
    "name": "solc",
    "version": "0.8.11+commit.d7f03943.Emscripten.clang"
  },
  "schemaVersion": "3.4.4",
  "updatedAt": "2022-05-27T10:33:20.755Z",
  "networkType": "ethereum",
  "devdoc": {
    "kind": "dev",
    "methods": {
      "getRoleAdmin(bytes32)": {
        "details": "Returns the admin role that controls `role`. See {grantRole} and {revokeRole}. To change a role's admin, use {_setRoleAdmin}."
      },
      "grantRole(bytes32,address)": {
        "details": "Grants `role` to `account`. If `account` had not been already granted `role`, emits a {RoleGranted} event. Requirements: - the caller must have ``role``'s admin role."
      },
      "hasRole(bytes32,address)": {
        "details": "Returns `true` if `account` has been granted `role`."
      },
      "renounceRole(bytes32,address)": {
        "details": "Revokes `role` from the calling account. Roles are often managed via {grantRole} and {revokeRole}: this function's purpose is to provide a mechanism for accounts to lose their privileges if they are compromised (such as when a trusted device is misplaced). If the calling account had been revoked `role`, emits a {RoleRevoked} event. Requirements: - the caller must be `account`."
      },
      "revokeRole(bytes32,address)": {
        "details": "Revokes `role` from `account`. If `account` had been granted `role`, emits a {RoleRevoked} event. Requirements: - the caller must have ``role``'s admin role."
      },
      "supportsInterface(bytes4)": {
        "details": "See {IERC165-supportsInterface}."
      }
    },
    "version": 1
  },
  "userdoc": {
    "kind": "user",
    "methods": {},
    "version": 1
  }
}