{
  "contractName": "DominionDAO",
  "abi": [
    {
      "anonymous": false,
      "inputs": [
        {
          "indexed": true,
          "internalType": "address",
          "name": "initiator",
          "type": "address"
        },
        {
          "indexed": false,
          "internalType": "bytes32",
          "name": "role",
          "type": "bytes32"
        },
        {
          "indexed": false,
          "internalType": "string",
          "name": "message",
          "type": "string"
        },
        {
          "indexed": true,
          "internalType": "address",
          "name": "beneficiary",
          "type": "address"
        },
        {
          "indexed": false,
          "internalType": "uint256",
          "name": "amount",
          "type": "uint256"
        }
      ],
      "name": "Action",
      "type": "event"
    },
    {
      "anonymous": false,
      "inputs": [
        {
          "indexed": true,
          "internalType": "bytes32",
          "name": "role",
          "type": "bytes32"
        },
        {
          "indexed": true,
          "internalType": "bytes32",
          "name": "previousAdminRole",
          "type": "bytes32"
        },
        {
          "indexed": true,
          "internalType": "bytes32",
          "name": "newAdminRole",
          "type": "bytes32"
        }
      ],
      "name": "RoleAdminChanged",
      "type": "event"
    },
    {
      "anonymous": false,
      "inputs": [
        {
          "indexed": true,
          "internalType": "bytes32",
          "name": "role",
          "type": "bytes32"
        },
        {
          "indexed": true,
          "internalType": "address",
          "name": "account",
          "type": "address"
        },
        {
          "indexed": true,
          "internalType": "address",
          "name": "sender",
          "type": "address"
        }
      ],
      "name": "RoleGranted",
      "type": "event"
    },
    {
      "anonymous": false,
      "inputs": [
        {
          "indexed": true,
          "internalType": "bytes32",
          "name": "role",
          "type": "bytes32"
        },
        {
          "indexed": true,
          "internalType": "address",
          "name": "account",
          "type": "address"
        },
        {
          "indexed": true,
          "internalType": "address",
          "name": "sender",
          "type": "address"
        }
      ],
      "name": "RoleRevoked",
      "type": "event"
    },
    {
      "inputs": [],
      "name": "DEFAULT_ADMIN_ROLE",
      "outputs": [
        {
          "internalType": "bytes32",
          "name": "",
          "type": "bytes32"
        }
      ],
      "stateMutability": "view",
      "type": "function",
      "constant": true
    },
    {
      "inputs": [],
      "name": "daoBalance",
      "outputs": [
        {
          "internalType": "uint256",
          "name": "",
          "type": "uint256"
        }
      ],
      "stateMutability": "view",
      "type": "function",
      "constant": true
    },
    {
      "inputs": [
        {
          "internalType": "bytes32",
          "name": "role",
          "type": "bytes32"
        }
      ],
      "name": "getRoleAdmin",
      "outputs": [
        {
          "internalType": "bytes32",
          "name": "",
          "type": "bytes32"
        }
      ],
      "stateMutability": "view",
      "type": "function",
      "constant": true
    },
    {
      "inputs": [
        {
          "internalType": "bytes32",
          "name": "role",
          "type": "bytes32"
        },
        {
          "internalType": "address",
          "name": "account",
          "type": "address"
        }
      ],
      "name": "grantRole",
      "outputs": [],
      "stateMutability": "nonpayable",
      "type": "function"
    },
    {
      "inputs": [
        {
          "internalType": "bytes32",
          "name": "role",
          "type": "bytes32"
        },
        {
          "internalType": "address",
          "name": "account",
          "type": "address"
        }
      ],
      "name": "hasRole",
      "outputs": [
        {
          "internalType": "bool",
          "name": "",
          "type": "bool"
        }
      ],
      "stateMutability": "view",
      "type": "function",
      "constant": true
    },
    {
      "inputs": [
        {
          "internalType": "bytes32",
          "name": "role",
          "type": "bytes32"
        },
        {
          "internalType": "address",
          "name": "account",
          "type": "address"
        }
      ],
      "name": "renounceRole",
      "outputs": [],
      "stateMutability": "nonpayable",
      "type": "function"
    },
    {
      "inputs": [
        {
          "internalType": "bytes32",
          "name": "role",
          "type": "bytes32"
        },
        {
          "internalType": "address",
          "name": "account",
          "type": "address"
        }
      ],
      "name": "revokeRole",
      "outputs": [],
      "stateMutability": "nonpayable",
      "type": "function"
    },
    {
      "inputs": [
        {
          "internalType": "bytes4",
          "name": "interfaceId",
          "type": "bytes4"
        }
      ],
      "name": "supportsInterface",
      "outputs": [
        {
          "internalType": "bool",
          "name": "",
          "type": "bool"
        }
      ],
      "stateMutability": "view",
      "type": "function",
      "constant": true
    },
    {
      "inputs": [
        {
          "internalType": "string",
          "name": "title",
          "type": "string"
        },
        {
          "internalType": "string",
          "name": "description",
          "type": "string"
        },
        {
          "internalType": "address",
          "name": "beneficiary",
          "type": "address"
        },
        {
          "internalType": "uint256",
          "name": "amount",
          "type": "uint256"
        }
      ],
      "name": "createProposal",
      "outputs": [],
      "stateMutability": "nonpayable",
      "type": "function"
    },
    {
      "inputs": [
        {
          "internalType": "uint256",
          "name": "proposalId",
          "type": "uint256"
        },
        {
          "internalType": "bool",
          "name": "choosen",
          "type": "bool"
        }
      ],
      "name": "performVote",
      "outputs": [],
      "stateMutability": "nonpayable",
      "type": "function"
    },
    {
      "inputs": [
        {
          "internalType": "uint256",
          "name": "proposalId",
          "type": "uint256"
        }
      ],
      "name": "payBeneficiary",
      "outputs": [
        {
          "internalType": "bool",
          "name": "",
          "type": "bool"
        }
      ],
      "stateMutability": "nonpayable",
      "type": "function"
    },
    {
      "inputs": [],
      "name": "contribute",
      "outputs": [],
      "stateMutability": "payable",
      "type": "function",
      "payable": true
    },
    {
      "inputs": [],
      "name": "getProposals",
      "outputs": [
        {
          "components": [
            {
              "internalType": "uint256",
              "name": "id",
              "type": "uint256"
            },
            {
              "internalType": "uint256",
              "name": "amount",
              "type": "uint256"
            },
            {
              "internalType": "uint256",
              "name": "duration",
              "type": "uint256"
            },
            {
              "internalType": "uint256",
              "name": "upvotes",
              "type": "uint256"
            },
            {
              "internalType": "uint256",
              "name": "downvotes",
              "type": "uint256"
            },
            {
              "internalType": "string",
              "name": "title",
              "type": "string"
            },
            {
              "internalType": "string",
              "name": "description",
              "type": "string"
            },
            {
              "internalType": "bool",
              "name": "passed",
              "type": "bool"
            },
            {
              "internalType": "bool",
              "name": "paid",
              "type": "bool"
            },
            {
              "internalType": "address payable",
              "name": "beneficiary",
              "type": "address"
            },
            {
              "internalType": "address",
              "name": "proposer",
              "type": "address"
            },
            {
              "internalType": "address",
              "name": "executor",
              "type": "address"
            }
          ],
          "internalType": "struct DominionDAO.ProposalStruct[]",
          "name": "props",
          "type": "tuple[]"
        }
      ],
      "stateMutability": "view",
      "type": "function",
      "constant": true
    },
    {
      "inputs": [
        {
          "internalType": "uint256",
          "name": "proposalId",
          "type": "uint256"
        }
      ],
      "name": "getProposal",
      "outputs": [
        {
          "components": [
            {
              "internalType": "uint256",
              "name": "id",
              "type": "uint256"
            },
            {
              "internalType": "uint256",
              "name": "amount",
              "type": "uint256"
            },
            {
              "internalType": "uint256",
              "name": "duration",
              "type": "uint256"
            },
            {
              "internalType": "uint256",
              "name": "upvotes",
              "type": "uint256"
            },
            {
              "internalType": "uint256",
              "name": "downvotes",
              "type": "uint256"
            },
            {
              "internalType": "string",
              "name": "title",
              "type": "string"
            },
            {
              "internalType": "string",
              "name": "description",
              "type": "string"
            },
            {
              "internalType": "bool",
              "name": "passed",
              "type": "bool"
            },
            {
              "internalType": "bool",
              "name": "paid",
              "type": "bool"
            },
            {
              "internalType": "address payable",
              "name": "beneficiary",
              "type": "address"
            },
            {
              "internalType": "address",
              "name": "proposer",
              "type": "address"
            },
            {
              "internalType": "address",
              "name": "executor",
              "type": "address"
            }
          ],
          "internalType": "struct DominionDAO.ProposalStruct",
          "name": "",
          "type": "tuple"
        }
      ],
      "stateMutability": "view",
      "type": "function",
      "constant": true
    },
    {
      "inputs": [
        {
          "internalType": "uint256",
          "name": "proposalId",
          "type": "uint256"
        }
      ],
      "name": "getVotesOf",
      "outputs": [
        {
          "components": [
            {
              "internalType": "address",
              "name": "voter",
              "type": "address"
            },
            {
              "internalType": "uint256",
              "name": "timestamp",
              "type": "uint256"
            },
            {
              "internalType": "bool",
              "name": "choosen",
              "type": "bool"
            }
          ],
          "internalType": "struct DominionDAO.VotedStruct[]",
          "name": "",
          "type": "tuple[]"
        }
      ],
      "stateMutability": "view",
      "type": "function",
      "constant": true
    },
    {
      "inputs": [],
      "name": "getStakeholderVotes",
      "outputs": [
        {
          "internalType": "uint256[]",
          "name": "",
          "type": "uint256[]"
        }
      ],
      "stateMutability": "view",
      "type": "function",
      "constant": true
    },
    {
      "inputs": [],
      "name": "getStakeholderBalance",
      "outputs": [
        {
          "internalType": "uint256",
          "name": "",
          "type": "uint256"
        }
      ],
      "stateMutability": "view",
      "type": "function",
      "constant": true
    },
    {
      "inputs": [],
      "name": "isStakeholder",
      "outputs": [
        {
          "internalType": "bool",
          "name": "",
          "type": "bool"
        }
      ],
      "stateMutability": "view",
      "type": "function",
      "constant": true
    },
    {
      "inputs": [],
      "name": "getContributorBalance",
      "outputs": [
        {
          "internalType": "uint256",
          "name": "",
          "type": "uint256"
        }
      ],
      "stateMutability": "view",
      "type": "function",
      "constant": true
    },
    {
      "inputs": [],
      "name": "isContributor",
      "outputs": [
        {
          "internalType": "bool",
          "name": "",
          "type": "bool"
        }
      ],
      "stateMutability": "view",
      "type": "function",
      "constant": true
    },
    {
      "inputs": [],
      "name": "getBalance",
      "outputs": [
        {
          "internalType": "uint256",
          "name": "",
          "type": "uint256"
        }
      ],
      "stateMutability": "view",
      "type": "function",
      "constant": true
    }
  ],
  "bytecode": "0x60e06040527fa0bb1af1c90aa52ed052b92714ff0087008cc720049bf1af77cca2600b31e80c6080908152507ff4bb84e1768dd286358a736d195a0b228621173f655a73b89bf8b191ed0ba07d60a09081525062093a8063ffffffff1660c09063ffffffff1681525034801561007457600080fd5b50600160008190555060805160a05160c051613abc61010060003960006111360152600081816105ae0152818161087d01528181610f0e01528181610fda015281816112af015281816113e60152818161167301528181611a2d01528181611b530152611d450152600081816109ed015281816111bf01528181611b7d0152611c020152613abc6000f3fe60806040526004361061012a5760003560e01c80637cdc2eb7116100ab578063bd9728161161006f578063bd97281614610406578063c02146ac14610431578063c7f758a81461045c578063d547741f14610499578063d6cc8016146104c2578063d7bb99ba146104ed5761012a565b80637cdc2eb71461032157806391d148541461034a578063a217fddf14610387578063a22f1db7146103b2578063b31f111c146103dd5761012a565b806336568abe116100f257806336568abe1461023a5780633cdb48c21461026357806362564c481461028e57806369a136dc146102b95780636a80d84d146102f65761012a565b806301ffc9a71461012f578063119c37c81461016c57806312065fe0146101a9578063248a9ca3146101d45780632f2ff15d14610211575b600080fd5b34801561013b57600080fd5b50610156600480360381019061015191906126a5565b6104f7565b60405161016391906126ed565b60405180910390f35b34801561017857600080fd5b50610193600480360381019061018e919061273e565b610571565b6040516101a091906126ed565b60405180910390f35b3480156101b557600080fd5b506101be6108c2565b6040516101cb919061277a565b60405180910390f35b3480156101e057600080fd5b506101fb60048036038101906101f691906127cb565b610909565b6040516102089190612807565b60405180910390f35b34801561021d57600080fd5b5061023860048036038101906102339190612880565b610929565b005b34801561024657600080fd5b50610261600480360381019061025c9190612880565b61094a565b005b34801561026f57600080fd5b506102786109cd565b604051610285919061277a565b60405180910390f35b34801561029a57600080fd5b506102a3610a9b565b6040516102b09190612b74565b60405180910390f35b3480156102c557600080fd5b506102e060048036038101906102db919061273e565b610de4565b6040516102ed9190612c87565b60405180910390f35b34801561030257600080fd5b5061030b610ed1565b604051610318919061277a565b60405180910390f35b34801561032d57600080fd5b5061034860048036038101906103439190612d0e565b610fbc565b005b34801561035657600080fd5b50610371600480360381019061036c9190612880565b611200565b60405161037e91906126ed565b60405180910390f35b34801561039357600080fd5b5061039c61126b565b6040516103a99190612807565b60405180910390f35b3480156103be57600080fd5b506103c7611272565b6040516103d49190612e64565b60405180910390f35b3480156103e957600080fd5b5061040460048036038101906103ff9190612eb2565b6113ab565b005b34801561041257600080fd5b5061041b6116b3565b604051610428919061277a565b60405180910390f35b34801561043d57600080fd5b506104466116b9565b60405161045391906126ed565b60405180910390f35b34801561046857600080fd5b50610483600480360381019061047e919061273e565b611702565b6040516104909190612ffd565b60405180910390f35b3480156104a557600080fd5b506104c060048036038101906104bb9190612880565b6119be565b005b3480156104ce57600080fd5b506104d76119df565b6040516104e491906126ed565b60405180910390f35b6104f5611a28565b005b60007f7965db0b000000000000000000000000000000000000000000000000000000007bffffffffffffffffffffffffffffffffffffffffffffffffffffffff1916827bffffffffffffffffffffffffffffffffffffffffffffffffffffffff1916148061056a575061056982611d7d565b5b9050919050565b60006040518060400160405280601f81526020017f556e617574686f72697a65643a205374616b65686f6c64657273206f6e6c79008152506105d37f000000000000000000000000000000000000000000000000000000000000000033611200565b8190610615576040517f08c379a000000000000000000000000000000000000000000000000000000000815260040161060c9190613069565b60405180910390fd5b50600060046000858152602001908152602001600020905080600101546003541015610676576040517f08c379a000000000000000000000000000000000000000000000000000000000815260040161066d906130d7565b60405180910390fd5b806002015442116106bc576040517f08c379a00000000000000000000000000000000000000000000000000000000081526004016106b390613143565b60405180910390fd5b8060070160019054906101000a900460ff161561070e576040517f08c379a0000000000000000000000000000000000000000000000000000000008152600401610705906131af565b60405180910390fd5b8060040154816003015411610758576040517f08c379a000000000000000000000000000000000000000000000000000000000815260040161074f9061321b565b60405180910390fd5b61078a8160070160029054906101000a900473ffffffffffffffffffffffffffffffffffffffff168260010154611de7565b5060018160070160016101000a81548160ff021916908315150217905550338160090160006101000a81548173ffffffffffffffffffffffffffffffffffffffff021916908373ffffffffffffffffffffffffffffffffffffffff160217905550806001015460036000828254610801919061326a565b925050819055508060070160029054906101000a900473ffffffffffffffffffffffffffffffffffffffff1673ffffffffffffffffffffffffffffffffffffffff163373ffffffffffffffffffffffffffffffffffffffff167fa596782d699d74613fcbf59d33e720baabd313d6be9c95e2268f305430305eb77f000000000000000000000000000000000000000000000000000000000000000084600101546040516108af9291906132ea565b60405180910390a3600192505050919050565b6000600760003373ffffffffffffffffffffffffffffffffffffffff1673ffffffffffffffffffffffffffffffffffffffff16815260200190815260200160002054905090565b600060016000838152602001908152602001600020600101549050919050565b61093282610909565b61093b81611e9f565b6109458383611eb3565b505050565b610952611f93565b73ffffffffffffffffffffffffffffffffffffffff168173ffffffffffffffffffffffffffffffffffffffff16146109bf576040517f08c379a00000000000000000000000000000000000000000000000000000000081526004016109b690613398565b60405180910390fd5b6109c98282611f9b565b5050565b6000604051806060016040528060218152602001613a3760219139610a127f000000000000000000000000000000000000000000000000000000000000000033611200565b8190610a54576040517f08c379a0000000000000000000000000000000000000000000000000000000008152600401610a4b9190613069565b60405180910390fd5b50600760003373ffffffffffffffffffffffffffffffffffffffff1673ffffffffffffffffffffffffffffffffffffffff1681526020019081526020016000205491505090565b606060025467ffffffffffffffff811115610ab957610ab86133b8565b5b604051908082528060200260200182016040528015610af257816020015b610adf6124f9565b815260200190600190039081610ad75790505b50905060005b600254811015610de05760046000828152602001908152602001600020604051806101800160405290816000820154815260200160018201548152602001600282015481526020016003820154815260200160048201548152602001600582018054610b6390613416565b80601f0160208091040260200160405190810160405280929190818152602001828054610b8f90613416565b8015610bdc5780601f10610bb157610100808354040283529160200191610bdc565b820191906000526020600020905b815481529060010190602001808311610bbf57829003601f168201915b50505050508152602001600682018054610bf590613416565b80601f0160208091040260200160405190810160405280929190818152602001828054610c2190613416565b8015610c6e5780601f10610c4357610100808354040283529160200191610c6e565b820191906000526020600020905b815481529060010190602001808311610c5157829003601f168201915b505050505081526020016007820160009054906101000a900460ff161515151581526020016007820160019054906101000a900460ff161515151581526020016007820160029054906101000a900473ffffffffffffffffffffffffffffffffffffffff1673ffffffffffffffffffffffffffffffffffffffff1673ffffffffffffffffffffffffffffffffffffffff1681526020016008820160009054906101000a900473ffffffffffffffffffffffffffffffffffffffff1673ffffffffffffffffffffffffffffffffffffffff1673ffffffffffffffffffffffffffffffffffffffff1681526020016009820160009054906101000a900473ffffffffffffffffffffffffffffffffffffffff1673ffffffffffffffffffffffffffffffffffffffff1673ffffffffffffffffffffffffffffffffffffffff1681525050828281518110610dc257610dc1613448565b5b60200260200101819052508080610dd890613477565b915050610af8565b5090565b606060066000838152602001908152602001600020805480602002602001604051908101604052809291908181526020016000905b82821015610ec657838290600052602060002090600302016040518060600160405290816000820160009054906101000a900473ffffffffffffffffffffffffffffffffffffffff1673ffffffffffffffffffffffffffffffffffffffff1673ffffffffffffffffffffffffffffffffffffffff168152602001600182015481526020016002820160009054906101000a900460ff16151515158152505081526020019060010190610e19565b505050509050919050565b60006040518060400160405280601f81526020017f556e617574686f72697a65643a206e6f742061207374616b65686f6c64657200815250610f337f000000000000000000000000000000000000000000000000000000000000000033611200565b8190610f75576040517f08c379a0000000000000000000000000000000000000000000000000000000008152600401610f6c9190613069565b60405180910390fd5b50600860003373ffffffffffffffffffffffffffffffffffffffff1673ffffffffffffffffffffffffffffffffffffffff1681526020019081526020016000205491505090565b6040518060600160405280602f8152602001613a58602f9139610fff7f000000000000000000000000000000000000000000000000000000000000000033611200565b8190611041576040517f08c379a00000000000000000000000000000000000000000000000000000000081526004016110389190613069565b60405180910390fd5b5060006002600081548092919061105790613477565b9190505590506000600460008381526020019081526020016000209050818160000181905550338160080160006101000a81548173ffffffffffffffffffffffffffffffffffffffff021916908373ffffffffffffffffffffffffffffffffffffffff16021790555088888260050191906110d39291906125a0565b5086868260060191906110e79291906125a0565b50848160070160026101000a81548173ffffffffffffffffffffffffffffffffffffffff021916908373ffffffffffffffffffffffffffffffffffffffff1602179055508381600101819055507f000000000000000000000000000000000000000000000000000000000000000063ffffffff164261116691906134c0565b81600201819055508473ffffffffffffffffffffffffffffffffffffffff163373ffffffffffffffffffffffffffffffffffffffff167fa596782d699d74613fcbf59d33e720baabd313d6be9c95e2268f305430305eb77f0000000000000000000000000000000000000000000000000000000000000000876040516111ed929190613562565b60405180910390a3505050505050505050565b60006001600084815260200190815260200160002060000160008373ffffffffffffffffffffffffffffffffffffffff1673ffffffffffffffffffffffffffffffffffffffff16815260200190815260200160002060009054906101000a900460ff16905092915050565b6000801b81565b60606040518060400160405280601f81526020017f556e617574686f72697a65643a206e6f742061207374616b65686f6c646572008152506112d47f000000000000000000000000000000000000000000000000000000000000000033611200565b8190611316576040517f08c379a000000000000000000000000000000000000000000000000000000000815260040161130d9190613069565b60405180910390fd5b50600560003373ffffffffffffffffffffffffffffffffffffffff1673ffffffffffffffffffffffffffffffffffffffff1681526020019081526020016000208054806020026020016040519081016040528092919081815260200182805480156113a057602002820191906000526020600020905b81548152602001906001019080831161138c575b505050505091505090565b6040518060400160405280601f81526020017f556e617574686f72697a65643a205374616b65686f6c64657273206f6e6c790081525061140b7f000000000000000000000000000000000000000000000000000000000000000033611200565b819061144d576040517f08c379a00000000000000000000000000000000000000000000000000000000081526004016114449190613069565b60405180910390fd5b50600060046000858152602001908152602001600020905061146e8161207d565b82156114935780600301600081548092919061148990613477565b91905055506114ae565b8060040160008154809291906114a890613477565b91905055505b600560003373ffffffffffffffffffffffffffffffffffffffff1673ffffffffffffffffffffffffffffffffffffffff16815260200190815260200160002081600001549080600181540180825580915050600190039060005260206000200160009091909190915055600660008260000154815260200190815260200160002060405180606001604052803373ffffffffffffffffffffffffffffffffffffffff168152602001428152602001851515815250908060018154018082558091505060019003906000526020600020906003020160009091909190915060008201518160000160006101000a81548173ffffffffffffffffffffffffffffffffffffffff021916908373ffffffffffffffffffffffffffffffffffffffff1602179055506020820151816001015560408201518160020160006101000a81548160ff02191690831515021790555050508060070160029054906101000a900473ffffffffffffffffffffffffffffffffffffffff1673ffffffffffffffffffffffffffffffffffffffff163373ffffffffffffffffffffffffffffffffffffffff167fa596782d699d74613fcbf59d33e720baabd313d6be9c95e2268f305430305eb77f000000000000000000000000000000000000000000000000000000000000000084600101546040516116a59291906135ea565b60405180910390a350505050565b60035481565b600080600860003373ffffffffffffffffffffffffffffffffffffffff1673ffffffffffffffffffffffffffffffffffffffff1681526020019081526020016000205411905090565b61170a6124f9565b6004600083815260200190815260200160002060405180610180016040529081600082015481526020016001820154815260200160028201548152602001600382015481526020016004820154815260200160058201805461176b90613416565b80601f016020809104026020016040519081016040528092919081815260200182805461179790613416565b80156117e45780601f106117b9576101008083540402835291602001916117e4565b820191906000526020600020905b8154815290600101906020018083116117c757829003601f168201915b505050505081526020016006820180546117fd90613416565b80601f016020809104026020016040519081016040528092919081815260200182805461182990613416565b80156118765780601f1061184b57610100808354040283529160200191611876565b820191906000526020600020905b81548152906001019060200180831161185957829003601f168201915b505050505081526020016007820160009054906101000a900460ff161515151581526020016007820160019054906101000a900460ff161515151581526020016007820160029054906101000a900473ffffffffffffffffffffffffffffffffffffffff1673ffffffffffffffffffffffffffffffffffffffff1673ffffffffffffffffffffffffffffffffffffffff1681526020016008820160009054906101000a900473ffffffffffffffffffffffffffffffffffffffff1673ffffffffffffffffffffffffffffffffffffffff1673ffffffffffffffffffffffffffffffffffffffff1681526020016009820160009054906101000a900473ffffffffffffffffffffffffffffffffffffffff1673ffffffffffffffffffffffffffffffffffffffff1673ffffffffffffffffffffffffffffffffffffffff16815250509050919050565b6119c782610909565b6119d081611e9f565b6119da8383611f9b565b505050565b600080600760003373ffffffffffffffffffffffffffffffffffffffff1673ffffffffffffffffffffffffffffffffffffffff1681526020019081526020016000205411905090565b611a527f000000000000000000000000000000000000000000000000000000000000000033611200565b611c2e57600034600760003373ffffffffffffffffffffffffffffffffffffffff1673ffffffffffffffffffffffffffffffffffffffff16815260200190815260200160002054611aa391906134c0565b9050674563918244f400008110611ba75780600860003373ffffffffffffffffffffffffffffffffffffffff1673ffffffffffffffffffffffffffffffffffffffff1681526020019081526020016000208190555034600760003373ffffffffffffffffffffffffffffffffffffffff1673ffffffffffffffffffffffffffffffffffffffff1681526020019081526020016000206000828254611b4791906134c0565b92505081905550611b787f000000000000000000000000000000000000000000000000000000000000000033612212565b611ba27f000000000000000000000000000000000000000000000000000000000000000033612212565b611c28565b34600760003373ffffffffffffffffffffffffffffffffffffffff1673ffffffffffffffffffffffffffffffffffffffff1681526020019081526020016000206000828254611bf691906134c0565b92505081905550611c277f000000000000000000000000000000000000000000000000000000000000000033612212565b5b50611cdb565b34600760003373ffffffffffffffffffffffffffffffffffffffff1673ffffffffffffffffffffffffffffffffffffffff1681526020019081526020016000206000828254611c7d91906134c0565b9250508190555034600860003373ffffffffffffffffffffffffffffffffffffffff1673ffffffffffffffffffffffffffffffffffffffff1681526020019081526020016000206000828254611cd391906134c0565b925050819055505b3460036000828254611ced91906134c0565b925050819055503073ffffffffffffffffffffffffffffffffffffffff163373ffffffffffffffffffffffffffffffffffffffff167fa596782d699d74613fcbf59d33e720baabd313d6be9c95e2268f305430305eb77f000000000000000000000000000000000000000000000000000000000000000034604051611d73929190613672565b60405180910390a3565b60007f01ffc9a7000000000000000000000000000000000000000000000000000000007bffffffffffffffffffffffffffffffffffffffffffffffffffffffff1916827bffffffffffffffffffffffffffffffffffffffffffffffffffffffff1916149050919050565b6000808373ffffffffffffffffffffffffffffffffffffffff1683604051611e0e906136df565b60006040518083038185875af1925050503d8060008114611e4b576040519150601f19603f3d011682016040523d82523d6000602084013e611e50565b606091505b5050905080611e94576040517f08c379a0000000000000000000000000000000000000000000000000000000008152600401611e8b90613740565b60405180910390fd5b600191505092915050565b611eb081611eab611f93565b612220565b50565b611ebd8282611200565b611f8f57600180600084815260200190815260200160002060000160008373ffffffffffffffffffffffffffffffffffffffff1673ffffffffffffffffffffffffffffffffffffffff16815260200190815260200160002060006101000a81548160ff021916908315150217905550611f34611f93565b73ffffffffffffffffffffffffffffffffffffffff168173ffffffffffffffffffffffffffffffffffffffff16837f2f8788117e7eff1d82e926ec794901d17c78024a50270940304540a733656f0d60405160405180910390a45b5050565b600033905090565b611fa58282611200565b156120795760006001600084815260200190815260200160002060000160008373ffffffffffffffffffffffffffffffffffffffff1673ffffffffffffffffffffffffffffffffffffffff16815260200190815260200160002060006101000a81548160ff02191690831515021790555061201e611f93565b73ffffffffffffffffffffffffffffffffffffffff168173ffffffffffffffffffffffffffffffffffffffff16837ff6391f5c32d9c69d2a47ea670b442974b53935d1edc7fd64eb21e047a839171b60405160405180910390a45b5050565b8060070160009054906101000a900460ff168061209e575042816002015411155b156120fb5760018160070160006101000a81548160ff0219169083151502179055506040517f08c379a00000000000000000000000000000000000000000000000000000000081526004016120f2906137ac565b60405180910390fd5b6000600560003373ffffffffffffffffffffffffffffffffffffffff1673ffffffffffffffffffffffffffffffffffffffff16815260200190815260200160002080548060200260200160405190810160405280929190818152602001828054801561218657602002820191906000526020600020905b815481526020019060010190808311612172575b5050505050905060005b815181101561220d578181815181106121ac576121ab613448565b5b6020026020010151836000015414156121fa576040517f08c379a00000000000000000000000000000000000000000000000000000000081526004016121f190613818565b60405180910390fd5b808061220590613477565b915050612190565b505050565b61221c8282611eb3565b5050565b61222a8282611200565b6122b95761224f8173ffffffffffffffffffffffffffffffffffffffff1660146122bd565b61225d8360001c60206122bd565b60405160200161226e92919061390c565b6040516020818303038152906040526040517f08c379a00000000000000000000000000000000000000000000000000000000081526004016122b09190613069565b60405180910390fd5b5050565b6060600060028360026122d09190613946565b6122da91906134c0565b67ffffffffffffffff8111156122f3576122f26133b8565b5b6040519080825280601f01601f1916602001820160405280156123255781602001600182028036833780820191505090505b5090507f30000000000000000000000000000000000000000000000000000000000000008160008151811061235d5761235c613448565b5b60200101907effffffffffffffffffffffffffffffffffffffffffffffffffffffffffffff1916908160001a9053507f7800000000000000000000000000000000000000000000000000000000000000816001815181106123c1576123c0613448565b5b60200101907effffffffffffffffffffffffffffffffffffffffffffffffffffffffffffff1916908160001a905350600060018460026124019190613946565b61240b91906134c0565b90505b60018111156124ab577f3031323334353637383961626364656600000000000000000000000000000000600f86166010811061244d5761244c613448565b5b1a60f81b82828151811061246457612463613448565b5b60200101907effffffffffffffffffffffffffffffffffffffffffffffffffffffffffffff1916908160001a905350600485901c9450806124a4906139a0565b905061240e565b50600084146124ef576040517f08c379a00000000000000000000000000000000000000000000000000000000081526004016124e690613a16565b60405180910390fd5b8091505092915050565b60405180610180016040528060008152602001600081526020016000815260200160008152602001600081526020016060815260200160608152602001600015158152602001600015158152602001600073ffffffffffffffffffffffffffffffffffffffff168152602001600073ffffffffffffffffffffffffffffffffffffffff168152602001600073ffffffffffffffffffffffffffffffffffffffff1681525090565b8280546125ac90613416565b90600052602060002090601f0160209004810192826125ce5760008555612615565b82601f106125e757803560ff1916838001178555612615565b82800160010185558215612615579182015b828111156126145782358255916020019190600101906125f9565b5b5090506126229190612626565b5090565b5b8082111561263f576000816000905550600101612627565b5090565b600080fd5b600080fd5b60007fffffffff0000000000000000000000000000000000000000000000000000000082169050919050565b6126828161264d565b811461268d57600080fd5b50565b60008135905061269f81612679565b92915050565b6000602082840312156126bb576126ba612643565b5b60006126c984828501612690565b91505092915050565b60008115159050919050565b6126e7816126d2565b82525050565b600060208201905061270260008301846126de565b92915050565b6000819050919050565b61271b81612708565b811461272657600080fd5b50565b60008135905061273881612712565b92915050565b60006020828403121561275457612753612643565b5b600061276284828501612729565b91505092915050565b61277481612708565b82525050565b600060208201905061278f600083018461276b565b92915050565b6000819050919050565b6127a881612795565b81146127b357600080fd5b50565b6000813590506127c58161279f565b92915050565b6000602082840312156127e1576127e0612643565b5b60006127ef848285016127b6565b91505092915050565b61280181612795565b82525050565b600060208201905061281c60008301846127f8565b92915050565b600073ffffffffffffffffffffffffffffffffffffffff82169050919050565b600061284d82612822565b9050919050565b61285d81612842565b811461286857600080fd5b50565b60008135905061287a81612854565b92915050565b6000806040838503121561289757612896612643565b5b60006128a5858286016127b6565b92505060206128b68582860161286b565b9150509250929050565b600081519050919050565b600082825260208201905092915050565b6000819050602082019050919050565b6128f581612708565b82525050565b600081519050919050565b600082825260208201905092915050565b60005b8381101561293557808201518184015260208101905061291a565b83811115612944576000848401525b50505050565b6000601f19601f8301169050919050565b6000612966826128fb565b6129708185612906565b9350612980818560208601612917565b6129898161294a565b840191505092915050565b61299d816126d2565b82525050565b60006129ae82612822565b9050919050565b6129be816129a3565b82525050565b6129cd81612842565b82525050565b6000610180830160008301516129ec60008601826128ec565b5060208301516129ff60208601826128ec565b506040830151612a1260408601826128ec565b506060830151612a2560608601826128ec565b506080830151612a3860808601826128ec565b5060a083015184820360a0860152612a50828261295b565b91505060c083015184820360c0860152612a6a828261295b565b91505060e0830151612a7f60e0860182612994565b50610100830151612a94610100860182612994565b50610120830151612aa96101208601826129b5565b50610140830151612abe6101408601826129c4565b50610160830151612ad36101608601826129c4565b508091505092915050565b6000612aea83836129d3565b905092915050565b6000602082019050919050565b6000612b0a826128c0565b612b1481856128cb565b935083602082028501612b26856128dc565b8060005b85811015612b625784840389528151612b438582612ade565b9450612b4e83612af2565b925060208a01995050600181019050612b2a565b50829750879550505050505092915050565b60006020820190508181036000830152612b8e8184612aff565b905092915050565b600081519050919050565b600082825260208201905092915050565b6000819050602082019050919050565b606082016000820151612bd860008501826129c4565b506020820151612beb60208501826128ec565b506040820151612bfe6040850182612994565b50505050565b6000612c108383612bc2565b60608301905092915050565b6000602082019050919050565b6000612c3482612b96565b612c3e8185612ba1565b9350612c4983612bb2565b8060005b83811015612c7a578151612c618882612c04565b9750612c6c83612c1c565b925050600181019050612c4d565b5085935050505092915050565b60006020820190508181036000830152612ca18184612c29565b905092915050565b600080fd5b600080fd5b600080fd5b60008083601f840112612cce57612ccd612ca9565b5b8235905067ffffffffffffffff811115612ceb57612cea612cae565b5b602083019150836001820283011115612d0757612d06612cb3565b5b9250929050565b60008060008060008060808789031215612d2b57612d2a612643565b5b600087013567ffffffffffffffff811115612d4957612d48612648565b5b612d5589828a01612cb8565b9650965050602087013567ffffffffffffffff811115612d7857612d77612648565b5b612d8489828a01612cb8565b94509450506040612d9789828a0161286b565b9250506060612da889828a01612729565b9150509295509295509295565b600081519050919050565b600082825260208201905092915050565b6000819050602082019050919050565b6000612ded83836128ec565b60208301905092915050565b6000602082019050919050565b6000612e1182612db5565b612e1b8185612dc0565b9350612e2683612dd1565b8060005b83811015612e57578151612e3e8882612de1565b9750612e4983612df9565b925050600181019050612e2a565b5085935050505092915050565b60006020820190508181036000830152612e7e8184612e06565b905092915050565b612e8f816126d2565b8114612e9a57600080fd5b50565b600081359050612eac81612e86565b92915050565b60008060408385031215612ec957612ec8612643565b5b6000612ed785828601612729565b9250506020612ee885828601612e9d565b9150509250929050565b600061018083016000830151612f0b60008601826128ec565b506020830151612f1e60208601826128ec565b506040830151612f3160408601826128ec565b506060830151612f4460608601826128ec565b506080830151612f5760808601826128ec565b5060a083015184820360a0860152612f6f828261295b565b91505060c083015184820360c0860152612f89828261295b565b91505060e0830151612f9e60e0860182612994565b50610100830151612fb3610100860182612994565b50610120830151612fc86101208601826129b5565b50610140830151612fdd6101408601826129c4565b50610160830151612ff26101608601826129c4565b508091505092915050565b600060208201905081810360008301526130178184612ef2565b905092915050565b600082825260208201905092915050565b600061303b826128fb565b613045818561301f565b9350613055818560208601612917565b61305e8161294a565b840191505092915050565b600060208201905081810360008301526130838184613030565b905092915050565b7f496e73756666696369656e742066756e64000000000000000000000000000000600082015250565b60006130c160118361301f565b91506130cc8261308b565b602082019050919050565b600060208201905081810360008301526130f0816130b4565b9050919050565b7f50726f706f73616c207374696c6c206f6e676f696e6700000000000000000000600082015250565b600061312d60168361301f565b9150613138826130f7565b602082019050919050565b6000602082019050818103600083015261315c81613120565b9050919050565b7f5061796d656e742073656e74206265666f726500000000000000000000000000600082015250565b600061319960138361301f565b91506131a482613163565b602082019050919050565b600060208201905081810360008301526131c88161318c565b9050919050565b7f496e73756666696369656e7420766f7465730000000000000000000000000000600082015250565b600061320560128361301f565b9150613210826131cf565b602082019050919050565b60006020820190508181036000830152613234816131f8565b9050919050565b7f4e487b7100000000000000000000000000000000000000000000000000000000600052601160045260246000fd5b600061327582612708565b915061328083612708565b9250828210156132935761329261323b565b5b828203905092915050565b7f5041594d454e54205452414e5346455245440000000000000000000000000000600082015250565b60006132d460128361301f565b91506132df8261329e565b602082019050919050565b60006060820190506132ff60008301856127f8565b8181036020830152613310816132c7565b905061331f604083018461276b565b9392505050565b7f416363657373436f6e74726f6c3a2063616e206f6e6c792072656e6f756e636560008201527f20726f6c657320666f722073656c660000000000000000000000000000000000602082015250565b6000613382602f8361301f565b915061338d82613326565b604082019050919050565b600060208201905081810360008301526133b181613375565b9050919050565b7f4e487b7100000000000000000000000000000000000000000000000000000000600052604160045260246000fd5b7f4e487b7100000000000000000000000000000000000000000000000000000000600052602260045260246000fd5b6000600282049050600182168061342e57607f821691505b60208210811415613442576134416133e7565b5b50919050565b7f4e487b7100000000000000000000000000000000000000000000000000000000600052603260045260246000fd5b600061348282612708565b91507fffffffffffffffffffffffffffffffffffffffffffffffffffffffffffffffff8214156134b5576134b461323b565b5b600182019050919050565b60006134cb82612708565b91506134d683612708565b9250827fffffffffffffffffffffffffffffffffffffffffffffffffffffffffffffffff0382111561350b5761350a61323b565b5b828201905092915050565b7f50524f504f53414c205241495345440000000000000000000000000000000000600082015250565b600061354c600f8361301f565b915061355782613516565b602082019050919050565b600060608201905061357760008301856127f8565b81810360208301526135888161353f565b9050613597604083018461276b565b9392505050565b7f50524f504f53414c20564f544500000000000000000000000000000000000000600082015250565b60006135d4600d8361301f565b91506135df8261359e565b602082019050919050565b60006060820190506135ff60008301856127f8565b8181036020830152613610816135c7565b905061361f604083018461276b565b9392505050565b7f434f4e545249425554494f4e2052454345495645440000000000000000000000600082015250565b600061365c60158361301f565b915061366782613626565b602082019050919050565b600060608201905061368760008301856127f8565b81810360208301526136988161364f565b90506136a7604083018461276b565b9392505050565b600081905092915050565b50565b60006136c96000836136ae565b91506136d4826136b9565b600082019050919050565b60006136ea826136bc565b9150819050919050565b7f5061796d656e74206661696c6564000000000000000000000000000000000000600082015250565b600061372a600e8361301f565b9150613735826136f4565b602082019050919050565b600060208201905081810360008301526137598161371d565b9050919050565b7f50726f706f73616c206475726174696f6e206578706972656400000000000000600082015250565b600061379660198361301f565b91506137a182613760565b602082019050919050565b600060208201905081810360008301526137c581613789565b9050919050565b7f446f75626c6520766f74696e67206e6f7420616c6c6f77656400000000000000600082015250565b600061380260198361301f565b915061380d826137cc565b602082019050919050565b60006020820190508181036000830152613831816137f5565b9050919050565b600081905092915050565b7f416363657373436f6e74726f6c3a206163636f756e7420000000000000000000600082015250565b6000613879601783613838565b915061388482613843565b601782019050919050565b600061389a826128fb565b6138a48185613838565b93506138b4818560208601612917565b80840191505092915050565b7f206973206d697373696e6720726f6c6520000000000000000000000000000000600082015250565b60006138f6601183613838565b9150613901826138c0565b601182019050919050565b60006139178261386c565b9150613923828561388f565b915061392e826138e9565b915061393a828461388f565b91508190509392505050565b600061395182612708565b915061395c83612708565b9250817fffffffffffffffffffffffffffffffffffffffffffffffffffffffffffffffff04831182151516156139955761399461323b565b5b828202905092915050565b60006139ab82612708565b915060008214156139bf576139be61323b565b5b600182039050919050565b7f537472696e67733a20686578206c656e67746820696e73756666696369656e74600082015250565b6000613a0060208361301f565b9150613a0b826139ca565b602082019050919050565b60006020820190508181036000830152613a2f816139f3565b905091905056fe44656e6965643a2055736572206973206e6f74206120636f6e7472696275746f7250726f706f73616c204372656174696f6e20416c6c6f77656420666f72205374616b65686f6c64657273206f6e6c79a2646970667358221220a2f007f1ac9937323e6409d501afa5ab90e1779c00adc19b93e7bf3c3ea3936564736f6c634300080b0033",
  "immutableReferences": {
    "706": [
      {
        "length": 32,
        "start": 2541
      },
      {
        "length": 32,
        "start": 4543
      },
      {
        "length": 32,
        "start": 7037
      },
      {
        "length": 32,
        "start": 7170
      }
    ],
    "711": [
      {
        "length": 32,
        "start": 1454
      },
      {
        "length": 32,
        "start": 2173
      },
      {
        "length": 32,
        "start": 3854
      },
      {
        "length": 32,
        "start": 4058
      },
      {
        "length": 32,
        "start": 4783
      },
      {
        "length": 32,
        "start": 5094
      },
      {
        "length": 32,
        "start": 5747
      },
      {
        "length": 32,
        "start": 6701
      },
      {
        "length": 32,
        "start": 6995
      },
      {
        "length": 32,
        "start": 7493
      }
    ],
    "714": [
      {
        "length": 32,
        "start": 4406
      }
    ]
  },
  "source": "// SPDX-License-Identifier: MIT\r\npragma solidity ^0.8.7;\r\n\r\nimport \"@openzeppelin/contracts/access/AccessControl.sol\";\r\nimport \"@openzeppelin/contracts/security/ReentrancyGuard.sol\";\r\n\r\ncontract DominionDAO is ReentrancyGuard, AccessControl {\r\n    bytes32 private immutable CONTRIBUTOR_ROLE = keccak256(\"CONTRIBUTOR\");\r\n    bytes32 private immutable STAKEHOLDER_ROLE = keccak256(\"STAKEHOLDER\");\r\n    uint32 immutable MIN_VOTE_DURATION = 1 weeks;\r\n    uint256 totalProposals;\r\n    uint256 public daoBalance;\r\n\r\n    mapping(uint256 => ProposalStruct) private raisedProposals;\r\n    mapping(address => uint256[]) private stakeholderVotes;\r\n    mapping(uint256 => VotedStruct[]) private votedOn;\r\n    mapping(address => uint256) private contributors;\r\n    mapping(address => uint256) private stakeholders;\r\n\r\n    struct ProposalStruct {\r\n        uint256 id;\r\n        uint256 amount;\r\n        uint256 duration;\r\n        uint256 upvotes;\r\n        uint256 downvotes;\r\n        string title;\r\n        string description;\r\n        bool passed;\r\n        bool paid;\r\n        address payable beneficiary;\r\n        address proposer;\r\n        address executor;\r\n    }\r\n\r\n    struct VotedStruct {\r\n        address voter;\r\n        uint256 timestamp;\r\n        bool choosen;\r\n    }\r\n\r\n    event Action(\r\n        address indexed initiator,\r\n        bytes32 role,\r\n        string message,\r\n        address indexed beneficiary,\r\n        uint256 amount\r\n    );\r\n\r\n    modifier stakeholderOnly(string memory message) {\r\n        require(hasRole(STAKEHOLDER_ROLE, msg.sender), message);\r\n        _;\r\n    }\r\n\r\n    modifier contributorOnly(string memory message) {\r\n        require(hasRole(CONTRIBUTOR_ROLE, msg.sender), message);\r\n        _;\r\n    }\r\n\r\n    function createProposal(\r\n        string calldata title,\r\n        string calldata description,\r\n        address beneficiary,\r\n        uint256 amount\r\n    )external\r\n     stakeholderOnly(\"Proposal Creation Allowed for Stakeholders only\")\r\n    {\r\n        uint256 proposalId = totalProposals++;\r\n        ProposalStruct storage proposal = raisedProposals[proposalId];\r\n\r\n        proposal.id = proposalId;\r\n        proposal.proposer = payable(msg.sender);\r\n        proposal.title = title;\r\n        proposal.description = description;\r\n        proposal.beneficiary = payable(beneficiary);\r\n        proposal.amount = amount;\r\n        proposal.duration = block.timestamp + MIN_VOTE_DURATION;\r\n\r\n        emit Action(\r\n            msg.sender,\r\n            CONTRIBUTOR_ROLE,\r\n            \"PROPOSAL RAISED\",\r\n            beneficiary,\r\n            amount\r\n        );\r\n    }\r\n\r\n    function performVote(uint256 proposalId, bool choosen)\r\n        external\r\n        stakeholderOnly(\"Unauthorized: Stakeholders only\")\r\n    {\r\n        ProposalStruct storage proposal = raisedProposals[proposalId];\r\n\r\n        handleVoting(proposal);\r\n\r\n        if (choosen) proposal.upvotes++;\r\n        else proposal.downvotes++;\r\n\r\n        stakeholderVotes[msg.sender].push(proposal.id);\r\n\r\n        votedOn[proposal.id].push(\r\n            VotedStruct(\r\n                msg.sender,\r\n                block.timestamp,\r\n                choosen\r\n            )\r\n        );\r\n\r\n        emit Action(\r\n            msg.sender,\r\n            STAKEHOLDER_ROLE,\r\n            \"PROPOSAL VOTE\",\r\n            proposal.beneficiary,\r\n            proposal.amount\r\n        );\r\n    }\r\n\r\n    function handleVoting(ProposalStruct storage proposal) private {\r\n        if (\r\n            proposal.passed ||\r\n            proposal.duration <= block.timestamp\r\n        ) {\r\n            proposal.passed = true;\r\n            revert(\"Proposal duration expired\");\r\n        }\r\n\r\n        uint256[] memory tempVotes = stakeholderVotes[msg.sender];\r\n        for (uint256 votes = 0; votes < tempVotes.length; votes++) {\r\n            if (proposal.id == tempVotes[votes])\r\n                revert(\"Double voting not allowed\");\r\n        }\r\n    }\r\n\r\n    function payBeneficiary(uint256 proposalId)\r\n        external\r\n        stakeholderOnly(\"Unauthorized: Stakeholders only\")\r\n        returns (bool)\r\n    {\r\n        ProposalStruct storage proposal = raisedProposals[proposalId];\r\n        require(daoBalance >= proposal.amount, \"Insufficient fund\");\r\n        require(block.timestamp > proposal.duration, \"Proposal still ongoing\");\r\n\r\n        if (proposal.paid) revert(\"Payment sent before\");\r\n\r\n        if (proposal.upvotes <= proposal.downvotes)\r\n            revert(\"Insufficient votes\");\r\n\r\n        payTo(proposal.beneficiary, proposal.amount);\r\n\r\n        proposal.paid = true;\r\n        proposal.executor = msg.sender;\r\n        daoBalance -= proposal.amount;\r\n\r\n        emit Action(\r\n            msg.sender,\r\n            STAKEHOLDER_ROLE,\r\n            \"PAYMENT TRANSFERED\",\r\n            proposal.beneficiary,\r\n            proposal.amount\r\n        );\r\n\r\n        return true;\r\n    }\r\n\r\n    function contribute() payable external {\r\n\r\n        if (!hasRole(STAKEHOLDER_ROLE, msg.sender)) {\r\n            uint256 totalContribution =\r\n                contributors[msg.sender] + msg.value;\r\n\r\n            if (totalContribution >= 5 ether) {\r\n                stakeholders[msg.sender] = totalContribution;\r\n                contributors[msg.sender] += msg.value;\r\n                _setupRole(STAKEHOLDER_ROLE, msg.sender);\r\n                _setupRole(CONTRIBUTOR_ROLE, msg.sender);\r\n            } else {\r\n                contributors[msg.sender] += msg.value;\r\n                _setupRole(CONTRIBUTOR_ROLE, msg.sender);\r\n            }\r\n        } else {\r\n            contributors[msg.sender] += msg.value;\r\n            stakeholders[msg.sender] += msg.value;\r\n        }\r\n        \r\n        daoBalance += msg.value;\r\n\r\n        emit Action(\r\n            msg.sender,\r\n            STAKEHOLDER_ROLE,\r\n            \"CONTRIBUTION RECEIVED\",\r\n            address(this),\r\n            msg.value\r\n        );\r\n    }\r\n\r\n    function getProposals()\r\n        external\r\n        view\r\n        returns (ProposalStruct[] memory props)\r\n    {\r\n        props = new ProposalStruct[](totalProposals);\r\n\r\n        for (uint256 i = 0; i < totalProposals; i++) {\r\n            props[i] = raisedProposals[i];\r\n        }\r\n    }\r\n\r\n    function getProposal(uint256 proposalId)\r\n        external\r\n        view\r\n        returns (ProposalStruct memory)\r\n    {\r\n        return raisedProposals[proposalId];\r\n    }\r\n    \r\n    function getVotesOf(uint256 proposalId)\r\n        external\r\n        view\r\n        returns (VotedStruct[] memory)\r\n    {\r\n        return votedOn[proposalId];\r\n    }\r\n\r\n    function getStakeholderVotes()\r\n        external\r\n        view\r\n        stakeholderOnly(\"Unauthorized: not a stakeholder\")\r\n        returns (uint256[] memory)\r\n    {\r\n        return stakeholderVotes[msg.sender];\r\n    }\r\n\r\n    function getStakeholderBalance()\r\n        external\r\n        view\r\n        stakeholderOnly(\"Unauthorized: not a stakeholder\")\r\n        returns (uint256)\r\n    {\r\n        return stakeholders[msg.sender];\r\n    }\r\n\r\n    function isStakeholder() external view returns (bool) {\r\n        return stakeholders[msg.sender] > 0;\r\n    }\r\n\r\n    function getContributorBalance()\r\n        external\r\n        view\r\n        contributorOnly(\"Denied: User is not a contributor\")\r\n        returns (uint256)\r\n    {\r\n        return contributors[msg.sender];\r\n    }\r\n\r\n    function isContributor() external view returns (bool) {\r\n        return contributors[msg.sender] > 0;\r\n    }\r\n\r\n    function getBalance() external view returns (uint256) {\r\n        return contributors[msg.sender];\r\n    }\r\n\r\n    function payTo(\r\n        address to, \r\n        uint256 amount\r\n    ) internal returns (bool) {\r\n        (bool success,) = payable(to).call{value: amount}(\"\");\r\n        require(success, \"Payment failed\");\r\n        return true;\r\n    }\r\n}",
  "sourcePath": "C:\\sites\\dApps\\dominionDAO\\src\\contracts\\DominionDAO.sol",
  "compiler": {
    "name": "solc",
    "version": "0.8.11+commit.d7f03943.Emscripten.clang"
  },
  "schemaVersion": "3.4.4",
  "updatedAt": "2022-05-30T09:21:36.505Z",
  "networkType": "ethereum",
  "devdoc": {
    "kind": "dev",
    "methods": {
      "getRoleAdmin(bytes32)": {
        "details": "Returns the admin role that controls `role`. See {grantRole} and {revokeRole}. To change a role's admin, use {_setRoleAdmin}."
      },
      "grantRole(bytes32,address)": {
        "details": "Grants `role` to `account`. If `account` had not been already granted `role`, emits a {RoleGranted} event. Requirements: - the caller must have ``role``'s admin role."
      },
      "hasRole(bytes32,address)": {
        "details": "Returns `true` if `account` has been granted `role`."
      },
      "renounceRole(bytes32,address)": {
        "details": "Revokes `role` from the calling account. Roles are often managed via {grantRole} and {revokeRole}: this function's purpose is to provide a mechanism for accounts to lose their privileges if they are compromised (such as when a trusted device is misplaced). If the calling account had been revoked `role`, emits a {RoleRevoked} event. Requirements: - the caller must be `account`."
      },
      "revokeRole(bytes32,address)": {
        "details": "Revokes `role` from `account`. If `account` had been granted `role`, emits a {RoleRevoked} event. Requirements: - the caller must have ``role``'s admin role."
      },
      "supportsInterface(bytes4)": {
        "details": "See {IERC165-supportsInterface}."
      }
    },
    "version": 1
  },
  "userdoc": {
    "kind": "user",
    "methods": {},
    "version": 1
  }
}